{
	"contracts/Twitter.sol": {
		"Twitter": {
			"abi": [
				{
					"inputs": [],
					"stateMutability": "nonpayable",
					"type": "constructor"
				},
				{
					"inputs": [],
					"name": "MaxTweetAllowed",
					"outputs": [
						{
							"internalType": "uint16",
							"name": "",
							"type": "uint16"
						}
					],
					"stateMutability": "view",
					"type": "function"
				},
				{
					"inputs": [
						{
							"internalType": "uint16",
							"name": "newTweetLength",
							"type": "uint16"
						}
					],
					"name": "changeTweetLength",
					"outputs": [],
					"stateMutability": "nonpayable",
					"type": "function"
				},
				{
					"inputs": [
						{
							"internalType": "string",
							"name": "a",
							"type": "string"
						}
					],
					"name": "createTweet",
					"outputs": [],
					"stateMutability": "nonpayable",
					"type": "function"
				},
				{
					"inputs": [
						{
							"internalType": "address",
							"name": "a",
							"type": "address"
						}
					],
					"name": "getAllTweet",
					"outputs": [
						{
							"components": [
								{
									"internalType": "uint256",
									"name": "id",
									"type": "uint256"
								},
								{
									"internalType": "address",
									"name": "author",
									"type": "address"
								},
								{
									"internalType": "string",
									"name": "content",
									"type": "string"
								},
								{
									"internalType": "uint256",
									"name": "timestamp",
									"type": "uint256"
								},
								{
									"internalType": "uint256",
									"name": "likes",
									"type": "uint256"
								}
							],
							"internalType": "struct Twitter.Tweet[]",
							"name": "",
							"type": "tuple[]"
						}
					],
					"stateMutability": "view",
					"type": "function"
				},
				{
					"inputs": [
						{
							"internalType": "uint256",
							"name": "i",
							"type": "uint256"
						}
					],
					"name": "getTweet",
					"outputs": [
						{
							"components": [
								{
									"internalType": "uint256",
									"name": "id",
									"type": "uint256"
								},
								{
									"internalType": "address",
									"name": "author",
									"type": "address"
								},
								{
									"internalType": "string",
									"name": "content",
									"type": "string"
								},
								{
									"internalType": "uint256",
									"name": "timestamp",
									"type": "uint256"
								},
								{
									"internalType": "uint256",
									"name": "likes",
									"type": "uint256"
								}
							],
							"internalType": "struct Twitter.Tweet",
							"name": "",
							"type": "tuple"
						}
					],
					"stateMutability": "view",
					"type": "function"
				},
				{
					"inputs": [
						{
							"internalType": "address",
							"name": "author",
							"type": "address"
						},
						{
							"internalType": "uint256",
							"name": "id",
							"type": "uint256"
						}
					],
					"name": "likeTweet",
					"outputs": [],
					"stateMutability": "nonpayable",
					"type": "function"
				},
				{
					"inputs": [],
					"name": "owner",
					"outputs": [
						{
							"internalType": "address",
							"name": "",
							"type": "address"
						}
					],
					"stateMutability": "view",
					"type": "function"
				},
				{
					"inputs": [
						{
							"internalType": "address",
							"name": "",
							"type": "address"
						},
						{
							"internalType": "uint256",
							"name": "",
							"type": "uint256"
						}
					],
					"name": "tweets",
					"outputs": [
						{
							"internalType": "uint256",
							"name": "id",
							"type": "uint256"
						},
						{
							"internalType": "address",
							"name": "author",
							"type": "address"
						},
						{
							"internalType": "string",
							"name": "content",
							"type": "string"
						},
						{
							"internalType": "uint256",
							"name": "timestamp",
							"type": "uint256"
						},
						{
							"internalType": "uint256",
							"name": "likes",
							"type": "uint256"
						}
					],
					"stateMutability": "view",
					"type": "function"
				},
				{
					"inputs": [
						{
							"internalType": "address",
							"name": "author",
							"type": "address"
						},
						{
							"internalType": "uint256",
							"name": "id",
							"type": "uint256"
						}
					],
					"name": "unlikeTweet",
					"outputs": [],
					"stateMutability": "nonpayable",
					"type": "function"
				}
			],
			"devdoc": {
				"kind": "dev",
				"methods": {},
				"version": 1
			},
			"evm": {
				"assembly": "    /* \"contracts/Twitter.sol\":63:1729  contract Twitter {... */\n  mstore(0x40, 0x80)\n    /* \"contracts/Twitter.sol\":121:124  280 */\n  0x0118\n    /* \"contracts/Twitter.sol\":89:124  uint16 public MaxTweetAllowed = 280 */\n  0x00\n  exp(0x0100, 0x00)\n  dup2\n  sload\n  dup2\n  0xffff\n  mul\n  not\n  and\n  swap1\n  dup4\n  0xffff\n  and\n  mul\n  or\n  swap1\n  sstore\n  pop\n    /* \"contracts/Twitter.sol\":359:410  constructor() {... */\n  callvalue\n  dup1\n  iszero\n  tag_1\n  jumpi\n  revert(0x00, 0x00)\ntag_1:\n  pop\n    /* \"contracts/Twitter.sol\":392:402  msg.sender */\n  caller\n    /* \"contracts/Twitter.sol\":384:389  owner */\n  0x02\n  0x00\n    /* \"contracts/Twitter.sol\":384:402  owner = msg.sender */\n  0x0100\n  exp\n  dup2\n  sload\n  dup2\n  0xffffffffffffffffffffffffffffffffffffffff\n  mul\n  not\n  and\n  swap1\n  dup4\n  0xffffffffffffffffffffffffffffffffffffffff\n  and\n  mul\n  or\n  swap1\n  sstore\n  pop\n    /* \"contracts/Twitter.sol\":63:1729  contract Twitter {... */\n  dataSize(sub_0)\n  dup1\n  dataOffset(sub_0)\n  0x00\n  codecopy\n  0x00\n  return\nstop\n\nsub_0: assembly {\n        /* \"contracts/Twitter.sol\":63:1729  contract Twitter {... */\n      mstore(0x40, 0x80)\n      callvalue\n      dup1\n      iszero\n      tag_1\n      jumpi\n      revert(0x00, 0x00)\n    tag_1:\n      pop\n      jumpi(tag_2, lt(calldatasize, 0x04))\n      shr(0xe0, calldataload(0x00))\n      dup1\n      0x7c9cd2bc\n      gt\n      tag_12\n      jumpi\n      dup1\n      0x7c9cd2bc\n      eq\n      tag_7\n      jumpi\n      dup1\n      0x8da5cb5b\n      eq\n      tag_8\n      jumpi\n      dup1\n      0xb64988b8\n      eq\n      tag_9\n      jumpi\n      dup1\n      0xc3ad5ecb\n      eq\n      tag_10\n      jumpi\n      dup1\n      0xcb886fa7\n      eq\n      tag_11\n      jumpi\n      jump(tag_2)\n    tag_12:\n      dup1\n      0x05a1b4a9\n      eq\n      tag_3\n      jumpi\n      dup1\n      0x3d9b569f\n      eq\n      tag_4\n      jumpi\n      dup1\n      0x58bfa4ab\n      eq\n      tag_5\n      jumpi\n      dup1\n      0x63378216\n      eq\n      tag_6\n      jumpi\n    tag_2:\n      revert(0x00, 0x00)\n        /* \"contracts/Twitter.sol\":282:323  mapping(address => Tweet[]) public tweets */\n    tag_3:\n      tag_13\n      0x04\n      dup1\n      calldatasize\n      sub\n      dup2\n      add\n      swap1\n      tag_14\n      swap2\n      swap1\n      tag_15\n      jump\t// in\n    tag_14:\n      tag_16\n      jump\t// in\n    tag_13:\n      mload(0x40)\n      tag_17\n      swap6\n      swap5\n      swap4\n      swap3\n      swap2\n      swap1\n      tag_18\n      jump\t// in\n    tag_17:\n      mload(0x40)\n      dup1\n      swap2\n      sub\n      swap1\n      return\n        /* \"contracts/Twitter.sol\":1255:1498  function unlikeTweet(address author, uint256 id) external {... */\n    tag_4:\n      tag_19\n      0x04\n      dup1\n      calldatasize\n      sub\n      dup2\n      add\n      swap1\n      tag_20\n      swap2\n      swap1\n      tag_15\n      jump\t// in\n    tag_20:\n      tag_21\n      jump\t// in\n    tag_19:\n      stop\n        /* \"contracts/Twitter.sol\":531:649  function changeTweetLength(uint16 newTweetLength) public onlyOwner {... */\n    tag_5:\n      tag_22\n      0x04\n      dup1\n      calldatasize\n      sub\n      dup2\n      add\n      swap1\n      tag_23\n      swap2\n      swap1\n      tag_24\n      jump\t// in\n    tag_23:\n      tag_25\n      jump\t// in\n    tag_22:\n      stop\n        /* \"contracts/Twitter.sol\":1065:1247  function likeTweet(address author, uint256 id) external {... */\n    tag_6:\n      tag_26\n      0x04\n      dup1\n      calldatasize\n      sub\n      dup2\n      add\n      swap1\n      tag_27\n      swap2\n      swap1\n      tag_15\n      jump\t// in\n    tag_27:\n      tag_28\n      jump\t// in\n    tag_26:\n      stop\n        /* \"contracts/Twitter.sol\":657:1057  function createTweet(string memory a) public {... */\n    tag_7:\n      tag_29\n      0x04\n      dup1\n      calldatasize\n      sub\n      dup2\n      add\n      swap1\n      tag_30\n      swap2\n      swap1\n      tag_31\n      jump\t// in\n    tag_30:\n      tag_32\n      jump\t// in\n    tag_29:\n      stop\n        /* \"contracts/Twitter.sol\":330:350  address public owner */\n    tag_8:\n      tag_33\n      tag_34\n      jump\t// in\n    tag_33:\n      mload(0x40)\n      tag_35\n      swap2\n      swap1\n      tag_36\n      jump\t// in\n    tag_35:\n      mload(0x40)\n      dup1\n      swap2\n      sub\n      swap1\n      return\n        /* \"contracts/Twitter.sol\":1622:1726  function getAllTweet(address a) public view returns (Tweet[] memory) {... */\n    tag_9:\n      tag_37\n      0x04\n      dup1\n      calldatasize\n      sub\n      dup2\n      add\n      swap1\n      tag_38\n      swap2\n      swap1\n      tag_39\n      jump\t// in\n    tag_38:\n      tag_40\n      jump\t// in\n    tag_37:\n      mload(0x40)\n      tag_41\n      swap2\n      swap1\n      tag_42\n      jump\t// in\n    tag_41:\n      mload(0x40)\n      dup1\n      swap2\n      sub\n      swap1\n      return\n        /* \"contracts/Twitter.sol\":1506:1614  function getTweet(uint i) public view returns (Tweet memory) {... */\n    tag_10:\n      tag_43\n      0x04\n      dup1\n      calldatasize\n      sub\n      dup2\n      add\n      swap1\n      tag_44\n      swap2\n      swap1\n      tag_45\n      jump\t// in\n    tag_44:\n      tag_46\n      jump\t// in\n    tag_43:\n      mload(0x40)\n      tag_47\n      swap2\n      swap1\n      tag_48\n      jump\t// in\n    tag_47:\n      mload(0x40)\n      dup1\n      swap2\n      sub\n      swap1\n      return\n        /* \"contracts/Twitter.sol\":89:124  uint16 public MaxTweetAllowed = 280 */\n    tag_11:\n      tag_49\n      tag_50\n      jump\t// in\n    tag_49:\n      mload(0x40)\n      tag_51\n      swap2\n      swap1\n      tag_52\n      jump\t// in\n    tag_51:\n      mload(0x40)\n      dup1\n      swap2\n      sub\n      swap1\n      return\n        /* \"contracts/Twitter.sol\":282:323  mapping(address => Tweet[]) public tweets */\n    tag_16:\n      mstore(0x20, 0x01)\n      dup2\n      0x00\n      mstore\n      keccak256(0x00, 0x40)\n      dup2\n      dup2\n      sload\n      dup2\n      lt\n      tag_53\n      jumpi\n      0x00\n      dup1\n      revert\n    tag_53:\n      swap1\n      0x00\n      mstore\n      keccak256(0x00, 0x20)\n      swap1\n      0x05\n      mul\n      add\n      0x00\n      swap2\n      pop\n      swap2\n      pop\n      pop\n      dup1\n      0x00\n      add\n      sload\n      swap1\n      dup1\n      0x01\n      add\n      0x00\n      swap1\n      sload\n      swap1\n      0x0100\n      exp\n      swap1\n      div\n      0xffffffffffffffffffffffffffffffffffffffff\n      and\n      swap1\n      dup1\n      0x02\n      add\n      dup1\n      sload\n      tag_55\n      swap1\n      tag_56\n      jump\t// in\n    tag_55:\n      dup1\n      0x1f\n      add\n      0x20\n      dup1\n      swap2\n      div\n      mul\n      0x20\n      add\n      mload(0x40)\n      swap1\n      dup2\n      add\n      0x40\n      mstore\n      dup1\n      swap3\n      swap2\n      swap1\n      dup2\n      dup2\n      mstore\n      0x20\n      add\n      dup3\n      dup1\n      sload\n      tag_57\n      swap1\n      tag_56\n      jump\t// in\n    tag_57:\n      dup1\n      iszero\n      tag_58\n      jumpi\n      dup1\n      0x1f\n      lt\n      tag_59\n      jumpi\n      0x0100\n      dup1\n      dup4\n      sload\n      div\n      mul\n      dup4\n      mstore\n      swap2\n      0x20\n      add\n      swap2\n      jump(tag_58)\n    tag_59:\n      dup3\n      add\n      swap2\n      swap1\n      0x00\n      mstore\n      keccak256(0x00, 0x20)\n      swap1\n    tag_60:\n      dup2\n      sload\n      dup2\n      mstore\n      swap1\n      0x01\n      add\n      swap1\n      0x20\n      add\n      dup1\n      dup4\n      gt\n      tag_60\n      jumpi\n      dup3\n      swap1\n      sub\n      0x1f\n      and\n      dup3\n      add\n      swap2\n    tag_58:\n      pop\n      pop\n      pop\n      pop\n      pop\n      swap1\n      dup1\n      0x03\n      add\n      sload\n      swap1\n      dup1\n      0x04\n      add\n      sload\n      swap1\n      pop\n      dup6\n      jump\t// out\n        /* \"contracts/Twitter.sol\":1255:1498  function unlikeTweet(address author, uint256 id) external {... */\n    tag_21:\n        /* \"contracts/Twitter.sol\":1357:1359  id */\n      dup1\n        /* \"contracts/Twitter.sol\":1332:1338  tweets */\n      0x01\n        /* \"contracts/Twitter.sol\":1332:1346  tweets[author] */\n      0x00\n        /* \"contracts/Twitter.sol\":1339:1345  author */\n      dup5\n        /* \"contracts/Twitter.sol\":1332:1346  tweets[author] */\n      0xffffffffffffffffffffffffffffffffffffffff\n      and\n      0xffffffffffffffffffffffffffffffffffffffff\n      and\n      dup2\n      mstore\n      0x20\n      add\n      swap1\n      dup2\n      mstore\n      0x20\n      add\n      0x00\n      keccak256\n        /* \"contracts/Twitter.sol\":1347:1349  id */\n      dup3\n        /* \"contracts/Twitter.sol\":1332:1350  tweets[author][id] */\n      dup2\n      sload\n      dup2\n      lt\n      tag_62\n      jumpi\n      tag_63\n      tag_64\n      jump\t// in\n    tag_63:\n    tag_62:\n      swap1\n      0x00\n      mstore\n      keccak256(0x00, 0x20)\n      swap1\n      0x05\n      mul\n      add\n        /* \"contracts/Twitter.sol\":1332:1353  tweets[author][id].id */\n      0x00\n      add\n      sload\n        /* \"contracts/Twitter.sol\":1332:1359  tweets[author][id].id == id */\n      eq\n        /* \"contracts/Twitter.sol\":1324:1384  require(tweets[author][id].id == id, \"TWEET DOES NOT EXIST\") */\n      tag_66\n      jumpi\n      mload(0x40)\n      0x08c379a000000000000000000000000000000000000000000000000000000000\n      dup2\n      mstore\n      0x04\n      add\n      tag_67\n      swap1\n      tag_68\n      jump\t// in\n    tag_67:\n      mload(0x40)\n      dup1\n      swap2\n      sub\n      swap1\n      revert\n    tag_66:\n        /* \"contracts/Twitter.sol\":1430:1431  0 */\n      0x00\n        /* \"contracts/Twitter.sol\":1403:1409  tweets */\n      0x01\n        /* \"contracts/Twitter.sol\":1403:1417  tweets[author] */\n      0x00\n        /* \"contracts/Twitter.sol\":1410:1416  author */\n      dup5\n        /* \"contracts/Twitter.sol\":1403:1417  tweets[author] */\n      0xffffffffffffffffffffffffffffffffffffffff\n      and\n      0xffffffffffffffffffffffffffffffffffffffff\n      and\n      dup2\n      mstore\n      0x20\n      add\n      swap1\n      dup2\n      mstore\n      0x20\n      add\n      0x00\n      keccak256\n        /* \"contracts/Twitter.sol\":1418:1420  id */\n      dup3\n        /* \"contracts/Twitter.sol\":1403:1421  tweets[author][id] */\n      dup2\n      sload\n      dup2\n      lt\n      tag_69\n      jumpi\n      tag_70\n      tag_64\n      jump\t// in\n    tag_70:\n    tag_69:\n      swap1\n      0x00\n      mstore\n      keccak256(0x00, 0x20)\n      swap1\n      0x05\n      mul\n      add\n        /* \"contracts/Twitter.sol\":1403:1427  tweets[author][id].likes */\n      0x04\n      add\n      sload\n        /* \"contracts/Twitter.sol\":1403:1431  tweets[author][id].likes > 0 */\n      gt\n        /* \"contracts/Twitter.sol\":1395:1453  require(tweets[author][id].likes > 0, \"TWEET HAS NO LIKE\") */\n      tag_72\n      jumpi\n      mload(0x40)\n      0x08c379a000000000000000000000000000000000000000000000000000000000\n      dup2\n      mstore\n      0x04\n      add\n      tag_73\n      swap1\n      tag_74\n      jump\t// in\n    tag_73:\n      mload(0x40)\n      dup1\n      swap2\n      sub\n      swap1\n      revert\n    tag_72:\n        /* \"contracts/Twitter.sol\":1464:1470  tweets */\n      0x01\n        /* \"contracts/Twitter.sol\":1464:1478  tweets[author] */\n      0x00\n        /* \"contracts/Twitter.sol\":1471:1477  author */\n      dup4\n        /* \"contracts/Twitter.sol\":1464:1478  tweets[author] */\n      0xffffffffffffffffffffffffffffffffffffffff\n      and\n      0xffffffffffffffffffffffffffffffffffffffff\n      and\n      dup2\n      mstore\n      0x20\n      add\n      swap1\n      dup2\n      mstore\n      0x20\n      add\n      0x00\n      keccak256\n        /* \"contracts/Twitter.sol\":1479:1481  id */\n      dup2\n        /* \"contracts/Twitter.sol\":1464:1482  tweets[author][id] */\n      dup2\n      sload\n      dup2\n      lt\n      tag_75\n      jumpi\n      tag_76\n      tag_64\n      jump\t// in\n    tag_76:\n    tag_75:\n      swap1\n      0x00\n      mstore\n      keccak256(0x00, 0x20)\n      swap1\n      0x05\n      mul\n      add\n        /* \"contracts/Twitter.sol\":1464:1488  tweets[author][id].likes */\n      0x04\n      add\n      0x00\n        /* \"contracts/Twitter.sol\":1464:1490  tweets[author][id].likes-- */\n      dup2\n      sload\n      dup1\n      swap3\n      swap2\n      swap1\n      tag_78\n      swap1\n      tag_79\n      jump\t// in\n    tag_78:\n      swap2\n      swap1\n      pop\n      sstore\n      pop\n        /* \"contracts/Twitter.sol\":1255:1498  function unlikeTweet(address author, uint256 id) external {... */\n      pop\n      pop\n      jump\t// out\n        /* \"contracts/Twitter.sol\":531:649  function changeTweetLength(uint16 newTweetLength) public onlyOwner {... */\n    tag_25:\n        /* \"contracts/Twitter.sol\":472:477  owner */\n      0x02\n      0x00\n      swap1\n      sload\n      swap1\n      0x0100\n      exp\n      swap1\n      div\n      0xffffffffffffffffffffffffffffffffffffffff\n      and\n        /* \"contracts/Twitter.sol\":458:477  msg.sender == owner */\n      0xffffffffffffffffffffffffffffffffffffffff\n      and\n        /* \"contracts/Twitter.sol\":458:468  msg.sender */\n      caller\n        /* \"contracts/Twitter.sol\":458:477  msg.sender == owner */\n      0xffffffffffffffffffffffffffffffffffffffff\n      and\n      eq\n        /* \"contracts/Twitter.sol\":450:503  require(msg.sender == owner, \"YOU ARE NOT THE OWNER\") */\n      tag_81\n      jumpi\n      mload(0x40)\n      0x08c379a000000000000000000000000000000000000000000000000000000000\n      dup2\n      mstore\n      0x04\n      add\n      tag_82\n      swap1\n      tag_83\n      jump\t// in\n    tag_82:\n      mload(0x40)\n      dup1\n      swap2\n      sub\n      swap1\n      revert\n    tag_81:\n        /* \"contracts/Twitter.sol\":627:641  newTweetLength */\n      dup1\n        /* \"contracts/Twitter.sol\":609:624  MaxTweetAllowed */\n      0x00\n      0x00\n        /* \"contracts/Twitter.sol\":609:641  MaxTweetAllowed = newTweetLength */\n      0x0100\n      exp\n      dup2\n      sload\n      dup2\n      0xffff\n      mul\n      not\n      and\n      swap1\n      dup4\n      0xffff\n      and\n      mul\n      or\n      swap1\n      sstore\n      pop\n        /* \"contracts/Twitter.sol\":531:649  function changeTweetLength(uint16 newTweetLength) public onlyOwner {... */\n      pop\n      jump\t// out\n        /* \"contracts/Twitter.sol\":1065:1247  function likeTweet(address author, uint256 id) external {... */\n    tag_28:\n        /* \"contracts/Twitter.sol\":1165:1167  id */\n      dup1\n        /* \"contracts/Twitter.sol\":1140:1146  tweets */\n      0x01\n        /* \"contracts/Twitter.sol\":1140:1154  tweets[author] */\n      0x00\n        /* \"contracts/Twitter.sol\":1147:1153  author */\n      dup5\n        /* \"contracts/Twitter.sol\":1140:1154  tweets[author] */\n      0xffffffffffffffffffffffffffffffffffffffff\n      and\n      0xffffffffffffffffffffffffffffffffffffffff\n      and\n      dup2\n      mstore\n      0x20\n      add\n      swap1\n      dup2\n      mstore\n      0x20\n      add\n      0x00\n      keccak256\n        /* \"contracts/Twitter.sol\":1155:1157  id */\n      dup3\n        /* \"contracts/Twitter.sol\":1140:1158  tweets[author][id] */\n      dup2\n      sload\n      dup2\n      lt\n      tag_86\n      jumpi\n      tag_87\n      tag_64\n      jump\t// in\n    tag_87:\n    tag_86:\n      swap1\n      0x00\n      mstore\n      keccak256(0x00, 0x20)\n      swap1\n      0x05\n      mul\n      add\n        /* \"contracts/Twitter.sol\":1140:1161  tweets[author][id].id */\n      0x00\n      add\n      sload\n        /* \"contracts/Twitter.sol\":1140:1167  tweets[author][id].id == id */\n      eq\n        /* \"contracts/Twitter.sol\":1132:1192  require(tweets[author][id].id == id, \"TWEET DOES NOT EXIST\") */\n      tag_89\n      jumpi\n      mload(0x40)\n      0x08c379a000000000000000000000000000000000000000000000000000000000\n      dup2\n      mstore\n      0x04\n      add\n      tag_90\n      swap1\n      tag_68\n      jump\t// in\n    tag_90:\n      mload(0x40)\n      dup1\n      swap2\n      sub\n      swap1\n      revert\n    tag_89:\n        /* \"contracts/Twitter.sol\":1213:1219  tweets */\n      0x01\n        /* \"contracts/Twitter.sol\":1213:1227  tweets[author] */\n      0x00\n        /* \"contracts/Twitter.sol\":1220:1226  author */\n      dup4\n        /* \"contracts/Twitter.sol\":1213:1227  tweets[author] */\n      0xffffffffffffffffffffffffffffffffffffffff\n      and\n      0xffffffffffffffffffffffffffffffffffffffff\n      and\n      dup2\n      mstore\n      0x20\n      add\n      swap1\n      dup2\n      mstore\n      0x20\n      add\n      0x00\n      keccak256\n        /* \"contracts/Twitter.sol\":1228:1230  id */\n      dup2\n        /* \"contracts/Twitter.sol\":1213:1231  tweets[author][id] */\n      dup2\n      sload\n      dup2\n      lt\n      tag_91\n      jumpi\n      tag_92\n      tag_64\n      jump\t// in\n    tag_92:\n    tag_91:\n      swap1\n      0x00\n      mstore\n      keccak256(0x00, 0x20)\n      swap1\n      0x05\n      mul\n      add\n        /* \"contracts/Twitter.sol\":1213:1237  tweets[author][id].likes */\n      0x04\n      add\n      0x00\n        /* \"contracts/Twitter.sol\":1213:1239  tweets[author][id].likes++ */\n      dup2\n      sload\n      dup1\n      swap3\n      swap2\n      swap1\n      tag_94\n      swap1\n      tag_95\n      jump\t// in\n    tag_94:\n      swap2\n      swap1\n      pop\n      sstore\n      pop\n        /* \"contracts/Twitter.sol\":1065:1247  function likeTweet(address author, uint256 id) external {... */\n      pop\n      pop\n      jump\t// out\n        /* \"contracts/Twitter.sol\":657:1057  function createTweet(string memory a) public {... */\n    tag_32:\n        /* \"contracts/Twitter.sol\":740:755  MaxTweetAllowed */\n      0x00\n      0x00\n      swap1\n      sload\n      swap1\n      0x0100\n      exp\n      swap1\n      div\n      0xffff\n      and\n        /* \"contracts/Twitter.sol\":721:755  bytes(a).length <= MaxTweetAllowed */\n      0xffff\n      and\n        /* \"contracts/Twitter.sol\":727:728  a */\n      dup2\n        /* \"contracts/Twitter.sol\":721:736  bytes(a).length */\n      mload\n        /* \"contracts/Twitter.sol\":721:755  bytes(a).length <= MaxTweetAllowed */\n      gt\n      iszero\n        /* \"contracts/Twitter.sol\":713:782  require(bytes(a).length <= MaxTweetAllowed, \"Tweet is too long bro!\") */\n      tag_97\n      jumpi\n      mload(0x40)\n      0x08c379a000000000000000000000000000000000000000000000000000000000\n      dup2\n      mstore\n      0x04\n      add\n      tag_98\n      swap1\n      tag_99\n      jump\t// in\n    tag_98:\n      mload(0x40)\n      dup1\n      swap2\n      sub\n      swap1\n      revert\n    tag_97:\n        /* \"contracts/Twitter.sol\":795:816  Tweet memory newTweet */\n      0x00\n        /* \"contracts/Twitter.sol\":819:1003  Tweet({... */\n      mload(0x40)\n      dup1\n      0xa0\n      add\n      0x40\n      mstore\n      dup1\n        /* \"contracts/Twitter.sol\":844:850  tweets */\n      0x01\n        /* \"contracts/Twitter.sol\":844:862  tweets[msg.sender] */\n      0x00\n        /* \"contracts/Twitter.sol\":851:861  msg.sender */\n      caller\n        /* \"contracts/Twitter.sol\":844:862  tweets[msg.sender] */\n      0xffffffffffffffffffffffffffffffffffffffff\n      and\n      0xffffffffffffffffffffffffffffffffffffffff\n      and\n      dup2\n      mstore\n      0x20\n      add\n      swap1\n      dup2\n      mstore\n      0x20\n      add\n      0x00\n      keccak256\n        /* \"contracts/Twitter.sol\":844:869  tweets[msg.sender].length */\n      dup1\n      sload\n      swap1\n      pop\n        /* \"contracts/Twitter.sol\":819:1003  Tweet({... */\n      dup2\n      mstore\n      0x20\n      add\n        /* \"contracts/Twitter.sol\":892:902  msg.sender */\n      caller\n        /* \"contracts/Twitter.sol\":819:1003  Tweet({... */\n      0xffffffffffffffffffffffffffffffffffffffff\n      and\n      dup2\n      mstore\n      0x20\n      add\n        /* \"contracts/Twitter.sol\":926:927  a */\n      dup4\n        /* \"contracts/Twitter.sol\":819:1003  Tweet({... */\n      dup2\n      mstore\n      0x20\n      add\n        /* \"contracts/Twitter.sol\":953:968  block.timestamp */\n      timestamp\n        /* \"contracts/Twitter.sol\":819:1003  Tweet({... */\n      dup2\n      mstore\n      0x20\n      add\n        /* \"contracts/Twitter.sol\":990:991  0 */\n      0x00\n        /* \"contracts/Twitter.sol\":819:1003  Tweet({... */\n      dup2\n      mstore\n      pop\n        /* \"contracts/Twitter.sol\":795:1003  Tweet memory newTweet = Tweet({... */\n      swap1\n      pop\n        /* \"contracts/Twitter.sol\":1016:1022  tweets */\n      0x01\n        /* \"contracts/Twitter.sol\":1016:1034  tweets[msg.sender] */\n      0x00\n        /* \"contracts/Twitter.sol\":1023:1033  msg.sender */\n      caller\n        /* \"contracts/Twitter.sol\":1016:1034  tweets[msg.sender] */\n      0xffffffffffffffffffffffffffffffffffffffff\n      and\n      0xffffffffffffffffffffffffffffffffffffffff\n      and\n      dup2\n      mstore\n      0x20\n      add\n      swap1\n      dup2\n      mstore\n      0x20\n      add\n      0x00\n      keccak256\n        /* \"contracts/Twitter.sol\":1040:1048  newTweet */\n      dup2\n        /* \"contracts/Twitter.sol\":1016:1049  tweets[msg.sender].push(newTweet) */\n      swap1\n      dup1\n      0x01\n      dup2\n      sload\n      add\n      dup1\n      dup3\n      sstore\n      dup1\n      swap2\n      pop\n      pop\n      0x01\n      swap1\n      sub\n      swap1\n      0x00\n      mstore\n      keccak256(0x00, 0x20)\n      swap1\n      0x05\n      mul\n      add\n      0x00\n      swap1\n      swap2\n      swap1\n      swap2\n      swap1\n      swap2\n      pop\n      0x00\n      dup3\n      add\n      mload\n      dup2\n      0x00\n      add\n      sstore\n      0x20\n      dup3\n      add\n      mload\n      dup2\n      0x01\n      add\n      exp(0x0100, 0x00)\n      dup2\n      sload\n      dup2\n      0xffffffffffffffffffffffffffffffffffffffff\n      mul\n      not\n      and\n      swap1\n      dup4\n      0xffffffffffffffffffffffffffffffffffffffff\n      and\n      mul\n      or\n      swap1\n      sstore\n      pop\n      0x40\n      dup3\n      add\n      mload\n      dup2\n      0x02\n      add\n      swap1\n      dup2\n      tag_101\n      swap2\n      swap1\n      tag_102\n      jump\t// in\n    tag_101:\n      pop\n      0x60\n      dup3\n      add\n      mload\n      dup2\n      0x03\n      add\n      sstore\n      0x80\n      dup3\n      add\n      mload\n      dup2\n      0x04\n      add\n      sstore\n      pop\n      pop\n        /* \"contracts/Twitter.sol\":702:1057  {... */\n      pop\n        /* \"contracts/Twitter.sol\":657:1057  function createTweet(string memory a) public {... */\n      pop\n      jump\t// out\n        /* \"contracts/Twitter.sol\":330:350  address public owner */\n    tag_34:\n      0x02\n      0x00\n      swap1\n      sload\n      swap1\n      0x0100\n      exp\n      swap1\n      div\n      0xffffffffffffffffffffffffffffffffffffffff\n      and\n      dup2\n      jump\t// out\n        /* \"contracts/Twitter.sol\":1622:1726  function getAllTweet(address a) public view returns (Tweet[] memory) {... */\n    tag_40:\n        /* \"contracts/Twitter.sol\":1675:1689  Tweet[] memory */\n      0x60\n        /* \"contracts/Twitter.sol\":1709:1715  tweets */\n      0x01\n        /* \"contracts/Twitter.sol\":1709:1718  tweets[a] */\n      0x00\n        /* \"contracts/Twitter.sol\":1716:1717  a */\n      dup4\n        /* \"contracts/Twitter.sol\":1709:1718  tweets[a] */\n      0xffffffffffffffffffffffffffffffffffffffff\n      and\n      0xffffffffffffffffffffffffffffffffffffffff\n      and\n      dup2\n      mstore\n      0x20\n      add\n      swap1\n      dup2\n      mstore\n      0x20\n      add\n      0x00\n      keccak256\n        /* \"contracts/Twitter.sol\":1702:1718  return tweets[a] */\n      dup1\n      sload\n      dup1\n      0x20\n      mul\n      0x20\n      add\n      mload(0x40)\n      swap1\n      dup2\n      add\n      0x40\n      mstore\n      dup1\n      swap3\n      swap2\n      swap1\n      dup2\n      dup2\n      mstore\n      0x20\n      add\n      0x00\n      swap1\n    tag_104:\n      dup3\n      dup3\n      lt\n      iszero\n      tag_105\n      jumpi\n      dup4\n      dup3\n      swap1\n      0x00\n      mstore\n      keccak256(0x00, 0x20)\n      swap1\n      0x05\n      mul\n      add\n      mload(0x40)\n      dup1\n      0xa0\n      add\n      0x40\n      mstore\n      swap1\n      dup2\n      0x00\n      dup3\n      add\n      sload\n      dup2\n      mstore\n      0x20\n      add\n      0x01\n      dup3\n      add\n      0x00\n      swap1\n      sload\n      swap1\n      0x0100\n      exp\n      swap1\n      div\n      0xffffffffffffffffffffffffffffffffffffffff\n      and\n      0xffffffffffffffffffffffffffffffffffffffff\n      and\n      0xffffffffffffffffffffffffffffffffffffffff\n      and\n      dup2\n      mstore\n      0x20\n      add\n      0x02\n      dup3\n      add\n      dup1\n      sload\n      tag_107\n      swap1\n      tag_56\n      jump\t// in\n    tag_107:\n      dup1\n      0x1f\n      add\n      0x20\n      dup1\n      swap2\n      div\n      mul\n      0x20\n      add\n      mload(0x40)\n      swap1\n      dup2\n      add\n      0x40\n      mstore\n      dup1\n      swap3\n      swap2\n      swap1\n      dup2\n      dup2\n      mstore\n      0x20\n      add\n      dup3\n      dup1\n      sload\n      tag_108\n      swap1\n      tag_56\n      jump\t// in\n    tag_108:\n      dup1\n      iszero\n      tag_109\n      jumpi\n      dup1\n      0x1f\n      lt\n      tag_110\n      jumpi\n      0x0100\n      dup1\n      dup4\n      sload\n      div\n      mul\n      dup4\n      mstore\n      swap2\n      0x20\n      add\n      swap2\n      jump(tag_109)\n    tag_110:\n      dup3\n      add\n      swap2\n      swap1\n      0x00\n      mstore\n      keccak256(0x00, 0x20)\n      swap1\n    tag_111:\n      dup2\n      sload\n      dup2\n      mstore\n      swap1\n      0x01\n      add\n      swap1\n      0x20\n      add\n      dup1\n      dup4\n      gt\n      tag_111\n      jumpi\n      dup3\n      swap1\n      sub\n      0x1f\n      and\n      dup3\n      add\n      swap2\n    tag_109:\n      pop\n      pop\n      pop\n      pop\n      pop\n      dup2\n      mstore\n      0x20\n      add\n      0x03\n      dup3\n      add\n      sload\n      dup2\n      mstore\n      0x20\n      add\n      0x04\n      dup3\n      add\n      sload\n      dup2\n      mstore\n      pop\n      pop\n      dup2\n      mstore\n      0x20\n      add\n      swap1\n      0x01\n      add\n      swap1\n      jump(tag_104)\n    tag_105:\n      pop\n      pop\n      pop\n      pop\n      swap1\n      pop\n        /* \"contracts/Twitter.sol\":1622:1726  function getAllTweet(address a) public view returns (Tweet[] memory) {... */\n      swap2\n      swap1\n      pop\n      jump\t// out\n        /* \"contracts/Twitter.sol\":1506:1614  function getTweet(uint i) public view returns (Tweet memory) {... */\n    tag_46:\n        /* \"contracts/Twitter.sol\":1553:1565  Tweet memory */\n      tag_112\n      tag_113\n      jump\t// in\n    tag_112:\n        /* \"contracts/Twitter.sol\":1585:1591  tweets */\n      0x01\n        /* \"contracts/Twitter.sol\":1585:1603  tweets[msg.sender] */\n      0x00\n        /* \"contracts/Twitter.sol\":1592:1602  msg.sender */\n      caller\n        /* \"contracts/Twitter.sol\":1585:1603  tweets[msg.sender] */\n      0xffffffffffffffffffffffffffffffffffffffff\n      and\n      0xffffffffffffffffffffffffffffffffffffffff\n      and\n      dup2\n      mstore\n      0x20\n      add\n      swap1\n      dup2\n      mstore\n      0x20\n      add\n      0x00\n      keccak256\n        /* \"contracts/Twitter.sol\":1604:1605  i */\n      dup3\n        /* \"contracts/Twitter.sol\":1585:1606  tweets[msg.sender][i] */\n      dup2\n      sload\n      dup2\n      lt\n      tag_115\n      jumpi\n      tag_116\n      tag_64\n      jump\t// in\n    tag_116:\n    tag_115:\n      swap1\n      0x00\n      mstore\n      keccak256(0x00, 0x20)\n      swap1\n      0x05\n      mul\n      add\n        /* \"contracts/Twitter.sol\":1578:1606  return tweets[msg.sender][i] */\n      mload(0x40)\n      dup1\n      0xa0\n      add\n      0x40\n      mstore\n      swap1\n      dup2\n      0x00\n      dup3\n      add\n      sload\n      dup2\n      mstore\n      0x20\n      add\n      0x01\n      dup3\n      add\n      0x00\n      swap1\n      sload\n      swap1\n      0x0100\n      exp\n      swap1\n      div\n      0xffffffffffffffffffffffffffffffffffffffff\n      and\n      0xffffffffffffffffffffffffffffffffffffffff\n      and\n      0xffffffffffffffffffffffffffffffffffffffff\n      and\n      dup2\n      mstore\n      0x20\n      add\n      0x02\n      dup3\n      add\n      dup1\n      sload\n      tag_118\n      swap1\n      tag_56\n      jump\t// in\n    tag_118:\n      dup1\n      0x1f\n      add\n      0x20\n      dup1\n      swap2\n      div\n      mul\n      0x20\n      add\n      mload(0x40)\n      swap1\n      dup2\n      add\n      0x40\n      mstore\n      dup1\n      swap3\n      swap2\n      swap1\n      dup2\n      dup2\n      mstore\n      0x20\n      add\n      dup3\n      dup1\n      sload\n      tag_119\n      swap1\n      tag_56\n      jump\t// in\n    tag_119:\n      dup1\n      iszero\n      tag_120\n      jumpi\n      dup1\n      0x1f\n      lt\n      tag_121\n      jumpi\n      0x0100\n      dup1\n      dup4\n      sload\n      div\n      mul\n      dup4\n      mstore\n      swap2\n      0x20\n      add\n      swap2\n      jump(tag_120)\n    tag_121:\n      dup3\n      add\n      swap2\n      swap1\n      0x00\n      mstore\n      keccak256(0x00, 0x20)\n      swap1\n    tag_122:\n      dup2\n      sload\n      dup2\n      mstore\n      swap1\n      0x01\n      add\n      swap1\n      0x20\n      add\n      dup1\n      dup4\n      gt\n      tag_122\n      jumpi\n      dup3\n      swap1\n      sub\n      0x1f\n      and\n      dup3\n      add\n      swap2\n    tag_120:\n      pop\n      pop\n      pop\n      pop\n      pop\n      dup2\n      mstore\n      0x20\n      add\n      0x03\n      dup3\n      add\n      sload\n      dup2\n      mstore\n      0x20\n      add\n      0x04\n      dup3\n      add\n      sload\n      dup2\n      mstore\n      pop\n      pop\n      swap1\n      pop\n        /* \"contracts/Twitter.sol\":1506:1614  function getTweet(uint i) public view returns (Tweet memory) {... */\n      swap2\n      swap1\n      pop\n      jump\t// out\n        /* \"contracts/Twitter.sol\":89:124  uint16 public MaxTweetAllowed = 280 */\n    tag_50:\n      0x00\n      0x00\n      swap1\n      sload\n      swap1\n      0x0100\n      exp\n      swap1\n      div\n      0xffff\n      and\n      dup2\n      jump\t// out\n    tag_113:\n      mload(0x40)\n      dup1\n      0xa0\n      add\n      0x40\n      mstore\n      dup1\n      0x00\n      dup2\n      mstore\n      0x20\n      add\n      and(0xffffffffffffffffffffffffffffffffffffffff, 0x00)\n      dup2\n      mstore\n      0x20\n      add\n      0x60\n      dup2\n      mstore\n      0x20\n      add\n      0x00\n      dup2\n      mstore\n      0x20\n      add\n      0x00\n      dup2\n      mstore\n      pop\n      swap1\n      jump\t// out\n        /* \"#utility.yul\":7:82   */\n    tag_123:\n        /* \"#utility.yul\":40:46   */\n      0x00\n        /* \"#utility.yul\":73:75   */\n      0x40\n        /* \"#utility.yul\":67:76   */\n      mload\n        /* \"#utility.yul\":57:76   */\n      swap1\n      pop\n        /* \"#utility.yul\":7:82   */\n      swap1\n      jump\t// out\n        /* \"#utility.yul\":88:205   */\n    tag_124:\n        /* \"#utility.yul\":197:198   */\n      0x00\n        /* \"#utility.yul\":194:195   */\n      0x00\n        /* \"#utility.yul\":187:199   */\n      revert\n        /* \"#utility.yul\":211:328   */\n    tag_125:\n        /* \"#utility.yul\":320:321   */\n      0x00\n        /* \"#utility.yul\":317:318   */\n      0x00\n        /* \"#utility.yul\":310:322   */\n      revert\n        /* \"#utility.yul\":334:460   */\n    tag_126:\n        /* \"#utility.yul\":371:378   */\n      0x00\n        /* \"#utility.yul\":411:453   */\n      0xffffffffffffffffffffffffffffffffffffffff\n        /* \"#utility.yul\":404:409   */\n      dup3\n        /* \"#utility.yul\":400:454   */\n      and\n        /* \"#utility.yul\":389:454   */\n      swap1\n      pop\n        /* \"#utility.yul\":334:460   */\n      swap2\n      swap1\n      pop\n      jump\t// out\n        /* \"#utility.yul\":466:562   */\n    tag_127:\n        /* \"#utility.yul\":503:510   */\n      0x00\n        /* \"#utility.yul\":532:556   */\n      tag_196\n        /* \"#utility.yul\":550:555   */\n      dup3\n        /* \"#utility.yul\":532:556   */\n      tag_126\n      jump\t// in\n    tag_196:\n        /* \"#utility.yul\":521:556   */\n      swap1\n      pop\n        /* \"#utility.yul\":466:562   */\n      swap2\n      swap1\n      pop\n      jump\t// out\n        /* \"#utility.yul\":568:690   */\n    tag_128:\n        /* \"#utility.yul\":641:665   */\n      tag_198\n        /* \"#utility.yul\":659:664   */\n      dup2\n        /* \"#utility.yul\":641:665   */\n      tag_127\n      jump\t// in\n    tag_198:\n        /* \"#utility.yul\":634:639   */\n      dup2\n        /* \"#utility.yul\":631:666   */\n      eq\n        /* \"#utility.yul\":621:684   */\n      tag_199\n      jumpi\n        /* \"#utility.yul\":680:681   */\n      0x00\n        /* \"#utility.yul\":677:678   */\n      0x00\n        /* \"#utility.yul\":670:682   */\n      revert\n        /* \"#utility.yul\":621:684   */\n    tag_199:\n        /* \"#utility.yul\":568:690   */\n      pop\n      jump\t// out\n        /* \"#utility.yul\":696:835   */\n    tag_129:\n        /* \"#utility.yul\":742:747   */\n      0x00\n        /* \"#utility.yul\":780:786   */\n      dup2\n        /* \"#utility.yul\":767:787   */\n      calldataload\n        /* \"#utility.yul\":758:787   */\n      swap1\n      pop\n        /* \"#utility.yul\":796:829   */\n      tag_201\n        /* \"#utility.yul\":823:828   */\n      dup2\n        /* \"#utility.yul\":796:829   */\n      tag_128\n      jump\t// in\n    tag_201:\n        /* \"#utility.yul\":696:835   */\n      swap3\n      swap2\n      pop\n      pop\n      jump\t// out\n        /* \"#utility.yul\":841:918   */\n    tag_130:\n        /* \"#utility.yul\":878:885   */\n      0x00\n        /* \"#utility.yul\":907:912   */\n      dup2\n        /* \"#utility.yul\":896:912   */\n      swap1\n      pop\n        /* \"#utility.yul\":841:918   */\n      swap2\n      swap1\n      pop\n      jump\t// out\n        /* \"#utility.yul\":924:1046   */\n    tag_131:\n        /* \"#utility.yul\":997:1021   */\n      tag_204\n        /* \"#utility.yul\":1015:1020   */\n      dup2\n        /* \"#utility.yul\":997:1021   */\n      tag_130\n      jump\t// in\n    tag_204:\n        /* \"#utility.yul\":990:995   */\n      dup2\n        /* \"#utility.yul\":987:1022   */\n      eq\n        /* \"#utility.yul\":977:1040   */\n      tag_205\n      jumpi\n        /* \"#utility.yul\":1036:1037   */\n      0x00\n        /* \"#utility.yul\":1033:1034   */\n      0x00\n        /* \"#utility.yul\":1026:1038   */\n      revert\n        /* \"#utility.yul\":977:1040   */\n    tag_205:\n        /* \"#utility.yul\":924:1046   */\n      pop\n      jump\t// out\n        /* \"#utility.yul\":1052:1191   */\n    tag_132:\n        /* \"#utility.yul\":1098:1103   */\n      0x00\n        /* \"#utility.yul\":1136:1142   */\n      dup2\n        /* \"#utility.yul\":1123:1143   */\n      calldataload\n        /* \"#utility.yul\":1114:1143   */\n      swap1\n      pop\n        /* \"#utility.yul\":1152:1185   */\n      tag_207\n        /* \"#utility.yul\":1179:1184   */\n      dup2\n        /* \"#utility.yul\":1152:1185   */\n      tag_131\n      jump\t// in\n    tag_207:\n        /* \"#utility.yul\":1052:1191   */\n      swap3\n      swap2\n      pop\n      pop\n      jump\t// out\n        /* \"#utility.yul\":1197:1671   */\n    tag_15:\n        /* \"#utility.yul\":1265:1271   */\n      0x00\n        /* \"#utility.yul\":1273:1279   */\n      0x00\n        /* \"#utility.yul\":1322:1324   */\n      0x40\n        /* \"#utility.yul\":1310:1319   */\n      dup4\n        /* \"#utility.yul\":1301:1308   */\n      dup6\n        /* \"#utility.yul\":1297:1320   */\n      sub\n        /* \"#utility.yul\":1293:1325   */\n      slt\n        /* \"#utility.yul\":1290:1409   */\n      iszero\n      tag_209\n      jumpi\n        /* \"#utility.yul\":1328:1407   */\n      tag_210\n      tag_124\n      jump\t// in\n    tag_210:\n        /* \"#utility.yul\":1290:1409   */\n    tag_209:\n        /* \"#utility.yul\":1448:1449   */\n      0x00\n        /* \"#utility.yul\":1473:1526   */\n      tag_211\n        /* \"#utility.yul\":1518:1525   */\n      dup6\n        /* \"#utility.yul\":1509:1515   */\n      dup3\n        /* \"#utility.yul\":1498:1507   */\n      dup7\n        /* \"#utility.yul\":1494:1516   */\n      add\n        /* \"#utility.yul\":1473:1526   */\n      tag_129\n      jump\t// in\n    tag_211:\n        /* \"#utility.yul\":1463:1526   */\n      swap3\n      pop\n        /* \"#utility.yul\":1419:1536   */\n      pop\n        /* \"#utility.yul\":1575:1577   */\n      0x20\n        /* \"#utility.yul\":1601:1654   */\n      tag_212\n        /* \"#utility.yul\":1646:1653   */\n      dup6\n        /* \"#utility.yul\":1637:1643   */\n      dup3\n        /* \"#utility.yul\":1626:1635   */\n      dup7\n        /* \"#utility.yul\":1622:1644   */\n      add\n        /* \"#utility.yul\":1601:1654   */\n      tag_132\n      jump\t// in\n    tag_212:\n        /* \"#utility.yul\":1591:1654   */\n      swap2\n      pop\n        /* \"#utility.yul\":1546:1664   */\n      pop\n        /* \"#utility.yul\":1197:1671   */\n      swap3\n      pop\n      swap3\n      swap1\n      pop\n      jump\t// out\n        /* \"#utility.yul\":1677:1795   */\n    tag_133:\n        /* \"#utility.yul\":1764:1788   */\n      tag_214\n        /* \"#utility.yul\":1782:1787   */\n      dup2\n        /* \"#utility.yul\":1764:1788   */\n      tag_130\n      jump\t// in\n    tag_214:\n        /* \"#utility.yul\":1759:1762   */\n      dup3\n        /* \"#utility.yul\":1752:1789   */\n      mstore\n        /* \"#utility.yul\":1677:1795   */\n      pop\n      pop\n      jump\t// out\n        /* \"#utility.yul\":1801:1919   */\n    tag_134:\n        /* \"#utility.yul\":1888:1912   */\n      tag_216\n        /* \"#utility.yul\":1906:1911   */\n      dup2\n        /* \"#utility.yul\":1888:1912   */\n      tag_127\n      jump\t// in\n    tag_216:\n        /* \"#utility.yul\":1883:1886   */\n      dup3\n        /* \"#utility.yul\":1876:1913   */\n      mstore\n        /* \"#utility.yul\":1801:1919   */\n      pop\n      pop\n      jump\t// out\n        /* \"#utility.yul\":1925:2024   */\n    tag_135:\n        /* \"#utility.yul\":1977:1983   */\n      0x00\n        /* \"#utility.yul\":2011:2016   */\n      dup2\n        /* \"#utility.yul\":2005:2017   */\n      mload\n        /* \"#utility.yul\":1995:2017   */\n      swap1\n      pop\n        /* \"#utility.yul\":1925:2024   */\n      swap2\n      swap1\n      pop\n      jump\t// out\n        /* \"#utility.yul\":2030:2199   */\n    tag_136:\n        /* \"#utility.yul\":2114:2125   */\n      0x00\n        /* \"#utility.yul\":2148:2154   */\n      dup3\n        /* \"#utility.yul\":2143:2146   */\n      dup3\n        /* \"#utility.yul\":2136:2155   */\n      mstore\n        /* \"#utility.yul\":2188:2192   */\n      0x20\n        /* \"#utility.yul\":2183:2186   */\n      dup3\n        /* \"#utility.yul\":2179:2193   */\n      add\n        /* \"#utility.yul\":2164:2193   */\n      swap1\n      pop\n        /* \"#utility.yul\":2030:2199   */\n      swap3\n      swap2\n      pop\n      pop\n      jump\t// out\n        /* \"#utility.yul\":2205:2344   */\n    tag_137:\n        /* \"#utility.yul\":2294:2300   */\n      dup3\n        /* \"#utility.yul\":2289:2292   */\n      dup2\n        /* \"#utility.yul\":2284:2287   */\n      dup4\n        /* \"#utility.yul\":2278:2301   */\n      mcopy\n        /* \"#utility.yul\":2335:2336   */\n      0x00\n        /* \"#utility.yul\":2326:2332   */\n      dup4\n        /* \"#utility.yul\":2321:2324   */\n      dup4\n        /* \"#utility.yul\":2317:2333   */\n      add\n        /* \"#utility.yul\":2310:2337   */\n      mstore\n        /* \"#utility.yul\":2205:2344   */\n      pop\n      pop\n      pop\n      jump\t// out\n        /* \"#utility.yul\":2350:2452   */\n    tag_138:\n        /* \"#utility.yul\":2391:2397   */\n      0x00\n        /* \"#utility.yul\":2442:2444   */\n      0x1f\n        /* \"#utility.yul\":2438:2445   */\n      not\n        /* \"#utility.yul\":2433:2435   */\n      0x1f\n        /* \"#utility.yul\":2426:2431   */\n      dup4\n        /* \"#utility.yul\":2422:2436   */\n      add\n        /* \"#utility.yul\":2418:2446   */\n      and\n        /* \"#utility.yul\":2408:2446   */\n      swap1\n      pop\n        /* \"#utility.yul\":2350:2452   */\n      swap2\n      swap1\n      pop\n      jump\t// out\n        /* \"#utility.yul\":2458:2835   */\n    tag_139:\n        /* \"#utility.yul\":2546:2549   */\n      0x00\n        /* \"#utility.yul\":2574:2613   */\n      tag_222\n        /* \"#utility.yul\":2607:2612   */\n      dup3\n        /* \"#utility.yul\":2574:2613   */\n      tag_135\n      jump\t// in\n    tag_222:\n        /* \"#utility.yul\":2629:2700   */\n      tag_223\n        /* \"#utility.yul\":2693:2699   */\n      dup2\n        /* \"#utility.yul\":2688:2691   */\n      dup6\n        /* \"#utility.yul\":2629:2700   */\n      tag_136\n      jump\t// in\n    tag_223:\n        /* \"#utility.yul\":2622:2700   */\n      swap4\n      pop\n        /* \"#utility.yul\":2709:2774   */\n      tag_224\n        /* \"#utility.yul\":2767:2773   */\n      dup2\n        /* \"#utility.yul\":2762:2765   */\n      dup6\n        /* \"#utility.yul\":2755:2759   */\n      0x20\n        /* \"#utility.yul\":2748:2753   */\n      dup7\n        /* \"#utility.yul\":2744:2760   */\n      add\n        /* \"#utility.yul\":2709:2774   */\n      tag_137\n      jump\t// in\n    tag_224:\n        /* \"#utility.yul\":2799:2828   */\n      tag_225\n        /* \"#utility.yul\":2821:2827   */\n      dup2\n        /* \"#utility.yul\":2799:2828   */\n      tag_138\n      jump\t// in\n    tag_225:\n        /* \"#utility.yul\":2794:2797   */\n      dup5\n        /* \"#utility.yul\":2790:2829   */\n      add\n        /* \"#utility.yul\":2783:2829   */\n      swap2\n      pop\n        /* \"#utility.yul\":2550:2835   */\n      pop\n        /* \"#utility.yul\":2458:2835   */\n      swap3\n      swap2\n      pop\n      pop\n      jump\t// out\n        /* \"#utility.yul\":2841:3596   */\n    tag_18:\n        /* \"#utility.yul\":3066:3070   */\n      0x00\n        /* \"#utility.yul\":3104:3107   */\n      0xa0\n        /* \"#utility.yul\":3093:3102   */\n      dup3\n        /* \"#utility.yul\":3089:3108   */\n      add\n        /* \"#utility.yul\":3081:3108   */\n      swap1\n      pop\n        /* \"#utility.yul\":3118:3189   */\n      tag_227\n        /* \"#utility.yul\":3186:3187   */\n      0x00\n        /* \"#utility.yul\":3175:3184   */\n      dup4\n        /* \"#utility.yul\":3171:3188   */\n      add\n        /* \"#utility.yul\":3162:3168   */\n      dup9\n        /* \"#utility.yul\":3118:3189   */\n      tag_133\n      jump\t// in\n    tag_227:\n        /* \"#utility.yul\":3199:3271   */\n      tag_228\n        /* \"#utility.yul\":3267:3269   */\n      0x20\n        /* \"#utility.yul\":3256:3265   */\n      dup4\n        /* \"#utility.yul\":3252:3270   */\n      add\n        /* \"#utility.yul\":3243:3249   */\n      dup8\n        /* \"#utility.yul\":3199:3271   */\n      tag_134\n      jump\t// in\n    tag_228:\n        /* \"#utility.yul\":3318:3327   */\n      dup2\n        /* \"#utility.yul\":3312:3316   */\n      dup2\n        /* \"#utility.yul\":3308:3328   */\n      sub\n        /* \"#utility.yul\":3303:3305   */\n      0x40\n        /* \"#utility.yul\":3292:3301   */\n      dup4\n        /* \"#utility.yul\":3288:3306   */\n      add\n        /* \"#utility.yul\":3281:3329   */\n      mstore\n        /* \"#utility.yul\":3346:3424   */\n      tag_229\n        /* \"#utility.yul\":3419:3423   */\n      dup2\n        /* \"#utility.yul\":3410:3416   */\n      dup7\n        /* \"#utility.yul\":3346:3424   */\n      tag_139\n      jump\t// in\n    tag_229:\n        /* \"#utility.yul\":3338:3424   */\n      swap1\n      pop\n        /* \"#utility.yul\":3434:3506   */\n      tag_230\n        /* \"#utility.yul\":3502:3504   */\n      0x60\n        /* \"#utility.yul\":3491:3500   */\n      dup4\n        /* \"#utility.yul\":3487:3505   */\n      add\n        /* \"#utility.yul\":3478:3484   */\n      dup6\n        /* \"#utility.yul\":3434:3506   */\n      tag_133\n      jump\t// in\n    tag_230:\n        /* \"#utility.yul\":3516:3589   */\n      tag_231\n        /* \"#utility.yul\":3584:3587   */\n      0x80\n        /* \"#utility.yul\":3573:3582   */\n      dup4\n        /* \"#utility.yul\":3569:3588   */\n      add\n        /* \"#utility.yul\":3560:3566   */\n      dup5\n        /* \"#utility.yul\":3516:3589   */\n      tag_133\n      jump\t// in\n    tag_231:\n        /* \"#utility.yul\":2841:3596   */\n      swap7\n      swap6\n      pop\n      pop\n      pop\n      pop\n      pop\n      pop\n      jump\t// out\n        /* \"#utility.yul\":3602:3691   */\n    tag_140:\n        /* \"#utility.yul\":3638:3645   */\n      0x00\n        /* \"#utility.yul\":3678:3684   */\n      0xffff\n        /* \"#utility.yul\":3671:3676   */\n      dup3\n        /* \"#utility.yul\":3667:3685   */\n      and\n        /* \"#utility.yul\":3656:3685   */\n      swap1\n      pop\n        /* \"#utility.yul\":3602:3691   */\n      swap2\n      swap1\n      pop\n      jump\t// out\n        /* \"#utility.yul\":3697:3817   */\n    tag_141:\n        /* \"#utility.yul\":3769:3792   */\n      tag_234\n        /* \"#utility.yul\":3786:3791   */\n      dup2\n        /* \"#utility.yul\":3769:3792   */\n      tag_140\n      jump\t// in\n    tag_234:\n        /* \"#utility.yul\":3762:3767   */\n      dup2\n        /* \"#utility.yul\":3759:3793   */\n      eq\n        /* \"#utility.yul\":3749:3811   */\n      tag_235\n      jumpi\n        /* \"#utility.yul\":3807:3808   */\n      0x00\n        /* \"#utility.yul\":3804:3805   */\n      0x00\n        /* \"#utility.yul\":3797:3809   */\n      revert\n        /* \"#utility.yul\":3749:3811   */\n    tag_235:\n        /* \"#utility.yul\":3697:3817   */\n      pop\n      jump\t// out\n        /* \"#utility.yul\":3823:3960   */\n    tag_142:\n        /* \"#utility.yul\":3868:3873   */\n      0x00\n        /* \"#utility.yul\":3906:3912   */\n      dup2\n        /* \"#utility.yul\":3893:3913   */\n      calldataload\n        /* \"#utility.yul\":3884:3913   */\n      swap1\n      pop\n        /* \"#utility.yul\":3922:3954   */\n      tag_237\n        /* \"#utility.yul\":3948:3953   */\n      dup2\n        /* \"#utility.yul\":3922:3954   */\n      tag_141\n      jump\t// in\n    tag_237:\n        /* \"#utility.yul\":3823:3960   */\n      swap3\n      swap2\n      pop\n      pop\n      jump\t// out\n        /* \"#utility.yul\":3966:4293   */\n    tag_24:\n        /* \"#utility.yul\":4024:4030   */\n      0x00\n        /* \"#utility.yul\":4073:4075   */\n      0x20\n        /* \"#utility.yul\":4061:4070   */\n      dup3\n        /* \"#utility.yul\":4052:4059   */\n      dup5\n        /* \"#utility.yul\":4048:4071   */\n      sub\n        /* \"#utility.yul\":4044:4076   */\n      slt\n        /* \"#utility.yul\":4041:4160   */\n      iszero\n      tag_239\n      jumpi\n        /* \"#utility.yul\":4079:4158   */\n      tag_240\n      tag_124\n      jump\t// in\n    tag_240:\n        /* \"#utility.yul\":4041:4160   */\n    tag_239:\n        /* \"#utility.yul\":4199:4200   */\n      0x00\n        /* \"#utility.yul\":4224:4276   */\n      tag_241\n        /* \"#utility.yul\":4268:4275   */\n      dup5\n        /* \"#utility.yul\":4259:4265   */\n      dup3\n        /* \"#utility.yul\":4248:4257   */\n      dup6\n        /* \"#utility.yul\":4244:4266   */\n      add\n        /* \"#utility.yul\":4224:4276   */\n      tag_142\n      jump\t// in\n    tag_241:\n        /* \"#utility.yul\":4214:4276   */\n      swap2\n      pop\n        /* \"#utility.yul\":4170:4286   */\n      pop\n        /* \"#utility.yul\":3966:4293   */\n      swap3\n      swap2\n      pop\n      pop\n      jump\t// out\n        /* \"#utility.yul\":4299:4416   */\n    tag_143:\n        /* \"#utility.yul\":4408:4409   */\n      0x00\n        /* \"#utility.yul\":4405:4406   */\n      0x00\n        /* \"#utility.yul\":4398:4410   */\n      revert\n        /* \"#utility.yul\":4422:4539   */\n    tag_144:\n        /* \"#utility.yul\":4531:4532   */\n      0x00\n        /* \"#utility.yul\":4528:4529   */\n      0x00\n        /* \"#utility.yul\":4521:4533   */\n      revert\n        /* \"#utility.yul\":4545:4725   */\n    tag_145:\n        /* \"#utility.yul\":4593:4670   */\n      0x4e487b7100000000000000000000000000000000000000000000000000000000\n        /* \"#utility.yul\":4590:4591   */\n      0x00\n        /* \"#utility.yul\":4583:4671   */\n      mstore\n        /* \"#utility.yul\":4690:4694   */\n      0x41\n        /* \"#utility.yul\":4687:4688   */\n      0x04\n        /* \"#utility.yul\":4680:4695   */\n      mstore\n        /* \"#utility.yul\":4714:4718   */\n      0x24\n        /* \"#utility.yul\":4711:4712   */\n      0x00\n        /* \"#utility.yul\":4704:4719   */\n      revert\n        /* \"#utility.yul\":4731:5012   */\n    tag_146:\n        /* \"#utility.yul\":4814:4841   */\n      tag_246\n        /* \"#utility.yul\":4836:4840   */\n      dup3\n        /* \"#utility.yul\":4814:4841   */\n      tag_138\n      jump\t// in\n    tag_246:\n        /* \"#utility.yul\":4806:4812   */\n      dup2\n        /* \"#utility.yul\":4802:4842   */\n      add\n        /* \"#utility.yul\":4944:4950   */\n      dup2\n        /* \"#utility.yul\":4932:4942   */\n      dup2\n        /* \"#utility.yul\":4929:4951   */\n      lt\n        /* \"#utility.yul\":4908:4926   */\n      0xffffffffffffffff\n        /* \"#utility.yul\":4896:4906   */\n      dup3\n        /* \"#utility.yul\":4893:4927   */\n      gt\n        /* \"#utility.yul\":4890:4952   */\n      or\n        /* \"#utility.yul\":4887:4975   */\n      iszero\n      tag_247\n      jumpi\n        /* \"#utility.yul\":4955:4973   */\n      tag_248\n      tag_145\n      jump\t// in\n    tag_248:\n        /* \"#utility.yul\":4887:4975   */\n    tag_247:\n        /* \"#utility.yul\":4995:5005   */\n      dup1\n        /* \"#utility.yul\":4991:4993   */\n      0x40\n        /* \"#utility.yul\":4984:5006   */\n      mstore\n        /* \"#utility.yul\":4774:5012   */\n      pop\n        /* \"#utility.yul\":4731:5012   */\n      pop\n      pop\n      jump\t// out\n        /* \"#utility.yul\":5018:5147   */\n    tag_147:\n        /* \"#utility.yul\":5052:5058   */\n      0x00\n        /* \"#utility.yul\":5079:5099   */\n      tag_250\n      tag_123\n      jump\t// in\n    tag_250:\n        /* \"#utility.yul\":5069:5099   */\n      swap1\n      pop\n        /* \"#utility.yul\":5108:5141   */\n      tag_251\n        /* \"#utility.yul\":5136:5140   */\n      dup3\n        /* \"#utility.yul\":5128:5134   */\n      dup3\n        /* \"#utility.yul\":5108:5141   */\n      tag_146\n      jump\t// in\n    tag_251:\n        /* \"#utility.yul\":5018:5147   */\n      swap2\n      swap1\n      pop\n      jump\t// out\n        /* \"#utility.yul\":5153:5461   */\n    tag_148:\n        /* \"#utility.yul\":5215:5219   */\n      0x00\n        /* \"#utility.yul\":5305:5323   */\n      0xffffffffffffffff\n        /* \"#utility.yul\":5297:5303   */\n      dup3\n        /* \"#utility.yul\":5294:5324   */\n      gt\n        /* \"#utility.yul\":5291:5347   */\n      iszero\n      tag_253\n      jumpi\n        /* \"#utility.yul\":5327:5345   */\n      tag_254\n      tag_145\n      jump\t// in\n    tag_254:\n        /* \"#utility.yul\":5291:5347   */\n    tag_253:\n        /* \"#utility.yul\":5365:5394   */\n      tag_255\n        /* \"#utility.yul\":5387:5393   */\n      dup3\n        /* \"#utility.yul\":5365:5394   */\n      tag_138\n      jump\t// in\n    tag_255:\n        /* \"#utility.yul\":5357:5394   */\n      swap1\n      pop\n        /* \"#utility.yul\":5449:5453   */\n      0x20\n        /* \"#utility.yul\":5443:5447   */\n      dup2\n        /* \"#utility.yul\":5439:5454   */\n      add\n        /* \"#utility.yul\":5431:5454   */\n      swap1\n      pop\n        /* \"#utility.yul\":5153:5461   */\n      swap2\n      swap1\n      pop\n      jump\t// out\n        /* \"#utility.yul\":5467:5615   */\n    tag_149:\n        /* \"#utility.yul\":5565:5571   */\n      dup3\n        /* \"#utility.yul\":5560:5563   */\n      dup2\n        /* \"#utility.yul\":5555:5558   */\n      dup4\n        /* \"#utility.yul\":5542:5572   */\n      calldatacopy\n        /* \"#utility.yul\":5606:5607   */\n      0x00\n        /* \"#utility.yul\":5597:5603   */\n      dup4\n        /* \"#utility.yul\":5592:5595   */\n      dup4\n        /* \"#utility.yul\":5588:5604   */\n      add\n        /* \"#utility.yul\":5581:5608   */\n      mstore\n        /* \"#utility.yul\":5467:5615   */\n      pop\n      pop\n      pop\n      jump\t// out\n        /* \"#utility.yul\":5621:6046   */\n    tag_150:\n        /* \"#utility.yul\":5699:5704   */\n      0x00\n        /* \"#utility.yul\":5724:5790   */\n      tag_258\n        /* \"#utility.yul\":5740:5789   */\n      tag_259\n        /* \"#utility.yul\":5782:5788   */\n      dup5\n        /* \"#utility.yul\":5740:5789   */\n      tag_148\n      jump\t// in\n    tag_259:\n        /* \"#utility.yul\":5724:5790   */\n      tag_147\n      jump\t// in\n    tag_258:\n        /* \"#utility.yul\":5715:5790   */\n      swap1\n      pop\n        /* \"#utility.yul\":5813:5819   */\n      dup3\n        /* \"#utility.yul\":5806:5811   */\n      dup2\n        /* \"#utility.yul\":5799:5820   */\n      mstore\n        /* \"#utility.yul\":5851:5855   */\n      0x20\n        /* \"#utility.yul\":5844:5849   */\n      dup2\n        /* \"#utility.yul\":5840:5856   */\n      add\n        /* \"#utility.yul\":5889:5892   */\n      dup5\n        /* \"#utility.yul\":5880:5886   */\n      dup5\n        /* \"#utility.yul\":5875:5878   */\n      dup5\n        /* \"#utility.yul\":5871:5887   */\n      add\n        /* \"#utility.yul\":5868:5893   */\n      gt\n        /* \"#utility.yul\":5865:5977   */\n      iszero\n      tag_260\n      jumpi\n        /* \"#utility.yul\":5896:5975   */\n      tag_261\n      tag_144\n      jump\t// in\n    tag_261:\n        /* \"#utility.yul\":5865:5977   */\n    tag_260:\n        /* \"#utility.yul\":5986:6040   */\n      tag_262\n        /* \"#utility.yul\":6033:6039   */\n      dup5\n        /* \"#utility.yul\":6028:6031   */\n      dup3\n        /* \"#utility.yul\":6023:6026   */\n      dup6\n        /* \"#utility.yul\":5986:6040   */\n      tag_149\n      jump\t// in\n    tag_262:\n        /* \"#utility.yul\":5705:6046   */\n      pop\n        /* \"#utility.yul\":5621:6046   */\n      swap4\n      swap3\n      pop\n      pop\n      pop\n      jump\t// out\n        /* \"#utility.yul\":6066:6406   */\n    tag_151:\n        /* \"#utility.yul\":6122:6127   */\n      0x00\n        /* \"#utility.yul\":6171:6174   */\n      dup3\n        /* \"#utility.yul\":6164:6168   */\n      0x1f\n        /* \"#utility.yul\":6156:6162   */\n      dup4\n        /* \"#utility.yul\":6152:6169   */\n      add\n        /* \"#utility.yul\":6148:6175   */\n      slt\n        /* \"#utility.yul\":6138:6260   */\n      tag_264\n      jumpi\n        /* \"#utility.yul\":6179:6258   */\n      tag_265\n      tag_143\n      jump\t// in\n    tag_265:\n        /* \"#utility.yul\":6138:6260   */\n    tag_264:\n        /* \"#utility.yul\":6296:6302   */\n      dup2\n        /* \"#utility.yul\":6283:6303   */\n      calldataload\n        /* \"#utility.yul\":6321:6400   */\n      tag_266\n        /* \"#utility.yul\":6396:6399   */\n      dup5\n        /* \"#utility.yul\":6388:6394   */\n      dup3\n        /* \"#utility.yul\":6381:6385   */\n      0x20\n        /* \"#utility.yul\":6373:6379   */\n      dup7\n        /* \"#utility.yul\":6369:6386   */\n      add\n        /* \"#utility.yul\":6321:6400   */\n      tag_150\n      jump\t// in\n    tag_266:\n        /* \"#utility.yul\":6312:6400   */\n      swap2\n      pop\n        /* \"#utility.yul\":6128:6406   */\n      pop\n        /* \"#utility.yul\":6066:6406   */\n      swap3\n      swap2\n      pop\n      pop\n      jump\t// out\n        /* \"#utility.yul\":6412:6921   */\n    tag_31:\n        /* \"#utility.yul\":6481:6487   */\n      0x00\n        /* \"#utility.yul\":6530:6532   */\n      0x20\n        /* \"#utility.yul\":6518:6527   */\n      dup3\n        /* \"#utility.yul\":6509:6516   */\n      dup5\n        /* \"#utility.yul\":6505:6528   */\n      sub\n        /* \"#utility.yul\":6501:6533   */\n      slt\n        /* \"#utility.yul\":6498:6617   */\n      iszero\n      tag_268\n      jumpi\n        /* \"#utility.yul\":6536:6615   */\n      tag_269\n      tag_124\n      jump\t// in\n    tag_269:\n        /* \"#utility.yul\":6498:6617   */\n    tag_268:\n        /* \"#utility.yul\":6684:6685   */\n      0x00\n        /* \"#utility.yul\":6673:6682   */\n      dup3\n        /* \"#utility.yul\":6669:6686   */\n      add\n        /* \"#utility.yul\":6656:6687   */\n      calldataload\n        /* \"#utility.yul\":6714:6732   */\n      0xffffffffffffffff\n        /* \"#utility.yul\":6706:6712   */\n      dup2\n        /* \"#utility.yul\":6703:6733   */\n      gt\n        /* \"#utility.yul\":6700:6817   */\n      iszero\n      tag_270\n      jumpi\n        /* \"#utility.yul\":6736:6815   */\n      tag_271\n      tag_125\n      jump\t// in\n    tag_271:\n        /* \"#utility.yul\":6700:6817   */\n    tag_270:\n        /* \"#utility.yul\":6841:6904   */\n      tag_272\n        /* \"#utility.yul\":6896:6903   */\n      dup5\n        /* \"#utility.yul\":6887:6893   */\n      dup3\n        /* \"#utility.yul\":6876:6885   */\n      dup6\n        /* \"#utility.yul\":6872:6894   */\n      add\n        /* \"#utility.yul\":6841:6904   */\n      tag_151\n      jump\t// in\n    tag_272:\n        /* \"#utility.yul\":6831:6904   */\n      swap2\n      pop\n        /* \"#utility.yul\":6627:6914   */\n      pop\n        /* \"#utility.yul\":6412:6921   */\n      swap3\n      swap2\n      pop\n      pop\n      jump\t// out\n        /* \"#utility.yul\":6927:7149   */\n    tag_36:\n        /* \"#utility.yul\":7020:7024   */\n      0x00\n        /* \"#utility.yul\":7058:7060   */\n      0x20\n        /* \"#utility.yul\":7047:7056   */\n      dup3\n        /* \"#utility.yul\":7043:7061   */\n      add\n        /* \"#utility.yul\":7035:7061   */\n      swap1\n      pop\n        /* \"#utility.yul\":7071:7142   */\n      tag_274\n        /* \"#utility.yul\":7139:7140   */\n      0x00\n        /* \"#utility.yul\":7128:7137   */\n      dup4\n        /* \"#utility.yul\":7124:7141   */\n      add\n        /* \"#utility.yul\":7115:7121   */\n      dup5\n        /* \"#utility.yul\":7071:7142   */\n      tag_134\n      jump\t// in\n    tag_274:\n        /* \"#utility.yul\":6927:7149   */\n      swap3\n      swap2\n      pop\n      pop\n      jump\t// out\n        /* \"#utility.yul\":7155:7484   */\n    tag_39:\n        /* \"#utility.yul\":7214:7220   */\n      0x00\n        /* \"#utility.yul\":7263:7265   */\n      0x20\n        /* \"#utility.yul\":7251:7260   */\n      dup3\n        /* \"#utility.yul\":7242:7249   */\n      dup5\n        /* \"#utility.yul\":7238:7261   */\n      sub\n        /* \"#utility.yul\":7234:7266   */\n      slt\n        /* \"#utility.yul\":7231:7350   */\n      iszero\n      tag_276\n      jumpi\n        /* \"#utility.yul\":7269:7348   */\n      tag_277\n      tag_124\n      jump\t// in\n    tag_277:\n        /* \"#utility.yul\":7231:7350   */\n    tag_276:\n        /* \"#utility.yul\":7389:7390   */\n      0x00\n        /* \"#utility.yul\":7414:7467   */\n      tag_278\n        /* \"#utility.yul\":7459:7466   */\n      dup5\n        /* \"#utility.yul\":7450:7456   */\n      dup3\n        /* \"#utility.yul\":7439:7448   */\n      dup6\n        /* \"#utility.yul\":7435:7457   */\n      add\n        /* \"#utility.yul\":7414:7467   */\n      tag_129\n      jump\t// in\n    tag_278:\n        /* \"#utility.yul\":7404:7467   */\n      swap2\n      pop\n        /* \"#utility.yul\":7360:7477   */\n      pop\n        /* \"#utility.yul\":7155:7484   */\n      swap3\n      swap2\n      pop\n      pop\n      jump\t// out\n        /* \"#utility.yul\":7490:7625   */\n    tag_152:\n        /* \"#utility.yul\":7578:7584   */\n      0x00\n        /* \"#utility.yul\":7612:7617   */\n      dup2\n        /* \"#utility.yul\":7606:7618   */\n      mload\n        /* \"#utility.yul\":7596:7618   */\n      swap1\n      pop\n        /* \"#utility.yul\":7490:7625   */\n      swap2\n      swap1\n      pop\n      jump\t// out\n        /* \"#utility.yul\":7631:7836   */\n    tag_153:\n        /* \"#utility.yul\":7751:7762   */\n      0x00\n        /* \"#utility.yul\":7785:7791   */\n      dup3\n        /* \"#utility.yul\":7780:7783   */\n      dup3\n        /* \"#utility.yul\":7773:7792   */\n      mstore\n        /* \"#utility.yul\":7825:7829   */\n      0x20\n        /* \"#utility.yul\":7820:7823   */\n      dup3\n        /* \"#utility.yul\":7816:7830   */\n      add\n        /* \"#utility.yul\":7801:7830   */\n      swap1\n      pop\n        /* \"#utility.yul\":7631:7836   */\n      swap3\n      swap2\n      pop\n      pop\n      jump\t// out\n        /* \"#utility.yul\":7842:7995   */\n    tag_154:\n        /* \"#utility.yul\":7930:7934   */\n      0x00\n        /* \"#utility.yul\":7953:7956   */\n      dup2\n        /* \"#utility.yul\":7945:7956   */\n      swap1\n      pop\n        /* \"#utility.yul\":7983:7987   */\n      0x20\n        /* \"#utility.yul\":7978:7981   */\n      dup3\n        /* \"#utility.yul\":7974:7988   */\n      add\n        /* \"#utility.yul\":7966:7988   */\n      swap1\n      pop\n        /* \"#utility.yul\":7842:7995   */\n      swap2\n      swap1\n      pop\n      jump\t// out\n        /* \"#utility.yul\":8001:8109   */\n    tag_155:\n        /* \"#utility.yul\":8078:8102   */\n      tag_283\n        /* \"#utility.yul\":8096:8101   */\n      dup2\n        /* \"#utility.yul\":8078:8102   */\n      tag_130\n      jump\t// in\n    tag_283:\n        /* \"#utility.yul\":8073:8076   */\n      dup3\n        /* \"#utility.yul\":8066:8103   */\n      mstore\n        /* \"#utility.yul\":8001:8109   */\n      pop\n      pop\n      jump\t// out\n        /* \"#utility.yul\":8115:8223   */\n    tag_156:\n        /* \"#utility.yul\":8192:8216   */\n      tag_285\n        /* \"#utility.yul\":8210:8215   */\n      dup2\n        /* \"#utility.yul\":8192:8216   */\n      tag_127\n      jump\t// in\n    tag_285:\n        /* \"#utility.yul\":8187:8190   */\n      dup3\n        /* \"#utility.yul\":8180:8217   */\n      mstore\n        /* \"#utility.yul\":8115:8223   */\n      pop\n      pop\n      jump\t// out\n        /* \"#utility.yul\":8229:8388   */\n    tag_157:\n        /* \"#utility.yul\":8303:8314   */\n      0x00\n        /* \"#utility.yul\":8337:8343   */\n      dup3\n        /* \"#utility.yul\":8332:8335   */\n      dup3\n        /* \"#utility.yul\":8325:8344   */\n      mstore\n        /* \"#utility.yul\":8377:8381   */\n      0x20\n        /* \"#utility.yul\":8372:8375   */\n      dup3\n        /* \"#utility.yul\":8368:8382   */\n      add\n        /* \"#utility.yul\":8353:8382   */\n      swap1\n      pop\n        /* \"#utility.yul\":8229:8388   */\n      swap3\n      swap2\n      pop\n      pop\n      jump\t// out\n        /* \"#utility.yul\":8394:8751   */\n    tag_158:\n        /* \"#utility.yul\":8472:8475   */\n      0x00\n        /* \"#utility.yul\":8500:8539   */\n      tag_288\n        /* \"#utility.yul\":8533:8538   */\n      dup3\n        /* \"#utility.yul\":8500:8539   */\n      tag_135\n      jump\t// in\n    tag_288:\n        /* \"#utility.yul\":8555:8616   */\n      tag_289\n        /* \"#utility.yul\":8609:8615   */\n      dup2\n        /* \"#utility.yul\":8604:8607   */\n      dup6\n        /* \"#utility.yul\":8555:8616   */\n      tag_157\n      jump\t// in\n    tag_289:\n        /* \"#utility.yul\":8548:8616   */\n      swap4\n      pop\n        /* \"#utility.yul\":8625:8690   */\n      tag_290\n        /* \"#utility.yul\":8683:8689   */\n      dup2\n        /* \"#utility.yul\":8678:8681   */\n      dup6\n        /* \"#utility.yul\":8671:8675   */\n      0x20\n        /* \"#utility.yul\":8664:8669   */\n      dup7\n        /* \"#utility.yul\":8660:8676   */\n      add\n        /* \"#utility.yul\":8625:8690   */\n      tag_137\n      jump\t// in\n    tag_290:\n        /* \"#utility.yul\":8715:8744   */\n      tag_291\n        /* \"#utility.yul\":8737:8743   */\n      dup2\n        /* \"#utility.yul\":8715:8744   */\n      tag_138\n      jump\t// in\n    tag_291:\n        /* \"#utility.yul\":8710:8713   */\n      dup5\n        /* \"#utility.yul\":8706:8745   */\n      add\n        /* \"#utility.yul\":8699:8745   */\n      swap2\n      pop\n        /* \"#utility.yul\":8476:8751   */\n      pop\n        /* \"#utility.yul\":8394:8751   */\n      swap3\n      swap2\n      pop\n      pop\n      jump\t// out\n        /* \"#utility.yul\":8809:9928   */\n    tag_159:\n        /* \"#utility.yul\":8910:8913   */\n      0x00\n        /* \"#utility.yul\":8946:8950   */\n      0xa0\n        /* \"#utility.yul\":8941:8944   */\n      dup4\n        /* \"#utility.yul\":8937:8951   */\n      add\n        /* \"#utility.yul\":9031:9035   */\n      0x00\n        /* \"#utility.yul\":9024:9029   */\n      dup4\n        /* \"#utility.yul\":9020:9036   */\n      add\n        /* \"#utility.yul\":9014:9037   */\n      mload\n        /* \"#utility.yul\":9050:9113   */\n      tag_293\n        /* \"#utility.yul\":9107:9111   */\n      0x00\n        /* \"#utility.yul\":9102:9105   */\n      dup7\n        /* \"#utility.yul\":9098:9112   */\n      add\n        /* \"#utility.yul\":9084:9096   */\n      dup3\n        /* \"#utility.yul\":9050:9113   */\n      tag_155\n      jump\t// in\n    tag_293:\n        /* \"#utility.yul\":8961:9123   */\n      pop\n        /* \"#utility.yul\":9207:9211   */\n      0x20\n        /* \"#utility.yul\":9200:9205   */\n      dup4\n        /* \"#utility.yul\":9196:9212   */\n      add\n        /* \"#utility.yul\":9190:9213   */\n      mload\n        /* \"#utility.yul\":9226:9289   */\n      tag_294\n        /* \"#utility.yul\":9283:9287   */\n      0x20\n        /* \"#utility.yul\":9278:9281   */\n      dup7\n        /* \"#utility.yul\":9274:9288   */\n      add\n        /* \"#utility.yul\":9260:9272   */\n      dup3\n        /* \"#utility.yul\":9226:9289   */\n      tag_156\n      jump\t// in\n    tag_294:\n        /* \"#utility.yul\":9133:9299   */\n      pop\n        /* \"#utility.yul\":9384:9388   */\n      0x40\n        /* \"#utility.yul\":9377:9382   */\n      dup4\n        /* \"#utility.yul\":9373:9389   */\n      add\n        /* \"#utility.yul\":9367:9390   */\n      mload\n        /* \"#utility.yul\":9437:9440   */\n      dup5\n        /* \"#utility.yul\":9431:9435   */\n      dup3\n        /* \"#utility.yul\":9427:9441   */\n      sub\n        /* \"#utility.yul\":9420:9424   */\n      0x40\n        /* \"#utility.yul\":9415:9418   */\n      dup7\n        /* \"#utility.yul\":9411:9425   */\n      add\n        /* \"#utility.yul\":9404:9442   */\n      mstore\n        /* \"#utility.yul\":9463:9536   */\n      tag_295\n        /* \"#utility.yul\":9531:9535   */\n      dup3\n        /* \"#utility.yul\":9517:9529   */\n      dup3\n        /* \"#utility.yul\":9463:9536   */\n      tag_158\n      jump\t// in\n    tag_295:\n        /* \"#utility.yul\":9455:9536   */\n      swap2\n      pop\n        /* \"#utility.yul\":9309:9547   */\n      pop\n        /* \"#utility.yul\":9634:9638   */\n      0x60\n        /* \"#utility.yul\":9627:9632   */\n      dup4\n        /* \"#utility.yul\":9623:9639   */\n      add\n        /* \"#utility.yul\":9617:9640   */\n      mload\n        /* \"#utility.yul\":9653:9716   */\n      tag_296\n        /* \"#utility.yul\":9710:9714   */\n      0x60\n        /* \"#utility.yul\":9705:9708   */\n      dup7\n        /* \"#utility.yul\":9701:9715   */\n      add\n        /* \"#utility.yul\":9687:9699   */\n      dup3\n        /* \"#utility.yul\":9653:9716   */\n      tag_155\n      jump\t// in\n    tag_296:\n        /* \"#utility.yul\":9557:9726   */\n      pop\n        /* \"#utility.yul\":9809:9813   */\n      0x80\n        /* \"#utility.yul\":9802:9807   */\n      dup4\n        /* \"#utility.yul\":9798:9814   */\n      add\n        /* \"#utility.yul\":9792:9815   */\n      mload\n        /* \"#utility.yul\":9828:9891   */\n      tag_297\n        /* \"#utility.yul\":9885:9889   */\n      0x80\n        /* \"#utility.yul\":9880:9883   */\n      dup7\n        /* \"#utility.yul\":9876:9890   */\n      add\n        /* \"#utility.yul\":9862:9874   */\n      dup3\n        /* \"#utility.yul\":9828:9891   */\n      tag_155\n      jump\t// in\n    tag_297:\n        /* \"#utility.yul\":9736:9901   */\n      pop\n        /* \"#utility.yul\":9918:9922   */\n      dup1\n        /* \"#utility.yul\":9911:9922   */\n      swap2\n      pop\n        /* \"#utility.yul\":8915:9928   */\n      pop\n        /* \"#utility.yul\":8809:9928   */\n      swap3\n      swap2\n      pop\n      pop\n      jump\t// out\n        /* \"#utility.yul\":9934:10174   */\n    tag_160:\n        /* \"#utility.yul\":10045:10055   */\n      0x00\n        /* \"#utility.yul\":10080:10168   */\n      tag_299\n        /* \"#utility.yul\":10164:10167   */\n      dup4\n        /* \"#utility.yul\":10156:10162   */\n      dup4\n        /* \"#utility.yul\":10080:10168   */\n      tag_159\n      jump\t// in\n    tag_299:\n        /* \"#utility.yul\":10066:10168   */\n      swap1\n      pop\n        /* \"#utility.yul\":9934:10174   */\n      swap3\n      swap2\n      pop\n      pop\n      jump\t// out\n        /* \"#utility.yul\":10180:10314   */\n    tag_161:\n        /* \"#utility.yul\":10271:10275   */\n      0x00\n        /* \"#utility.yul\":10303:10307   */\n      0x20\n        /* \"#utility.yul\":10298:10301   */\n      dup3\n        /* \"#utility.yul\":10294:10308   */\n      add\n        /* \"#utility.yul\":10286:10308   */\n      swap1\n      pop\n        /* \"#utility.yul\":10180:10314   */\n      swap2\n      swap1\n      pop\n      jump\t// out\n        /* \"#utility.yul\":10376:11455   */\n    tag_162:\n        /* \"#utility.yul\":10537:10540   */\n      0x00\n        /* \"#utility.yul\":10566:10641   */\n      tag_302\n        /* \"#utility.yul\":10635:10640   */\n      dup3\n        /* \"#utility.yul\":10566:10641   */\n      tag_152\n      jump\t// in\n    tag_302:\n        /* \"#utility.yul\":10657:10764   */\n      tag_303\n        /* \"#utility.yul\":10757:10763   */\n      dup2\n        /* \"#utility.yul\":10752:10755   */\n      dup6\n        /* \"#utility.yul\":10657:10764   */\n      tag_153\n      jump\t// in\n    tag_303:\n        /* \"#utility.yul\":10650:10764   */\n      swap4\n      pop\n        /* \"#utility.yul\":10790:10793   */\n      dup4\n        /* \"#utility.yul\":10835:10839   */\n      0x20\n        /* \"#utility.yul\":10827:10833   */\n      dup3\n        /* \"#utility.yul\":10823:10840   */\n      mul\n        /* \"#utility.yul\":10818:10821   */\n      dup6\n        /* \"#utility.yul\":10814:10841   */\n      add\n        /* \"#utility.yul\":10865:10942   */\n      tag_304\n        /* \"#utility.yul\":10936:10941   */\n      dup6\n        /* \"#utility.yul\":10865:10942   */\n      tag_154\n      jump\t// in\n    tag_304:\n        /* \"#utility.yul\":10965:10972   */\n      dup1\n        /* \"#utility.yul\":10996:10997   */\n      0x00\n        /* \"#utility.yul\":10981:11410   */\n    tag_305:\n        /* \"#utility.yul\":11006:11012   */\n      dup6\n        /* \"#utility.yul\":11003:11004   */\n      dup2\n        /* \"#utility.yul\":11000:11013   */\n      lt\n        /* \"#utility.yul\":10981:11410   */\n      iszero\n      tag_307\n      jumpi\n        /* \"#utility.yul\":11077:11086   */\n      dup5\n        /* \"#utility.yul\":11071:11075   */\n      dup5\n        /* \"#utility.yul\":11067:11087   */\n      sub\n        /* \"#utility.yul\":11062:11065   */\n      dup10\n        /* \"#utility.yul\":11055:11088   */\n      mstore\n        /* \"#utility.yul\":11128:11134   */\n      dup2\n        /* \"#utility.yul\":11122:11135   */\n      mload\n        /* \"#utility.yul\":11156:11262   */\n      tag_308\n        /* \"#utility.yul\":11257:11261   */\n      dup6\n        /* \"#utility.yul\":11242:11255   */\n      dup3\n        /* \"#utility.yul\":11156:11262   */\n      tag_160\n      jump\t// in\n    tag_308:\n        /* \"#utility.yul\":11148:11262   */\n      swap5\n      pop\n        /* \"#utility.yul\":11285:11366   */\n      tag_309\n        /* \"#utility.yul\":11359:11365   */\n      dup4\n        /* \"#utility.yul\":11285:11366   */\n      tag_161\n      jump\t// in\n    tag_309:\n        /* \"#utility.yul\":11275:11366   */\n      swap3\n      pop\n        /* \"#utility.yul\":11395:11399   */\n      0x20\n        /* \"#utility.yul\":11390:11393   */\n      dup11\n        /* \"#utility.yul\":11386:11400   */\n      add\n        /* \"#utility.yul\":11379:11400   */\n      swap10\n      pop\n        /* \"#utility.yul\":11041:11410   */\n      pop\n        /* \"#utility.yul\":11028:11029   */\n      0x01\n        /* \"#utility.yul\":11025:11026   */\n      dup2\n        /* \"#utility.yul\":11021:11030   */\n      add\n        /* \"#utility.yul\":11016:11030   */\n      swap1\n      pop\n        /* \"#utility.yul\":10981:11410   */\n      jump(tag_305)\n    tag_307:\n        /* \"#utility.yul\":10985:10999   */\n      pop\n        /* \"#utility.yul\":11426:11430   */\n      dup3\n        /* \"#utility.yul\":11419:11430   */\n      swap8\n      pop\n        /* \"#utility.yul\":11446:11449   */\n      dup8\n        /* \"#utility.yul\":11439:11449   */\n      swap6\n      pop\n        /* \"#utility.yul\":10542:11455   */\n      pop\n      pop\n      pop\n      pop\n      pop\n        /* \"#utility.yul\":10376:11455   */\n      swap3\n      swap2\n      pop\n      pop\n      jump\t// out\n        /* \"#utility.yul\":11461:11918   */\n    tag_42:\n        /* \"#utility.yul\":11646:11650   */\n      0x00\n        /* \"#utility.yul\":11684:11686   */\n      0x20\n        /* \"#utility.yul\":11673:11682   */\n      dup3\n        /* \"#utility.yul\":11669:11687   */\n      add\n        /* \"#utility.yul\":11661:11687   */\n      swap1\n      pop\n        /* \"#utility.yul\":11733:11742   */\n      dup2\n        /* \"#utility.yul\":11727:11731   */\n      dup2\n        /* \"#utility.yul\":11723:11743   */\n      sub\n        /* \"#utility.yul\":11719:11720   */\n      0x00\n        /* \"#utility.yul\":11708:11717   */\n      dup4\n        /* \"#utility.yul\":11704:11721   */\n      add\n        /* \"#utility.yul\":11697:11744   */\n      mstore\n        /* \"#utility.yul\":11761:11911   */\n      tag_311\n        /* \"#utility.yul\":11906:11910   */\n      dup2\n        /* \"#utility.yul\":11897:11903   */\n      dup5\n        /* \"#utility.yul\":11761:11911   */\n      tag_162\n      jump\t// in\n    tag_311:\n        /* \"#utility.yul\":11753:11911   */\n      swap1\n      pop\n        /* \"#utility.yul\":11461:11918   */\n      swap3\n      swap2\n      pop\n      pop\n      jump\t// out\n        /* \"#utility.yul\":11924:12253   */\n    tag_45:\n        /* \"#utility.yul\":11983:11989   */\n      0x00\n        /* \"#utility.yul\":12032:12034   */\n      0x20\n        /* \"#utility.yul\":12020:12029   */\n      dup3\n        /* \"#utility.yul\":12011:12018   */\n      dup5\n        /* \"#utility.yul\":12007:12030   */\n      sub\n        /* \"#utility.yul\":12003:12035   */\n      slt\n        /* \"#utility.yul\":12000:12119   */\n      iszero\n      tag_313\n      jumpi\n        /* \"#utility.yul\":12038:12117   */\n      tag_314\n      tag_124\n      jump\t// in\n    tag_314:\n        /* \"#utility.yul\":12000:12119   */\n    tag_313:\n        /* \"#utility.yul\":12158:12159   */\n      0x00\n        /* \"#utility.yul\":12183:12236   */\n      tag_315\n        /* \"#utility.yul\":12228:12235   */\n      dup5\n        /* \"#utility.yul\":12219:12225   */\n      dup3\n        /* \"#utility.yul\":12208:12217   */\n      dup6\n        /* \"#utility.yul\":12204:12226   */\n      add\n        /* \"#utility.yul\":12183:12236   */\n      tag_132\n      jump\t// in\n    tag_315:\n        /* \"#utility.yul\":12173:12236   */\n      swap2\n      pop\n        /* \"#utility.yul\":12129:12246   */\n      pop\n        /* \"#utility.yul\":11924:12253   */\n      swap3\n      swap2\n      pop\n      pop\n      jump\t// out\n        /* \"#utility.yul\":12311:13440   */\n    tag_163:\n        /* \"#utility.yul\":12422:12425   */\n      0x00\n        /* \"#utility.yul\":12458:12462   */\n      0xa0\n        /* \"#utility.yul\":12453:12456   */\n      dup4\n        /* \"#utility.yul\":12449:12463   */\n      add\n        /* \"#utility.yul\":12543:12547   */\n      0x00\n        /* \"#utility.yul\":12536:12541   */\n      dup4\n        /* \"#utility.yul\":12532:12548   */\n      add\n        /* \"#utility.yul\":12526:12549   */\n      mload\n        /* \"#utility.yul\":12562:12625   */\n      tag_317\n        /* \"#utility.yul\":12619:12623   */\n      0x00\n        /* \"#utility.yul\":12614:12617   */\n      dup7\n        /* \"#utility.yul\":12610:12624   */\n      add\n        /* \"#utility.yul\":12596:12608   */\n      dup3\n        /* \"#utility.yul\":12562:12625   */\n      tag_155\n      jump\t// in\n    tag_317:\n        /* \"#utility.yul\":12473:12635   */\n      pop\n        /* \"#utility.yul\":12719:12723   */\n      0x20\n        /* \"#utility.yul\":12712:12717   */\n      dup4\n        /* \"#utility.yul\":12708:12724   */\n      add\n        /* \"#utility.yul\":12702:12725   */\n      mload\n        /* \"#utility.yul\":12738:12801   */\n      tag_318\n        /* \"#utility.yul\":12795:12799   */\n      0x20\n        /* \"#utility.yul\":12790:12793   */\n      dup7\n        /* \"#utility.yul\":12786:12800   */\n      add\n        /* \"#utility.yul\":12772:12784   */\n      dup3\n        /* \"#utility.yul\":12738:12801   */\n      tag_156\n      jump\t// in\n    tag_318:\n        /* \"#utility.yul\":12645:12811   */\n      pop\n        /* \"#utility.yul\":12896:12900   */\n      0x40\n        /* \"#utility.yul\":12889:12894   */\n      dup4\n        /* \"#utility.yul\":12885:12901   */\n      add\n        /* \"#utility.yul\":12879:12902   */\n      mload\n        /* \"#utility.yul\":12949:12952   */\n      dup5\n        /* \"#utility.yul\":12943:12947   */\n      dup3\n        /* \"#utility.yul\":12939:12953   */\n      sub\n        /* \"#utility.yul\":12932:12936   */\n      0x40\n        /* \"#utility.yul\":12927:12930   */\n      dup7\n        /* \"#utility.yul\":12923:12937   */\n      add\n        /* \"#utility.yul\":12916:12954   */\n      mstore\n        /* \"#utility.yul\":12975:13048   */\n      tag_319\n        /* \"#utility.yul\":13043:13047   */\n      dup3\n        /* \"#utility.yul\":13029:13041   */\n      dup3\n        /* \"#utility.yul\":12975:13048   */\n      tag_158\n      jump\t// in\n    tag_319:\n        /* \"#utility.yul\":12967:13048   */\n      swap2\n      pop\n        /* \"#utility.yul\":12821:13059   */\n      pop\n        /* \"#utility.yul\":13146:13150   */\n      0x60\n        /* \"#utility.yul\":13139:13144   */\n      dup4\n        /* \"#utility.yul\":13135:13151   */\n      add\n        /* \"#utility.yul\":13129:13152   */\n      mload\n        /* \"#utility.yul\":13165:13228   */\n      tag_320\n        /* \"#utility.yul\":13222:13226   */\n      0x60\n        /* \"#utility.yul\":13217:13220   */\n      dup7\n        /* \"#utility.yul\":13213:13227   */\n      add\n        /* \"#utility.yul\":13199:13211   */\n      dup3\n        /* \"#utility.yul\":13165:13228   */\n      tag_155\n      jump\t// in\n    tag_320:\n        /* \"#utility.yul\":13069:13238   */\n      pop\n        /* \"#utility.yul\":13321:13325   */\n      0x80\n        /* \"#utility.yul\":13314:13319   */\n      dup4\n        /* \"#utility.yul\":13310:13326   */\n      add\n        /* \"#utility.yul\":13304:13327   */\n      mload\n        /* \"#utility.yul\":13340:13403   */\n      tag_321\n        /* \"#utility.yul\":13397:13401   */\n      0x80\n        /* \"#utility.yul\":13392:13395   */\n      dup7\n        /* \"#utility.yul\":13388:13402   */\n      add\n        /* \"#utility.yul\":13374:13386   */\n      dup3\n        /* \"#utility.yul\":13340:13403   */\n      tag_155\n      jump\t// in\n    tag_321:\n        /* \"#utility.yul\":13248:13413   */\n      pop\n        /* \"#utility.yul\":13430:13434   */\n      dup1\n        /* \"#utility.yul\":13423:13434   */\n      swap2\n      pop\n        /* \"#utility.yul\":12427:13440   */\n      pop\n        /* \"#utility.yul\":12311:13440   */\n      swap3\n      swap2\n      pop\n      pop\n      jump\t// out\n        /* \"#utility.yul\":13446:13803   */\n    tag_48:\n        /* \"#utility.yul\":13581:13585   */\n      0x00\n        /* \"#utility.yul\":13619:13621   */\n      0x20\n        /* \"#utility.yul\":13608:13617   */\n      dup3\n        /* \"#utility.yul\":13604:13622   */\n      add\n        /* \"#utility.yul\":13596:13622   */\n      swap1\n      pop\n        /* \"#utility.yul\":13668:13677   */\n      dup2\n        /* \"#utility.yul\":13662:13666   */\n      dup2\n        /* \"#utility.yul\":13658:13678   */\n      sub\n        /* \"#utility.yul\":13654:13655   */\n      0x00\n        /* \"#utility.yul\":13643:13652   */\n      dup4\n        /* \"#utility.yul\":13639:13656   */\n      add\n        /* \"#utility.yul\":13632:13679   */\n      mstore\n        /* \"#utility.yul\":13696:13796   */\n      tag_323\n        /* \"#utility.yul\":13791:13795   */\n      dup2\n        /* \"#utility.yul\":13782:13788   */\n      dup5\n        /* \"#utility.yul\":13696:13796   */\n      tag_163\n      jump\t// in\n    tag_323:\n        /* \"#utility.yul\":13688:13796   */\n      swap1\n      pop\n        /* \"#utility.yul\":13446:13803   */\n      swap3\n      swap2\n      pop\n      pop\n      jump\t// out\n        /* \"#utility.yul\":13809:13924   */\n    tag_164:\n        /* \"#utility.yul\":13894:13917   */\n      tag_325\n        /* \"#utility.yul\":13911:13916   */\n      dup2\n        /* \"#utility.yul\":13894:13917   */\n      tag_140\n      jump\t// in\n    tag_325:\n        /* \"#utility.yul\":13889:13892   */\n      dup3\n        /* \"#utility.yul\":13882:13918   */\n      mstore\n        /* \"#utility.yul\":13809:13924   */\n      pop\n      pop\n      jump\t// out\n        /* \"#utility.yul\":13930:14148   */\n    tag_52:\n        /* \"#utility.yul\":14021:14025   */\n      0x00\n        /* \"#utility.yul\":14059:14061   */\n      0x20\n        /* \"#utility.yul\":14048:14057   */\n      dup3\n        /* \"#utility.yul\":14044:14062   */\n      add\n        /* \"#utility.yul\":14036:14062   */\n      swap1\n      pop\n        /* \"#utility.yul\":14072:14141   */\n      tag_327\n        /* \"#utility.yul\":14138:14139   */\n      0x00\n        /* \"#utility.yul\":14127:14136   */\n      dup4\n        /* \"#utility.yul\":14123:14140   */\n      add\n        /* \"#utility.yul\":14114:14120   */\n      dup5\n        /* \"#utility.yul\":14072:14141   */\n      tag_164\n      jump\t// in\n    tag_327:\n        /* \"#utility.yul\":13930:14148   */\n      swap3\n      swap2\n      pop\n      pop\n      jump\t// out\n        /* \"#utility.yul\":14154:14334   */\n    tag_165:\n        /* \"#utility.yul\":14202:14279   */\n      0x4e487b7100000000000000000000000000000000000000000000000000000000\n        /* \"#utility.yul\":14199:14200   */\n      0x00\n        /* \"#utility.yul\":14192:14280   */\n      mstore\n        /* \"#utility.yul\":14299:14303   */\n      0x22\n        /* \"#utility.yul\":14296:14297   */\n      0x04\n        /* \"#utility.yul\":14289:14304   */\n      mstore\n        /* \"#utility.yul\":14323:14327   */\n      0x24\n        /* \"#utility.yul\":14320:14321   */\n      0x00\n        /* \"#utility.yul\":14313:14328   */\n      revert\n        /* \"#utility.yul\":14340:14660   */\n    tag_56:\n        /* \"#utility.yul\":14384:14390   */\n      0x00\n        /* \"#utility.yul\":14421:14422   */\n      0x02\n        /* \"#utility.yul\":14415:14419   */\n      dup3\n        /* \"#utility.yul\":14411:14423   */\n      div\n        /* \"#utility.yul\":14401:14423   */\n      swap1\n      pop\n        /* \"#utility.yul\":14468:14469   */\n      0x01\n        /* \"#utility.yul\":14462:14466   */\n      dup3\n        /* \"#utility.yul\":14458:14470   */\n      and\n        /* \"#utility.yul\":14489:14507   */\n      dup1\n        /* \"#utility.yul\":14479:14560   */\n      tag_330\n      jumpi\n        /* \"#utility.yul\":14545:14549   */\n      0x7f\n        /* \"#utility.yul\":14537:14543   */\n      dup3\n        /* \"#utility.yul\":14533:14550   */\n      and\n        /* \"#utility.yul\":14523:14550   */\n      swap2\n      pop\n        /* \"#utility.yul\":14479:14560   */\n    tag_330:\n        /* \"#utility.yul\":14607:14609   */\n      0x20\n        /* \"#utility.yul\":14599:14605   */\n      dup3\n        /* \"#utility.yul\":14596:14610   */\n      lt\n        /* \"#utility.yul\":14576:14594   */\n      dup2\n        /* \"#utility.yul\":14573:14611   */\n      sub\n        /* \"#utility.yul\":14570:14654   */\n      tag_331\n      jumpi\n        /* \"#utility.yul\":14626:14644   */\n      tag_332\n      tag_165\n      jump\t// in\n    tag_332:\n        /* \"#utility.yul\":14570:14654   */\n    tag_331:\n        /* \"#utility.yul\":14391:14660   */\n      pop\n        /* \"#utility.yul\":14340:14660   */\n      swap2\n      swap1\n      pop\n      jump\t// out\n        /* \"#utility.yul\":14666:14846   */\n    tag_64:\n        /* \"#utility.yul\":14714:14791   */\n      0x4e487b7100000000000000000000000000000000000000000000000000000000\n        /* \"#utility.yul\":14711:14712   */\n      0x00\n        /* \"#utility.yul\":14704:14792   */\n      mstore\n        /* \"#utility.yul\":14811:14815   */\n      0x32\n        /* \"#utility.yul\":14808:14809   */\n      0x04\n        /* \"#utility.yul\":14801:14816   */\n      mstore\n        /* \"#utility.yul\":14835:14839   */\n      0x24\n        /* \"#utility.yul\":14832:14833   */\n      0x00\n        /* \"#utility.yul\":14825:14840   */\n      revert\n        /* \"#utility.yul\":14852:15022   */\n    tag_166:\n        /* \"#utility.yul\":14992:15014   */\n      0x545745455420444f4553204e4f54204558495354000000000000000000000000\n        /* \"#utility.yul\":14988:14989   */\n      0x00\n        /* \"#utility.yul\":14980:14986   */\n      dup3\n        /* \"#utility.yul\":14976:14990   */\n      add\n        /* \"#utility.yul\":14969:15015   */\n      mstore\n        /* \"#utility.yul\":14852:15022   */\n      pop\n      jump\t// out\n        /* \"#utility.yul\":15028:15394   */\n    tag_167:\n        /* \"#utility.yul\":15170:15173   */\n      0x00\n        /* \"#utility.yul\":15191:15258   */\n      tag_336\n        /* \"#utility.yul\":15255:15257   */\n      0x14\n        /* \"#utility.yul\":15250:15253   */\n      dup4\n        /* \"#utility.yul\":15191:15258   */\n      tag_136\n      jump\t// in\n    tag_336:\n        /* \"#utility.yul\":15184:15258   */\n      swap2\n      pop\n        /* \"#utility.yul\":15267:15360   */\n      tag_337\n        /* \"#utility.yul\":15356:15359   */\n      dup3\n        /* \"#utility.yul\":15267:15360   */\n      tag_166\n      jump\t// in\n    tag_337:\n        /* \"#utility.yul\":15385:15387   */\n      0x20\n        /* \"#utility.yul\":15380:15383   */\n      dup3\n        /* \"#utility.yul\":15376:15388   */\n      add\n        /* \"#utility.yul\":15369:15388   */\n      swap1\n      pop\n        /* \"#utility.yul\":15028:15394   */\n      swap2\n      swap1\n      pop\n      jump\t// out\n        /* \"#utility.yul\":15400:15819   */\n    tag_68:\n        /* \"#utility.yul\":15566:15570   */\n      0x00\n        /* \"#utility.yul\":15604:15606   */\n      0x20\n        /* \"#utility.yul\":15593:15602   */\n      dup3\n        /* \"#utility.yul\":15589:15607   */\n      add\n        /* \"#utility.yul\":15581:15607   */\n      swap1\n      pop\n        /* \"#utility.yul\":15653:15662   */\n      dup2\n        /* \"#utility.yul\":15647:15651   */\n      dup2\n        /* \"#utility.yul\":15643:15663   */\n      sub\n        /* \"#utility.yul\":15639:15640   */\n      0x00\n        /* \"#utility.yul\":15628:15637   */\n      dup4\n        /* \"#utility.yul\":15624:15641   */\n      add\n        /* \"#utility.yul\":15617:15664   */\n      mstore\n        /* \"#utility.yul\":15681:15812   */\n      tag_339\n        /* \"#utility.yul\":15807:15811   */\n      dup2\n        /* \"#utility.yul\":15681:15812   */\n      tag_167\n      jump\t// in\n    tag_339:\n        /* \"#utility.yul\":15673:15812   */\n      swap1\n      pop\n        /* \"#utility.yul\":15400:15819   */\n      swap2\n      swap1\n      pop\n      jump\t// out\n        /* \"#utility.yul\":15825:15992   */\n    tag_168:\n        /* \"#utility.yul\":15965:15984   */\n      0x545745455420484153204e4f204c494b45000000000000000000000000000000\n        /* \"#utility.yul\":15961:15962   */\n      0x00\n        /* \"#utility.yul\":15953:15959   */\n      dup3\n        /* \"#utility.yul\":15949:15963   */\n      add\n        /* \"#utility.yul\":15942:15985   */\n      mstore\n        /* \"#utility.yul\":15825:15992   */\n      pop\n      jump\t// out\n        /* \"#utility.yul\":15998:16364   */\n    tag_169:\n        /* \"#utility.yul\":16140:16143   */\n      0x00\n        /* \"#utility.yul\":16161:16228   */\n      tag_342\n        /* \"#utility.yul\":16225:16227   */\n      0x11\n        /* \"#utility.yul\":16220:16223   */\n      dup4\n        /* \"#utility.yul\":16161:16228   */\n      tag_136\n      jump\t// in\n    tag_342:\n        /* \"#utility.yul\":16154:16228   */\n      swap2\n      pop\n        /* \"#utility.yul\":16237:16330   */\n      tag_343\n        /* \"#utility.yul\":16326:16329   */\n      dup3\n        /* \"#utility.yul\":16237:16330   */\n      tag_168\n      jump\t// in\n    tag_343:\n        /* \"#utility.yul\":16355:16357   */\n      0x20\n        /* \"#utility.yul\":16350:16353   */\n      dup3\n        /* \"#utility.yul\":16346:16358   */\n      add\n        /* \"#utility.yul\":16339:16358   */\n      swap1\n      pop\n        /* \"#utility.yul\":15998:16364   */\n      swap2\n      swap1\n      pop\n      jump\t// out\n        /* \"#utility.yul\":16370:16789   */\n    tag_74:\n        /* \"#utility.yul\":16536:16540   */\n      0x00\n        /* \"#utility.yul\":16574:16576   */\n      0x20\n        /* \"#utility.yul\":16563:16572   */\n      dup3\n        /* \"#utility.yul\":16559:16577   */\n      add\n        /* \"#utility.yul\":16551:16577   */\n      swap1\n      pop\n        /* \"#utility.yul\":16623:16632   */\n      dup2\n        /* \"#utility.yul\":16617:16621   */\n      dup2\n        /* \"#utility.yul\":16613:16633   */\n      sub\n        /* \"#utility.yul\":16609:16610   */\n      0x00\n        /* \"#utility.yul\":16598:16607   */\n      dup4\n        /* \"#utility.yul\":16594:16611   */\n      add\n        /* \"#utility.yul\":16587:16634   */\n      mstore\n        /* \"#utility.yul\":16651:16782   */\n      tag_345\n        /* \"#utility.yul\":16777:16781   */\n      dup2\n        /* \"#utility.yul\":16651:16782   */\n      tag_169\n      jump\t// in\n    tag_345:\n        /* \"#utility.yul\":16643:16782   */\n      swap1\n      pop\n        /* \"#utility.yul\":16370:16789   */\n      swap2\n      swap1\n      pop\n      jump\t// out\n        /* \"#utility.yul\":16795:16975   */\n    tag_170:\n        /* \"#utility.yul\":16843:16920   */\n      0x4e487b7100000000000000000000000000000000000000000000000000000000\n        /* \"#utility.yul\":16840:16841   */\n      0x00\n        /* \"#utility.yul\":16833:16921   */\n      mstore\n        /* \"#utility.yul\":16940:16944   */\n      0x11\n        /* \"#utility.yul\":16937:16938   */\n      0x04\n        /* \"#utility.yul\":16930:16945   */\n      mstore\n        /* \"#utility.yul\":16964:16968   */\n      0x24\n        /* \"#utility.yul\":16961:16962   */\n      0x00\n        /* \"#utility.yul\":16954:16969   */\n      revert\n        /* \"#utility.yul\":16981:17152   */\n    tag_79:\n        /* \"#utility.yul\":17020:17023   */\n      0x00\n        /* \"#utility.yul\":17043:17067   */\n      tag_348\n        /* \"#utility.yul\":17061:17066   */\n      dup3\n        /* \"#utility.yul\":17043:17067   */\n      tag_130\n      jump\t// in\n    tag_348:\n        /* \"#utility.yul\":17034:17067   */\n      swap2\n      pop\n        /* \"#utility.yul\":17089:17093   */\n      0x00\n        /* \"#utility.yul\":17082:17087   */\n      dup3\n        /* \"#utility.yul\":17079:17094   */\n      sub\n        /* \"#utility.yul\":17076:17117   */\n      tag_349\n      jumpi\n        /* \"#utility.yul\":17097:17115   */\n      tag_350\n      tag_170\n      jump\t// in\n    tag_350:\n        /* \"#utility.yul\":17076:17117   */\n    tag_349:\n        /* \"#utility.yul\":17144:17145   */\n      0x01\n        /* \"#utility.yul\":17137:17142   */\n      dup3\n        /* \"#utility.yul\":17133:17146   */\n      sub\n        /* \"#utility.yul\":17126:17146   */\n      swap1\n      pop\n        /* \"#utility.yul\":16981:17152   */\n      swap2\n      swap1\n      pop\n      jump\t// out\n        /* \"#utility.yul\":17158:17329   */\n    tag_171:\n        /* \"#utility.yul\":17298:17321   */\n      0x594f5520415245204e4f5420544845204f574e45520000000000000000000000\n        /* \"#utility.yul\":17294:17295   */\n      0x00\n        /* \"#utility.yul\":17286:17292   */\n      dup3\n        /* \"#utility.yul\":17282:17296   */\n      add\n        /* \"#utility.yul\":17275:17322   */\n      mstore\n        /* \"#utility.yul\":17158:17329   */\n      pop\n      jump\t// out\n        /* \"#utility.yul\":17335:17701   */\n    tag_172:\n        /* \"#utility.yul\":17477:17480   */\n      0x00\n        /* \"#utility.yul\":17498:17565   */\n      tag_353\n        /* \"#utility.yul\":17562:17564   */\n      0x15\n        /* \"#utility.yul\":17557:17560   */\n      dup4\n        /* \"#utility.yul\":17498:17565   */\n      tag_136\n      jump\t// in\n    tag_353:\n        /* \"#utility.yul\":17491:17565   */\n      swap2\n      pop\n        /* \"#utility.yul\":17574:17667   */\n      tag_354\n        /* \"#utility.yul\":17663:17666   */\n      dup3\n        /* \"#utility.yul\":17574:17667   */\n      tag_171\n      jump\t// in\n    tag_354:\n        /* \"#utility.yul\":17692:17694   */\n      0x20\n        /* \"#utility.yul\":17687:17690   */\n      dup3\n        /* \"#utility.yul\":17683:17695   */\n      add\n        /* \"#utility.yul\":17676:17695   */\n      swap1\n      pop\n        /* \"#utility.yul\":17335:17701   */\n      swap2\n      swap1\n      pop\n      jump\t// out\n        /* \"#utility.yul\":17707:18126   */\n    tag_83:\n        /* \"#utility.yul\":17873:17877   */\n      0x00\n        /* \"#utility.yul\":17911:17913   */\n      0x20\n        /* \"#utility.yul\":17900:17909   */\n      dup3\n        /* \"#utility.yul\":17896:17914   */\n      add\n        /* \"#utility.yul\":17888:17914   */\n      swap1\n      pop\n        /* \"#utility.yul\":17960:17969   */\n      dup2\n        /* \"#utility.yul\":17954:17958   */\n      dup2\n        /* \"#utility.yul\":17950:17970   */\n      sub\n        /* \"#utility.yul\":17946:17947   */\n      0x00\n        /* \"#utility.yul\":17935:17944   */\n      dup4\n        /* \"#utility.yul\":17931:17948   */\n      add\n        /* \"#utility.yul\":17924:17971   */\n      mstore\n        /* \"#utility.yul\":17988:18119   */\n      tag_356\n        /* \"#utility.yul\":18114:18118   */\n      dup2\n        /* \"#utility.yul\":17988:18119   */\n      tag_172\n      jump\t// in\n    tag_356:\n        /* \"#utility.yul\":17980:18119   */\n      swap1\n      pop\n        /* \"#utility.yul\":17707:18126   */\n      swap2\n      swap1\n      pop\n      jump\t// out\n        /* \"#utility.yul\":18132:18365   */\n    tag_95:\n        /* \"#utility.yul\":18171:18174   */\n      0x00\n        /* \"#utility.yul\":18194:18218   */\n      tag_358\n        /* \"#utility.yul\":18212:18217   */\n      dup3\n        /* \"#utility.yul\":18194:18218   */\n      tag_130\n      jump\t// in\n    tag_358:\n        /* \"#utility.yul\":18185:18218   */\n      swap2\n      pop\n        /* \"#utility.yul\":18240:18306   */\n      0xffffffffffffffffffffffffffffffffffffffffffffffffffffffffffffffff\n        /* \"#utility.yul\":18233:18238   */\n      dup3\n        /* \"#utility.yul\":18230:18307   */\n      sub\n        /* \"#utility.yul\":18227:18330   */\n      tag_359\n      jumpi\n        /* \"#utility.yul\":18310:18328   */\n      tag_360\n      tag_170\n      jump\t// in\n    tag_360:\n        /* \"#utility.yul\":18227:18330   */\n    tag_359:\n        /* \"#utility.yul\":18357:18358   */\n      0x01\n        /* \"#utility.yul\":18350:18355   */\n      dup3\n        /* \"#utility.yul\":18346:18359   */\n      add\n        /* \"#utility.yul\":18339:18359   */\n      swap1\n      pop\n        /* \"#utility.yul\":18132:18365   */\n      swap2\n      swap1\n      pop\n      jump\t// out\n        /* \"#utility.yul\":18371:18543   */\n    tag_173:\n        /* \"#utility.yul\":18511:18535   */\n      0x547765657420697320746f6f206c6f6e672062726f2100000000000000000000\n        /* \"#utility.yul\":18507:18508   */\n      0x00\n        /* \"#utility.yul\":18499:18505   */\n      dup3\n        /* \"#utility.yul\":18495:18509   */\n      add\n        /* \"#utility.yul\":18488:18536   */\n      mstore\n        /* \"#utility.yul\":18371:18543   */\n      pop\n      jump\t// out\n        /* \"#utility.yul\":18549:18915   */\n    tag_174:\n        /* \"#utility.yul\":18691:18694   */\n      0x00\n        /* \"#utility.yul\":18712:18779   */\n      tag_363\n        /* \"#utility.yul\":18776:18778   */\n      0x16\n        /* \"#utility.yul\":18771:18774   */\n      dup4\n        /* \"#utility.yul\":18712:18779   */\n      tag_136\n      jump\t// in\n    tag_363:\n        /* \"#utility.yul\":18705:18779   */\n      swap2\n      pop\n        /* \"#utility.yul\":18788:18881   */\n      tag_364\n        /* \"#utility.yul\":18877:18880   */\n      dup3\n        /* \"#utility.yul\":18788:18881   */\n      tag_173\n      jump\t// in\n    tag_364:\n        /* \"#utility.yul\":18906:18908   */\n      0x20\n        /* \"#utility.yul\":18901:18904   */\n      dup3\n        /* \"#utility.yul\":18897:18909   */\n      add\n        /* \"#utility.yul\":18890:18909   */\n      swap1\n      pop\n        /* \"#utility.yul\":18549:18915   */\n      swap2\n      swap1\n      pop\n      jump\t// out\n        /* \"#utility.yul\":18921:19340   */\n    tag_99:\n        /* \"#utility.yul\":19087:19091   */\n      0x00\n        /* \"#utility.yul\":19125:19127   */\n      0x20\n        /* \"#utility.yul\":19114:19123   */\n      dup3\n        /* \"#utility.yul\":19110:19128   */\n      add\n        /* \"#utility.yul\":19102:19128   */\n      swap1\n      pop\n        /* \"#utility.yul\":19174:19183   */\n      dup2\n        /* \"#utility.yul\":19168:19172   */\n      dup2\n        /* \"#utility.yul\":19164:19184   */\n      sub\n        /* \"#utility.yul\":19160:19161   */\n      0x00\n        /* \"#utility.yul\":19149:19158   */\n      dup4\n        /* \"#utility.yul\":19145:19162   */\n      add\n        /* \"#utility.yul\":19138:19185   */\n      mstore\n        /* \"#utility.yul\":19202:19333   */\n      tag_366\n        /* \"#utility.yul\":19328:19332   */\n      dup2\n        /* \"#utility.yul\":19202:19333   */\n      tag_174\n      jump\t// in\n    tag_366:\n        /* \"#utility.yul\":19194:19333   */\n      swap1\n      pop\n        /* \"#utility.yul\":18921:19340   */\n      swap2\n      swap1\n      pop\n      jump\t// out\n        /* \"#utility.yul\":19346:19487   */\n    tag_175:\n        /* \"#utility.yul\":19395:19399   */\n      0x00\n        /* \"#utility.yul\":19418:19421   */\n      dup2\n        /* \"#utility.yul\":19410:19421   */\n      swap1\n      pop\n        /* \"#utility.yul\":19441:19444   */\n      dup2\n        /* \"#utility.yul\":19438:19439   */\n      0x00\n        /* \"#utility.yul\":19431:19445   */\n      mstore\n        /* \"#utility.yul\":19475:19479   */\n      0x20\n        /* \"#utility.yul\":19472:19473   */\n      0x00\n        /* \"#utility.yul\":19462:19480   */\n      keccak256\n        /* \"#utility.yul\":19454:19480   */\n      swap1\n      pop\n        /* \"#utility.yul\":19346:19487   */\n      swap2\n      swap1\n      pop\n      jump\t// out\n        /* \"#utility.yul\":19493:19586   */\n    tag_176:\n        /* \"#utility.yul\":19530:19536   */\n      0x00\n        /* \"#utility.yul\":19577:19579   */\n      0x20\n        /* \"#utility.yul\":19572:19574   */\n      0x1f\n        /* \"#utility.yul\":19565:19570   */\n      dup4\n        /* \"#utility.yul\":19561:19575   */\n      add\n        /* \"#utility.yul\":19557:19580   */\n      div\n        /* \"#utility.yul\":19547:19580   */\n      swap1\n      pop\n        /* \"#utility.yul\":19493:19586   */\n      swap2\n      swap1\n      pop\n      jump\t// out\n        /* \"#utility.yul\":19592:19699   */\n    tag_177:\n        /* \"#utility.yul\":19636:19644   */\n      0x00\n        /* \"#utility.yul\":19686:19691   */\n      dup3\n        /* \"#utility.yul\":19680:19684   */\n      dup3\n        /* \"#utility.yul\":19676:19692   */\n      shl\n        /* \"#utility.yul\":19655:19692   */\n      swap1\n      pop\n        /* \"#utility.yul\":19592:19699   */\n      swap3\n      swap2\n      pop\n      pop\n      jump\t// out\n        /* \"#utility.yul\":19705:20098   */\n    tag_178:\n        /* \"#utility.yul\":19774:19780   */\n      0x00\n        /* \"#utility.yul\":19824:19825   */\n      0x08\n        /* \"#utility.yul\":19812:19822   */\n      dup4\n        /* \"#utility.yul\":19808:19826   */\n      mul\n        /* \"#utility.yul\":19847:19944   */\n      tag_371\n        /* \"#utility.yul\":19877:19943   */\n      0xffffffffffffffffffffffffffffffffffffffffffffffffffffffffffffffff\n        /* \"#utility.yul\":19866:19875   */\n      dup3\n        /* \"#utility.yul\":19847:19944   */\n      tag_177\n      jump\t// in\n    tag_371:\n        /* \"#utility.yul\":19965:20004   */\n      tag_372\n        /* \"#utility.yul\":19995:20003   */\n      dup7\n        /* \"#utility.yul\":19984:19993   */\n      dup4\n        /* \"#utility.yul\":19965:20004   */\n      tag_177\n      jump\t// in\n    tag_372:\n        /* \"#utility.yul\":19953:20004   */\n      swap6\n      pop\n        /* \"#utility.yul\":20037:20041   */\n      dup1\n        /* \"#utility.yul\":20033:20042   */\n      not\n        /* \"#utility.yul\":20026:20031   */\n      dup5\n        /* \"#utility.yul\":20022:20043   */\n      and\n        /* \"#utility.yul\":20013:20043   */\n      swap4\n      pop\n        /* \"#utility.yul\":20086:20090   */\n      dup1\n        /* \"#utility.yul\":20076:20084   */\n      dup7\n        /* \"#utility.yul\":20072:20091   */\n      and\n        /* \"#utility.yul\":20065:20070   */\n      dup5\n        /* \"#utility.yul\":20062:20092   */\n      or\n        /* \"#utility.yul\":20052:20092   */\n      swap3\n      pop\n        /* \"#utility.yul\":19781:20098   */\n      pop\n      pop\n        /* \"#utility.yul\":19705:20098   */\n      swap4\n      swap3\n      pop\n      pop\n      pop\n      jump\t// out\n        /* \"#utility.yul\":20104:20164   */\n    tag_179:\n        /* \"#utility.yul\":20132:20135   */\n      0x00\n        /* \"#utility.yul\":20153:20158   */\n      dup2\n        /* \"#utility.yul\":20146:20158   */\n      swap1\n      pop\n        /* \"#utility.yul\":20104:20164   */\n      swap2\n      swap1\n      pop\n      jump\t// out\n        /* \"#utility.yul\":20170:20312   */\n    tag_180:\n        /* \"#utility.yul\":20220:20229   */\n      0x00\n        /* \"#utility.yul\":20253:20306   */\n      tag_375\n        /* \"#utility.yul\":20271:20305   */\n      tag_376\n        /* \"#utility.yul\":20280:20304   */\n      tag_377\n        /* \"#utility.yul\":20298:20303   */\n      dup5\n        /* \"#utility.yul\":20280:20304   */\n      tag_130\n      jump\t// in\n    tag_377:\n        /* \"#utility.yul\":20271:20305   */\n      tag_179\n      jump\t// in\n    tag_376:\n        /* \"#utility.yul\":20253:20306   */\n      tag_130\n      jump\t// in\n    tag_375:\n        /* \"#utility.yul\":20240:20306   */\n      swap1\n      pop\n        /* \"#utility.yul\":20170:20312   */\n      swap2\n      swap1\n      pop\n      jump\t// out\n        /* \"#utility.yul\":20318:20393   */\n    tag_181:\n        /* \"#utility.yul\":20361:20364   */\n      0x00\n        /* \"#utility.yul\":20382:20387   */\n      dup2\n        /* \"#utility.yul\":20375:20387   */\n      swap1\n      pop\n        /* \"#utility.yul\":20318:20393   */\n      swap2\n      swap1\n      pop\n      jump\t// out\n        /* \"#utility.yul\":20399:20668   */\n    tag_182:\n        /* \"#utility.yul\":20509:20548   */\n      tag_380\n        /* \"#utility.yul\":20540:20547   */\n      dup4\n        /* \"#utility.yul\":20509:20548   */\n      tag_180\n      jump\t// in\n    tag_380:\n        /* \"#utility.yul\":20570:20661   */\n      tag_381\n        /* \"#utility.yul\":20619:20660   */\n      tag_382\n        /* \"#utility.yul\":20643:20659   */\n      dup3\n        /* \"#utility.yul\":20619:20660   */\n      tag_181\n      jump\t// in\n    tag_382:\n        /* \"#utility.yul\":20611:20617   */\n      dup5\n        /* \"#utility.yul\":20604:20608   */\n      dup5\n        /* \"#utility.yul\":20598:20609   */\n      sload\n        /* \"#utility.yul\":20570:20661   */\n      tag_178\n      jump\t// in\n    tag_381:\n        /* \"#utility.yul\":20564:20568   */\n      dup3\n        /* \"#utility.yul\":20557:20662   */\n      sstore\n        /* \"#utility.yul\":20475:20668   */\n      pop\n        /* \"#utility.yul\":20399:20668   */\n      pop\n      pop\n      pop\n      jump\t// out\n        /* \"#utility.yul\":20674:20747   */\n    tag_183:\n        /* \"#utility.yul\":20719:20722   */\n      0x00\n        /* \"#utility.yul\":20740:20741   */\n      0x00\n        /* \"#utility.yul\":20733:20741   */\n      swap1\n      pop\n        /* \"#utility.yul\":20674:20747   */\n      swap1\n      jump\t// out\n        /* \"#utility.yul\":20753:20942   */\n    tag_184:\n        /* \"#utility.yul\":20830:20862   */\n      tag_385\n      tag_183\n      jump\t// in\n    tag_385:\n        /* \"#utility.yul\":20871:20936   */\n      tag_386\n        /* \"#utility.yul\":20929:20935   */\n      dup2\n        /* \"#utility.yul\":20921:20927   */\n      dup5\n        /* \"#utility.yul\":20915:20919   */\n      dup5\n        /* \"#utility.yul\":20871:20936   */\n      tag_182\n      jump\t// in\n    tag_386:\n        /* \"#utility.yul\":20806:20942   */\n      pop\n        /* \"#utility.yul\":20753:20942   */\n      pop\n      pop\n      jump\t// out\n        /* \"#utility.yul\":20948:21162   */\n    tag_185:\n        /* \"#utility.yul\":21033:21034   */\n      0x00\n        /* \"#utility.yul\":21018:21156   */\n    tag_388:\n        /* \"#utility.yul\":21043:21052   */\n      dup3\n        /* \"#utility.yul\":21040:21041   */\n      dup2\n        /* \"#utility.yul\":21037:21053   */\n      lt\n        /* \"#utility.yul\":21018:21156   */\n      iszero\n      tag_390\n      jumpi\n        /* \"#utility.yul\":21095:21146   */\n      tag_391\n        /* \"#utility.yul\":21144:21145   */\n      0x00\n        /* \"#utility.yul\":21140:21141   */\n      dup3\n        /* \"#utility.yul\":21129:21138   */\n      dup5\n        /* \"#utility.yul\":21125:21142   */\n      add\n        /* \"#utility.yul\":21095:21146   */\n      tag_184\n      jump\t// in\n    tag_391:\n        /* \"#utility.yul\":21068:21069   */\n      0x01\n        /* \"#utility.yul\":21065:21066   */\n      dup2\n        /* \"#utility.yul\":21061:21070   */\n      add\n        /* \"#utility.yul\":21056:21070   */\n      swap1\n      pop\n        /* \"#utility.yul\":21018:21156   */\n      jump(tag_388)\n    tag_390:\n        /* \"#utility.yul\":21022:21036   */\n      pop\n        /* \"#utility.yul\":20948:21162   */\n      pop\n      pop\n      jump\t// out\n        /* \"#utility.yul\":21168:21914   */\n    tag_186:\n        /* \"#utility.yul\":21269:21271   */\n      0x1f\n        /* \"#utility.yul\":21264:21267   */\n      dup3\n        /* \"#utility.yul\":21261:21272   */\n      gt\n        /* \"#utility.yul\":21258:21907   */\n      iszero\n      tag_393\n      jumpi\n        /* \"#utility.yul\":21298:21308   */\n      dup3\n        /* \"#utility.yul\":21293:21296   */\n      dup3\n        /* \"#utility.yul\":21290:21309   */\n      gt\n        /* \"#utility.yul\":21287:21897   */\n      iszero\n      tag_394\n      jumpi\n        /* \"#utility.yul\":21344:21382   */\n      tag_395\n        /* \"#utility.yul\":21376:21381   */\n      dup2\n        /* \"#utility.yul\":21344:21382   */\n      tag_175\n      jump\t// in\n    tag_395:\n        /* \"#utility.yul\":21419:21441   */\n      tag_396\n        /* \"#utility.yul\":21437:21440   */\n      dup4\n        /* \"#utility.yul\":21419:21441   */\n      tag_176\n      jump\t// in\n    tag_396:\n        /* \"#utility.yul\":21478:21507   */\n      tag_397\n        /* \"#utility.yul\":21496:21506   */\n      dup6\n        /* \"#utility.yul\":21478:21507   */\n      tag_176\n      jump\t// in\n    tag_397:\n        /* \"#utility.yul\":21668:21670   */\n      0x20\n        /* \"#utility.yul\":21656:21666   */\n      dup7\n        /* \"#utility.yul\":21653:21671   */\n      lt\n        /* \"#utility.yul\":21650:21729   */\n      iszero\n      tag_398\n      jumpi\n        /* \"#utility.yul\":21710:21711   */\n      0x00\n        /* \"#utility.yul\":21694:21711   */\n      swap1\n      pop\n        /* \"#utility.yul\":21650:21729   */\n    tag_398:\n        /* \"#utility.yul\":21779:21791   */\n      dup1\n        /* \"#utility.yul\":21769:21777   */\n      dup4\n        /* \"#utility.yul\":21765:21792   */\n      add\n        /* \"#utility.yul\":21809:21883   */\n      tag_399\n        /* \"#utility.yul\":21869:21881   */\n      dup3\n        /* \"#utility.yul\":21855:21867   */\n      dup5\n        /* \"#utility.yul\":21851:21882   */\n      sub\n        /* \"#utility.yul\":21838:21849   */\n      dup3\n        /* \"#utility.yul\":21809:21883   */\n      tag_185\n      jump\t// in\n    tag_399:\n        /* \"#utility.yul\":21310:21897   */\n      pop\n      pop\n      pop\n      pop\n        /* \"#utility.yul\":21287:21897   */\n    tag_394:\n        /* \"#utility.yul\":21258:21907   */\n    tag_393:\n        /* \"#utility.yul\":21168:21914   */\n      pop\n      pop\n      pop\n      jump\t// out\n        /* \"#utility.yul\":21920:22037   */\n    tag_187:\n        /* \"#utility.yul\":21974:21982   */\n      0x00\n        /* \"#utility.yul\":22024:22029   */\n      dup3\n        /* \"#utility.yul\":22018:22022   */\n      dup3\n        /* \"#utility.yul\":22014:22030   */\n      shr\n        /* \"#utility.yul\":21993:22030   */\n      swap1\n      pop\n        /* \"#utility.yul\":21920:22037   */\n      swap3\n      swap2\n      pop\n      pop\n      jump\t// out\n        /* \"#utility.yul\":22043:22212   */\n    tag_188:\n        /* \"#utility.yul\":22087:22093   */\n      0x00\n        /* \"#utility.yul\":22120:22171   */\n      tag_402\n        /* \"#utility.yul\":22168:22169   */\n      0x00\n        /* \"#utility.yul\":22164:22170   */\n      not\n        /* \"#utility.yul\":22156:22161   */\n      dup5\n        /* \"#utility.yul\":22153:22154   */\n      0x08\n        /* \"#utility.yul\":22149:22162   */\n      mul\n        /* \"#utility.yul\":22120:22171   */\n      tag_187\n      jump\t// in\n    tag_402:\n        /* \"#utility.yul\":22116:22172   */\n      not\n        /* \"#utility.yul\":22201:22205   */\n      dup1\n        /* \"#utility.yul\":22195:22199   */\n      dup4\n        /* \"#utility.yul\":22191:22206   */\n      and\n        /* \"#utility.yul\":22181:22206   */\n      swap2\n      pop\n        /* \"#utility.yul\":22094:22212   */\n      pop\n        /* \"#utility.yul\":22043:22212   */\n      swap3\n      swap2\n      pop\n      pop\n      jump\t// out\n        /* \"#utility.yul\":22217:22512   */\n    tag_189:\n        /* \"#utility.yul\":22293:22297   */\n      0x00\n        /* \"#utility.yul\":22439:22468   */\n      tag_404\n        /* \"#utility.yul\":22464:22467   */\n      dup4\n        /* \"#utility.yul\":22458:22462   */\n      dup4\n        /* \"#utility.yul\":22439:22468   */\n      tag_188\n      jump\t// in\n    tag_404:\n        /* \"#utility.yul\":22431:22468   */\n      swap2\n      pop\n        /* \"#utility.yul\":22501:22504   */\n      dup3\n        /* \"#utility.yul\":22498:22499   */\n      0x02\n        /* \"#utility.yul\":22494:22505   */\n      mul\n        /* \"#utility.yul\":22488:22492   */\n      dup3\n        /* \"#utility.yul\":22485:22506   */\n      or\n        /* \"#utility.yul\":22477:22506   */\n      swap1\n      pop\n        /* \"#utility.yul\":22217:22512   */\n      swap3\n      swap2\n      pop\n      pop\n      jump\t// out\n        /* \"#utility.yul\":22517:23912   */\n    tag_102:\n        /* \"#utility.yul\":22634:22671   */\n      tag_406\n        /* \"#utility.yul\":22667:22670   */\n      dup3\n        /* \"#utility.yul\":22634:22671   */\n      tag_135\n      jump\t// in\n    tag_406:\n        /* \"#utility.yul\":22736:22754   */\n      0xffffffffffffffff\n        /* \"#utility.yul\":22728:22734   */\n      dup2\n        /* \"#utility.yul\":22725:22755   */\n      gt\n        /* \"#utility.yul\":22722:22778   */\n      iszero\n      tag_407\n      jumpi\n        /* \"#utility.yul\":22758:22776   */\n      tag_408\n      tag_145\n      jump\t// in\n    tag_408:\n        /* \"#utility.yul\":22722:22778   */\n    tag_407:\n        /* \"#utility.yul\":22802:22840   */\n      tag_409\n        /* \"#utility.yul\":22834:22838   */\n      dup3\n        /* \"#utility.yul\":22828:22839   */\n      sload\n        /* \"#utility.yul\":22802:22840   */\n      tag_56\n      jump\t// in\n    tag_409:\n        /* \"#utility.yul\":22887:22954   */\n      tag_410\n        /* \"#utility.yul\":22947:22953   */\n      dup3\n        /* \"#utility.yul\":22939:22945   */\n      dup3\n        /* \"#utility.yul\":22933:22937   */\n      dup6\n        /* \"#utility.yul\":22887:22954   */\n      tag_186\n      jump\t// in\n    tag_410:\n        /* \"#utility.yul\":22981:22982   */\n      0x00\n        /* \"#utility.yul\":23005:23009   */\n      0x20\n        /* \"#utility.yul\":22992:23009   */\n      swap1\n      pop\n        /* \"#utility.yul\":23037:23039   */\n      0x1f\n        /* \"#utility.yul\":23029:23035   */\n      dup4\n        /* \"#utility.yul\":23026:23040   */\n      gt\n        /* \"#utility.yul\":23054:23055   */\n      0x01\n        /* \"#utility.yul\":23049:23667   */\n      dup2\n      eq\n      tag_412\n      jumpi\n        /* \"#utility.yul\":23711:23712   */\n      0x00\n        /* \"#utility.yul\":23728:23734   */\n      dup5\n        /* \"#utility.yul\":23725:23802   */\n      iszero\n      tag_413\n      jumpi\n        /* \"#utility.yul\":23777:23786   */\n      dup3\n        /* \"#utility.yul\":23772:23775   */\n      dup8\n        /* \"#utility.yul\":23768:23787   */\n      add\n        /* \"#utility.yul\":23762:23788   */\n      mload\n        /* \"#utility.yul\":23753:23788   */\n      swap1\n      pop\n        /* \"#utility.yul\":23725:23802   */\n    tag_413:\n        /* \"#utility.yul\":23828:23895   */\n      tag_414\n        /* \"#utility.yul\":23888:23894   */\n      dup6\n        /* \"#utility.yul\":23881:23886   */\n      dup3\n        /* \"#utility.yul\":23828:23895   */\n      tag_189\n      jump\t// in\n    tag_414:\n        /* \"#utility.yul\":23822:23826   */\n      dup7\n        /* \"#utility.yul\":23815:23896   */\n      sstore\n        /* \"#utility.yul\":23684:23906   */\n      pop\n        /* \"#utility.yul\":23019:23906   */\n      jump(tag_411)\n        /* \"#utility.yul\":23049:23667   */\n    tag_412:\n        /* \"#utility.yul\":23101:23105   */\n      0x1f\n        /* \"#utility.yul\":23097:23106   */\n      not\n        /* \"#utility.yul\":23089:23095   */\n      dup5\n        /* \"#utility.yul\":23085:23107   */\n      and\n        /* \"#utility.yul\":23135:23172   */\n      tag_415\n        /* \"#utility.yul\":23167:23171   */\n      dup7\n        /* \"#utility.yul\":23135:23172   */\n      tag_175\n      jump\t// in\n    tag_415:\n        /* \"#utility.yul\":23194:23195   */\n      0x00\n        /* \"#utility.yul\":23208:23416   */\n    tag_416:\n        /* \"#utility.yul\":23222:23229   */\n      dup3\n        /* \"#utility.yul\":23219:23220   */\n      dup2\n        /* \"#utility.yul\":23216:23230   */\n      lt\n        /* \"#utility.yul\":23208:23416   */\n      iszero\n      tag_418\n      jumpi\n        /* \"#utility.yul\":23301:23310   */\n      dup5\n        /* \"#utility.yul\":23296:23299   */\n      dup10\n        /* \"#utility.yul\":23292:23311   */\n      add\n        /* \"#utility.yul\":23286:23312   */\n      mload\n        /* \"#utility.yul\":23278:23284   */\n      dup3\n        /* \"#utility.yul\":23271:23313   */\n      sstore\n        /* \"#utility.yul\":23352:23353   */\n      0x01\n        /* \"#utility.yul\":23344:23350   */\n      dup3\n        /* \"#utility.yul\":23340:23354   */\n      add\n        /* \"#utility.yul\":23330:23354   */\n      swap2\n      pop\n        /* \"#utility.yul\":23399:23401   */\n      0x20\n        /* \"#utility.yul\":23388:23397   */\n      dup6\n        /* \"#utility.yul\":23384:23402   */\n      add\n        /* \"#utility.yul\":23371:23402   */\n      swap5\n      pop\n        /* \"#utility.yul\":23245:23249   */\n      0x20\n        /* \"#utility.yul\":23242:23243   */\n      dup2\n        /* \"#utility.yul\":23238:23250   */\n      add\n        /* \"#utility.yul\":23233:23250   */\n      swap1\n      pop\n        /* \"#utility.yul\":23208:23416   */\n      jump(tag_416)\n    tag_418:\n        /* \"#utility.yul\":23444:23450   */\n      dup7\n        /* \"#utility.yul\":23435:23442   */\n      dup4\n        /* \"#utility.yul\":23432:23451   */\n      lt\n        /* \"#utility.yul\":23429:23608   */\n      iszero\n      tag_419\n      jumpi\n        /* \"#utility.yul\":23502:23511   */\n      dup5\n        /* \"#utility.yul\":23497:23500   */\n      dup10\n        /* \"#utility.yul\":23493:23512   */\n      add\n        /* \"#utility.yul\":23487:23513   */\n      mload\n        /* \"#utility.yul\":23545:23593   */\n      tag_420\n        /* \"#utility.yul\":23587:23591   */\n      0x1f\n        /* \"#utility.yul\":23579:23585   */\n      dup10\n        /* \"#utility.yul\":23575:23592   */\n      and\n        /* \"#utility.yul\":23564:23573   */\n      dup3\n        /* \"#utility.yul\":23545:23593   */\n      tag_188\n      jump\t// in\n    tag_420:\n        /* \"#utility.yul\":23537:23543   */\n      dup4\n        /* \"#utility.yul\":23530:23594   */\n      sstore\n        /* \"#utility.yul\":23452:23608   */\n      pop\n        /* \"#utility.yul\":23429:23608   */\n    tag_419:\n        /* \"#utility.yul\":23654:23655   */\n      0x01\n        /* \"#utility.yul\":23650:23651   */\n      0x02\n        /* \"#utility.yul\":23642:23648   */\n      dup9\n        /* \"#utility.yul\":23638:23652   */\n      mul\n        /* \"#utility.yul\":23634:23656   */\n      add\n        /* \"#utility.yul\":23628:23632   */\n      dup9\n        /* \"#utility.yul\":23621:23657   */\n      sstore\n        /* \"#utility.yul\":23056:23667   */\n      pop\n      pop\n      pop\n        /* \"#utility.yul\":23019:23906   */\n    tag_411:\n      pop\n        /* \"#utility.yul\":22609:23912   */\n      pop\n      pop\n      pop\n        /* \"#utility.yul\":22517:23912   */\n      pop\n      pop\n      jump\t// out\n\n    auxdata: 0xa264697066735822122038a1418844334b7a376b868287114db42ff336ab278f815fd1106ee1ffb6ce2d64736f6c63430008210033\n}\n",
				"bytecode": {
					"linkReferences": {},
					"object": "60806040526101185f5f6101000a81548161ffff021916908361ffff160217905550348015602b575f5ffd5b503360025f6101000a81548173ffffffffffffffffffffffffffffffffffffffff021916908373ffffffffffffffffffffffffffffffffffffffff160217905550611771806100795f395ff3fe608060405234801561000f575f5ffd5b5060043610610091575f3560e01c80637c9cd2bc116100645780637c9cd2bc1461011d5780638da5cb5b14610139578063b64988b814610157578063c3ad5ecb14610187578063cb886fa7146101b757610091565b806305a1b4a9146100955780633d9b569f146100c957806358bfa4ab146100e55780636337821614610101575b5f5ffd5b6100af60048036038101906100aa9190610c1f565b6101d5565b6040516100c0959493929190610ceb565b60405180910390f35b6100e360048036038101906100de9190610c1f565b6102c6565b005b6100ff60048036038101906100fa9190610d7a565b61047c565b005b61011b60048036038101906101169190610c1f565b610529565b005b61013760048036038101906101329190610ed1565b61063f565b005b6101416107f7565b60405161014e9190610f18565b60405180910390f35b610171600480360381019061016c9190610f31565b61081c565b60405161017e91906110f0565b60405180910390f35b6101a1600480360381019061019c9190611110565b6109b7565b6040516101ae91906111ae565b60405180910390f35b6101bf610b2e565b6040516101cc91906111dd565b60405180910390f35b6001602052815f5260405f2081815481106101ee575f80fd5b905f5260205f2090600502015f9150915050805f015490806001015f9054906101000a900473ffffffffffffffffffffffffffffffffffffffff169080600201805461023990611223565b80601f016020809104026020016040519081016040528092919081815260200182805461026590611223565b80156102b05780601f10610287576101008083540402835291602001916102b0565b820191905f5260205f20905b81548152906001019060200180831161029357829003601f168201915b5050505050908060030154908060040154905085565b8060015f8473ffffffffffffffffffffffffffffffffffffffff1673ffffffffffffffffffffffffffffffffffffffff1681526020019081526020015f20828154811061031657610315611253565b5b905f5260205f2090600502015f015414610365576040517f08c379a000000000000000000000000000000000000000000000000000000000815260040161035c906112ca565b60405180910390fd5b5f60015f8473ffffffffffffffffffffffffffffffffffffffff1673ffffffffffffffffffffffffffffffffffffffff1681526020019081526020015f2082815481106103b5576103b4611253565b5b905f5260205f2090600502016004015411610405576040517f08c379a00000000000000000000000000000000000000000000000000000000081526004016103fc90611332565b60405180910390fd5b60015f8373ffffffffffffffffffffffffffffffffffffffff1673ffffffffffffffffffffffffffffffffffffffff1681526020019081526020015f20818154811061045457610453611253565b5b905f5260205f2090600502016004015f8154809291906104739061137d565b91905055505050565b60025f9054906101000a900473ffffffffffffffffffffffffffffffffffffffff1673ffffffffffffffffffffffffffffffffffffffff163373ffffffffffffffffffffffffffffffffffffffff161461050b576040517f08c379a0000000000000000000000000000000000000000000000000000000008152600401610502906113ee565b60405180910390fd5b805f5f6101000a81548161ffff021916908361ffff16021790555050565b8060015f8473ffffffffffffffffffffffffffffffffffffffff1673ffffffffffffffffffffffffffffffffffffffff1681526020019081526020015f20828154811061057957610578611253565b5b905f5260205f2090600502015f0154146105c8576040517f08c379a00000000000000000000000000000000000000000000000000000000081526004016105bf906112ca565b60405180910390fd5b60015f8373ffffffffffffffffffffffffffffffffffffffff1673ffffffffffffffffffffffffffffffffffffffff1681526020019081526020015f20818154811061061757610616611253565b5b905f5260205f2090600502016004015f8154809291906106369061140c565b91905055505050565b5f5f9054906101000a900461ffff1661ffff1681511115610695576040517f08c379a000000000000000000000000000000000000000000000000000000000815260040161068c9061149d565b60405180910390fd5b5f6040518060a0016040528060015f3373ffffffffffffffffffffffffffffffffffffffff1673ffffffffffffffffffffffffffffffffffffffff1681526020019081526020015f208054905081526020013373ffffffffffffffffffffffffffffffffffffffff1681526020018381526020014281526020015f815250905060015f3373ffffffffffffffffffffffffffffffffffffffff1673ffffffffffffffffffffffffffffffffffffffff1681526020019081526020015f2081908060018154018082558091505060019003905f5260205f2090600502015f909190919091505f820151815f01556020820151816001015f6101000a81548173ffffffffffffffffffffffffffffffffffffffff021916908373ffffffffffffffffffffffffffffffffffffffff16021790555060408201518160020190816107dc919061166c565b50606082015181600301556080820151816004015550505050565b60025f9054906101000a900473ffffffffffffffffffffffffffffffffffffffff1681565b606060015f8373ffffffffffffffffffffffffffffffffffffffff1673ffffffffffffffffffffffffffffffffffffffff1681526020019081526020015f20805480602002602001604051908101604052809291908181526020015f905b828210156109ac578382905f5260205f2090600502016040518060a00160405290815f8201548152602001600182015f9054906101000a900473ffffffffffffffffffffffffffffffffffffffff1673ffffffffffffffffffffffffffffffffffffffff1673ffffffffffffffffffffffffffffffffffffffff16815260200160028201805461090990611223565b80601f016020809104026020016040519081016040528092919081815260200182805461093590611223565b80156109805780601f1061095757610100808354040283529160200191610980565b820191905f5260205f20905b81548152906001019060200180831161096357829003601f168201915b50505050508152602001600382015481526020016004820154815250508152602001906001019061087a565b505050509050919050565b6109bf610b40565b60015f3373ffffffffffffffffffffffffffffffffffffffff1673ffffffffffffffffffffffffffffffffffffffff1681526020019081526020015f208281548110610a0e57610a0d611253565b5b905f5260205f2090600502016040518060a00160405290815f8201548152602001600182015f9054906101000a900473ffffffffffffffffffffffffffffffffffffffff1673ffffffffffffffffffffffffffffffffffffffff1673ffffffffffffffffffffffffffffffffffffffff168152602001600282018054610a9390611223565b80601f0160208091040260200160405190810160405280929190818152602001828054610abf90611223565b8015610b0a5780601f10610ae157610100808354040283529160200191610b0a565b820191905f5260205f20905b815481529060010190602001808311610aed57829003601f168201915b50505050508152602001600382015481526020016004820154815250509050919050565b5f5f9054906101000a900461ffff1681565b6040518060a001604052805f81526020015f73ffffffffffffffffffffffffffffffffffffffff168152602001606081526020015f81526020015f81525090565b5f604051905090565b5f5ffd5b5f5ffd5b5f73ffffffffffffffffffffffffffffffffffffffff82169050919050565b5f610bbb82610b92565b9050919050565b610bcb81610bb1565b8114610bd5575f5ffd5b50565b5f81359050610be681610bc2565b92915050565b5f819050919050565b610bfe81610bec565b8114610c08575f5ffd5b50565b5f81359050610c1981610bf5565b92915050565b5f5f60408385031215610c3557610c34610b8a565b5b5f610c4285828601610bd8565b9250506020610c5385828601610c0b565b9150509250929050565b610c6681610bec565b82525050565b610c7581610bb1565b82525050565b5f81519050919050565b5f82825260208201905092915050565b8281835e5f83830152505050565b5f601f19601f8301169050919050565b5f610cbd82610c7b565b610cc78185610c85565b9350610cd7818560208601610c95565b610ce081610ca3565b840191505092915050565b5f60a082019050610cfe5f830188610c5d565b610d0b6020830187610c6c565b8181036040830152610d1d8186610cb3565b9050610d2c6060830185610c5d565b610d396080830184610c5d565b9695505050505050565b5f61ffff82169050919050565b610d5981610d43565b8114610d63575f5ffd5b50565b5f81359050610d7481610d50565b92915050565b5f60208284031215610d8f57610d8e610b8a565b5b5f610d9c84828501610d66565b91505092915050565b5f5ffd5b5f5ffd5b7f4e487b71000000000000000000000000000000000000000000000000000000005f52604160045260245ffd5b610de382610ca3565b810181811067ffffffffffffffff82111715610e0257610e01610dad565b5b80604052505050565b5f610e14610b81565b9050610e208282610dda565b919050565b5f67ffffffffffffffff821115610e3f57610e3e610dad565b5b610e4882610ca3565b9050602081019050919050565b828183375f83830152505050565b5f610e75610e7084610e25565b610e0b565b905082815260208101848484011115610e9157610e90610da9565b5b610e9c848285610e55565b509392505050565b5f82601f830112610eb857610eb7610da5565b5b8135610ec8848260208601610e63565b91505092915050565b5f60208284031215610ee657610ee5610b8a565b5b5f82013567ffffffffffffffff811115610f0357610f02610b8e565b5b610f0f84828501610ea4565b91505092915050565b5f602082019050610f2b5f830184610c6c565b92915050565b5f60208284031215610f4657610f45610b8a565b5b5f610f5384828501610bd8565b91505092915050565b5f81519050919050565b5f82825260208201905092915050565b5f819050602082019050919050565b610f8e81610bec565b82525050565b610f9d81610bb1565b82525050565b5f82825260208201905092915050565b5f610fbd82610c7b565b610fc78185610fa3565b9350610fd7818560208601610c95565b610fe081610ca3565b840191505092915050565b5f60a083015f8301516110005f860182610f85565b5060208301516110136020860182610f94565b506040830151848203604086015261102b8282610fb3565b91505060608301516110406060860182610f85565b5060808301516110536080860182610f85565b508091505092915050565b5f6110698383610feb565b905092915050565b5f602082019050919050565b5f61108782610f5c565b6110918185610f66565b9350836020820285016110a385610f76565b805f5b858110156110de57848403895281516110bf858261105e565b94506110ca83611071565b925060208a019950506001810190506110a6565b50829750879550505050505092915050565b5f6020820190508181035f830152611108818461107d565b905092915050565b5f6020828403121561112557611124610b8a565b5b5f61113284828501610c0b565b91505092915050565b5f60a083015f8301516111505f860182610f85565b5060208301516111636020860182610f94565b506040830151848203604086015261117b8282610fb3565b91505060608301516111906060860182610f85565b5060808301516111a36080860182610f85565b508091505092915050565b5f6020820190508181035f8301526111c6818461113b565b905092915050565b6111d781610d43565b82525050565b5f6020820190506111f05f8301846111ce565b92915050565b7f4e487b71000000000000000000000000000000000000000000000000000000005f52602260045260245ffd5b5f600282049050600182168061123a57607f821691505b60208210810361124d5761124c6111f6565b5b50919050565b7f4e487b71000000000000000000000000000000000000000000000000000000005f52603260045260245ffd5b7f545745455420444f4553204e4f542045584953540000000000000000000000005f82015250565b5f6112b4601483610c85565b91506112bf82611280565b602082019050919050565b5f6020820190508181035f8301526112e1816112a8565b9050919050565b7f545745455420484153204e4f204c494b450000000000000000000000000000005f82015250565b5f61131c601183610c85565b9150611327826112e8565b602082019050919050565b5f6020820190508181035f83015261134981611310565b9050919050565b7f4e487b71000000000000000000000000000000000000000000000000000000005f52601160045260245ffd5b5f61138782610bec565b91505f820361139957611398611350565b5b600182039050919050565b7f594f5520415245204e4f5420544845204f574e455200000000000000000000005f82015250565b5f6113d8601583610c85565b91506113e3826113a4565b602082019050919050565b5f6020820190508181035f830152611405816113cc565b9050919050565b5f61141682610bec565b91507fffffffffffffffffffffffffffffffffffffffffffffffffffffffffffffffff820361144857611447611350565b5b600182019050919050565b7f547765657420697320746f6f206c6f6e672062726f21000000000000000000005f82015250565b5f611487601683610c85565b915061149282611453565b602082019050919050565b5f6020820190508181035f8301526114b48161147b565b9050919050565b5f819050815f5260205f209050919050565b5f6020601f8301049050919050565b5f82821b905092915050565b5f600883026115177fffffffffffffffffffffffffffffffffffffffffffffffffffffffffffffffff826114dc565b61152186836114dc565b95508019841693508086168417925050509392505050565b5f819050919050565b5f61155c61155761155284610bec565b611539565b610bec565b9050919050565b5f819050919050565b61157583611542565b61158961158182611563565b8484546114e8565b825550505050565b5f5f905090565b6115a0611591565b6115ab81848461156c565b505050565b5f5b828110156115d1576115c65f828401611598565b6001810190506115b2565b505050565b601f8211156116245782821115611623576115f0816114bb565b6115f9836114cd565b611602856114cd565b602086101561160f575f90505b80830161161e828403826115b0565b505050505b5b505050565b5f82821c905092915050565b5f6116445f1984600802611629565b1980831691505092915050565b5f61165c8383611635565b9150826002028217905092915050565b61167582610c7b565b67ffffffffffffffff81111561168e5761168d610dad565b5b6116988254611223565b6116a38282856115d6565b5f60209050601f8311600181146116d4575f84156116c2578287015190505b6116cc8582611651565b865550611733565b601f1984166116e2866114bb565b5f5b82811015611709578489015182556001820191506020850194506020810190506116e4565b868310156117265784890151611722601f891682611635565b8355505b6001600288020188555050505b50505050505056fea264697066735822122038a1418844334b7a376b868287114db42ff336ab278f815fd1106ee1ffb6ce2d64736f6c63430008210033",
					"opcodes": "PUSH1 0x80 PUSH1 0x40 MSTORE PUSH2 0x118 PUSH0 PUSH0 PUSH2 0x100 EXP DUP2 SLOAD DUP2 PUSH2 0xFFFF MUL NOT AND SWAP1 DUP4 PUSH2 0xFFFF AND MUL OR SWAP1 SSTORE POP CALLVALUE DUP1 ISZERO PUSH1 0x2B JUMPI PUSH0 PUSH0 REVERT JUMPDEST POP CALLER PUSH1 0x2 PUSH0 PUSH2 0x100 EXP DUP2 SLOAD DUP2 PUSH20 0xFFFFFFFFFFFFFFFFFFFFFFFFFFFFFFFFFFFFFFFF MUL NOT AND SWAP1 DUP4 PUSH20 0xFFFFFFFFFFFFFFFFFFFFFFFFFFFFFFFFFFFFFFFF AND MUL OR SWAP1 SSTORE POP PUSH2 0x1771 DUP1 PUSH2 0x79 PUSH0 CODECOPY PUSH0 RETURN INVALID PUSH1 0x80 PUSH1 0x40 MSTORE CALLVALUE DUP1 ISZERO PUSH2 0xF JUMPI PUSH0 PUSH0 REVERT JUMPDEST POP PUSH1 0x4 CALLDATASIZE LT PUSH2 0x91 JUMPI PUSH0 CALLDATALOAD PUSH1 0xE0 SHR DUP1 PUSH4 0x7C9CD2BC GT PUSH2 0x64 JUMPI DUP1 PUSH4 0x7C9CD2BC EQ PUSH2 0x11D JUMPI DUP1 PUSH4 0x8DA5CB5B EQ PUSH2 0x139 JUMPI DUP1 PUSH4 0xB64988B8 EQ PUSH2 0x157 JUMPI DUP1 PUSH4 0xC3AD5ECB EQ PUSH2 0x187 JUMPI DUP1 PUSH4 0xCB886FA7 EQ PUSH2 0x1B7 JUMPI PUSH2 0x91 JUMP JUMPDEST DUP1 PUSH4 0x5A1B4A9 EQ PUSH2 0x95 JUMPI DUP1 PUSH4 0x3D9B569F EQ PUSH2 0xC9 JUMPI DUP1 PUSH4 0x58BFA4AB EQ PUSH2 0xE5 JUMPI DUP1 PUSH4 0x63378216 EQ PUSH2 0x101 JUMPI JUMPDEST PUSH0 PUSH0 REVERT JUMPDEST PUSH2 0xAF PUSH1 0x4 DUP1 CALLDATASIZE SUB DUP2 ADD SWAP1 PUSH2 0xAA SWAP2 SWAP1 PUSH2 0xC1F JUMP JUMPDEST PUSH2 0x1D5 JUMP JUMPDEST PUSH1 0x40 MLOAD PUSH2 0xC0 SWAP6 SWAP5 SWAP4 SWAP3 SWAP2 SWAP1 PUSH2 0xCEB JUMP JUMPDEST PUSH1 0x40 MLOAD DUP1 SWAP2 SUB SWAP1 RETURN JUMPDEST PUSH2 0xE3 PUSH1 0x4 DUP1 CALLDATASIZE SUB DUP2 ADD SWAP1 PUSH2 0xDE SWAP2 SWAP1 PUSH2 0xC1F JUMP JUMPDEST PUSH2 0x2C6 JUMP JUMPDEST STOP JUMPDEST PUSH2 0xFF PUSH1 0x4 DUP1 CALLDATASIZE SUB DUP2 ADD SWAP1 PUSH2 0xFA SWAP2 SWAP1 PUSH2 0xD7A JUMP JUMPDEST PUSH2 0x47C JUMP JUMPDEST STOP JUMPDEST PUSH2 0x11B PUSH1 0x4 DUP1 CALLDATASIZE SUB DUP2 ADD SWAP1 PUSH2 0x116 SWAP2 SWAP1 PUSH2 0xC1F JUMP JUMPDEST PUSH2 0x529 JUMP JUMPDEST STOP JUMPDEST PUSH2 0x137 PUSH1 0x4 DUP1 CALLDATASIZE SUB DUP2 ADD SWAP1 PUSH2 0x132 SWAP2 SWAP1 PUSH2 0xED1 JUMP JUMPDEST PUSH2 0x63F JUMP JUMPDEST STOP JUMPDEST PUSH2 0x141 PUSH2 0x7F7 JUMP JUMPDEST PUSH1 0x40 MLOAD PUSH2 0x14E SWAP2 SWAP1 PUSH2 0xF18 JUMP JUMPDEST PUSH1 0x40 MLOAD DUP1 SWAP2 SUB SWAP1 RETURN JUMPDEST PUSH2 0x171 PUSH1 0x4 DUP1 CALLDATASIZE SUB DUP2 ADD SWAP1 PUSH2 0x16C SWAP2 SWAP1 PUSH2 0xF31 JUMP JUMPDEST PUSH2 0x81C JUMP JUMPDEST PUSH1 0x40 MLOAD PUSH2 0x17E SWAP2 SWAP1 PUSH2 0x10F0 JUMP JUMPDEST PUSH1 0x40 MLOAD DUP1 SWAP2 SUB SWAP1 RETURN JUMPDEST PUSH2 0x1A1 PUSH1 0x4 DUP1 CALLDATASIZE SUB DUP2 ADD SWAP1 PUSH2 0x19C SWAP2 SWAP1 PUSH2 0x1110 JUMP JUMPDEST PUSH2 0x9B7 JUMP JUMPDEST PUSH1 0x40 MLOAD PUSH2 0x1AE SWAP2 SWAP1 PUSH2 0x11AE JUMP JUMPDEST PUSH1 0x40 MLOAD DUP1 SWAP2 SUB SWAP1 RETURN JUMPDEST PUSH2 0x1BF PUSH2 0xB2E JUMP JUMPDEST PUSH1 0x40 MLOAD PUSH2 0x1CC SWAP2 SWAP1 PUSH2 0x11DD JUMP JUMPDEST PUSH1 0x40 MLOAD DUP1 SWAP2 SUB SWAP1 RETURN JUMPDEST PUSH1 0x1 PUSH1 0x20 MSTORE DUP2 PUSH0 MSTORE PUSH1 0x40 PUSH0 KECCAK256 DUP2 DUP2 SLOAD DUP2 LT PUSH2 0x1EE JUMPI PUSH0 DUP1 REVERT JUMPDEST SWAP1 PUSH0 MSTORE PUSH1 0x20 PUSH0 KECCAK256 SWAP1 PUSH1 0x5 MUL ADD PUSH0 SWAP2 POP SWAP2 POP POP DUP1 PUSH0 ADD SLOAD SWAP1 DUP1 PUSH1 0x1 ADD PUSH0 SWAP1 SLOAD SWAP1 PUSH2 0x100 EXP SWAP1 DIV PUSH20 0xFFFFFFFFFFFFFFFFFFFFFFFFFFFFFFFFFFFFFFFF AND SWAP1 DUP1 PUSH1 0x2 ADD DUP1 SLOAD PUSH2 0x239 SWAP1 PUSH2 0x1223 JUMP JUMPDEST DUP1 PUSH1 0x1F ADD PUSH1 0x20 DUP1 SWAP2 DIV MUL PUSH1 0x20 ADD PUSH1 0x40 MLOAD SWAP1 DUP2 ADD PUSH1 0x40 MSTORE DUP1 SWAP3 SWAP2 SWAP1 DUP2 DUP2 MSTORE PUSH1 0x20 ADD DUP3 DUP1 SLOAD PUSH2 0x265 SWAP1 PUSH2 0x1223 JUMP JUMPDEST DUP1 ISZERO PUSH2 0x2B0 JUMPI DUP1 PUSH1 0x1F LT PUSH2 0x287 JUMPI PUSH2 0x100 DUP1 DUP4 SLOAD DIV MUL DUP4 MSTORE SWAP2 PUSH1 0x20 ADD SWAP2 PUSH2 0x2B0 JUMP JUMPDEST DUP3 ADD SWAP2 SWAP1 PUSH0 MSTORE PUSH1 0x20 PUSH0 KECCAK256 SWAP1 JUMPDEST DUP2 SLOAD DUP2 MSTORE SWAP1 PUSH1 0x1 ADD SWAP1 PUSH1 0x20 ADD DUP1 DUP4 GT PUSH2 0x293 JUMPI DUP3 SWAP1 SUB PUSH1 0x1F AND DUP3 ADD SWAP2 JUMPDEST POP POP POP POP POP SWAP1 DUP1 PUSH1 0x3 ADD SLOAD SWAP1 DUP1 PUSH1 0x4 ADD SLOAD SWAP1 POP DUP6 JUMP JUMPDEST DUP1 PUSH1 0x1 PUSH0 DUP5 PUSH20 0xFFFFFFFFFFFFFFFFFFFFFFFFFFFFFFFFFFFFFFFF AND PUSH20 0xFFFFFFFFFFFFFFFFFFFFFFFFFFFFFFFFFFFFFFFF AND DUP2 MSTORE PUSH1 0x20 ADD SWAP1 DUP2 MSTORE PUSH1 0x20 ADD PUSH0 KECCAK256 DUP3 DUP2 SLOAD DUP2 LT PUSH2 0x316 JUMPI PUSH2 0x315 PUSH2 0x1253 JUMP JUMPDEST JUMPDEST SWAP1 PUSH0 MSTORE PUSH1 0x20 PUSH0 KECCAK256 SWAP1 PUSH1 0x5 MUL ADD PUSH0 ADD SLOAD EQ PUSH2 0x365 JUMPI PUSH1 0x40 MLOAD PUSH32 0x8C379A000000000000000000000000000000000000000000000000000000000 DUP2 MSTORE PUSH1 0x4 ADD PUSH2 0x35C SWAP1 PUSH2 0x12CA JUMP JUMPDEST PUSH1 0x40 MLOAD DUP1 SWAP2 SUB SWAP1 REVERT JUMPDEST PUSH0 PUSH1 0x1 PUSH0 DUP5 PUSH20 0xFFFFFFFFFFFFFFFFFFFFFFFFFFFFFFFFFFFFFFFF AND PUSH20 0xFFFFFFFFFFFFFFFFFFFFFFFFFFFFFFFFFFFFFFFF AND DUP2 MSTORE PUSH1 0x20 ADD SWAP1 DUP2 MSTORE PUSH1 0x20 ADD PUSH0 KECCAK256 DUP3 DUP2 SLOAD DUP2 LT PUSH2 0x3B5 JUMPI PUSH2 0x3B4 PUSH2 0x1253 JUMP JUMPDEST JUMPDEST SWAP1 PUSH0 MSTORE PUSH1 0x20 PUSH0 KECCAK256 SWAP1 PUSH1 0x5 MUL ADD PUSH1 0x4 ADD SLOAD GT PUSH2 0x405 JUMPI PUSH1 0x40 MLOAD PUSH32 0x8C379A000000000000000000000000000000000000000000000000000000000 DUP2 MSTORE PUSH1 0x4 ADD PUSH2 0x3FC SWAP1 PUSH2 0x1332 JUMP JUMPDEST PUSH1 0x40 MLOAD DUP1 SWAP2 SUB SWAP1 REVERT JUMPDEST PUSH1 0x1 PUSH0 DUP4 PUSH20 0xFFFFFFFFFFFFFFFFFFFFFFFFFFFFFFFFFFFFFFFF AND PUSH20 0xFFFFFFFFFFFFFFFFFFFFFFFFFFFFFFFFFFFFFFFF AND DUP2 MSTORE PUSH1 0x20 ADD SWAP1 DUP2 MSTORE PUSH1 0x20 ADD PUSH0 KECCAK256 DUP2 DUP2 SLOAD DUP2 LT PUSH2 0x454 JUMPI PUSH2 0x453 PUSH2 0x1253 JUMP JUMPDEST JUMPDEST SWAP1 PUSH0 MSTORE PUSH1 0x20 PUSH0 KECCAK256 SWAP1 PUSH1 0x5 MUL ADD PUSH1 0x4 ADD PUSH0 DUP2 SLOAD DUP1 SWAP3 SWAP2 SWAP1 PUSH2 0x473 SWAP1 PUSH2 0x137D JUMP JUMPDEST SWAP2 SWAP1 POP SSTORE POP POP POP JUMP JUMPDEST PUSH1 0x2 PUSH0 SWAP1 SLOAD SWAP1 PUSH2 0x100 EXP SWAP1 DIV PUSH20 0xFFFFFFFFFFFFFFFFFFFFFFFFFFFFFFFFFFFFFFFF AND PUSH20 0xFFFFFFFFFFFFFFFFFFFFFFFFFFFFFFFFFFFFFFFF AND CALLER PUSH20 0xFFFFFFFFFFFFFFFFFFFFFFFFFFFFFFFFFFFFFFFF AND EQ PUSH2 0x50B JUMPI PUSH1 0x40 MLOAD PUSH32 0x8C379A000000000000000000000000000000000000000000000000000000000 DUP2 MSTORE PUSH1 0x4 ADD PUSH2 0x502 SWAP1 PUSH2 0x13EE JUMP JUMPDEST PUSH1 0x40 MLOAD DUP1 SWAP2 SUB SWAP1 REVERT JUMPDEST DUP1 PUSH0 PUSH0 PUSH2 0x100 EXP DUP2 SLOAD DUP2 PUSH2 0xFFFF MUL NOT AND SWAP1 DUP4 PUSH2 0xFFFF AND MUL OR SWAP1 SSTORE POP POP JUMP JUMPDEST DUP1 PUSH1 0x1 PUSH0 DUP5 PUSH20 0xFFFFFFFFFFFFFFFFFFFFFFFFFFFFFFFFFFFFFFFF AND PUSH20 0xFFFFFFFFFFFFFFFFFFFFFFFFFFFFFFFFFFFFFFFF AND DUP2 MSTORE PUSH1 0x20 ADD SWAP1 DUP2 MSTORE PUSH1 0x20 ADD PUSH0 KECCAK256 DUP3 DUP2 SLOAD DUP2 LT PUSH2 0x579 JUMPI PUSH2 0x578 PUSH2 0x1253 JUMP JUMPDEST JUMPDEST SWAP1 PUSH0 MSTORE PUSH1 0x20 PUSH0 KECCAK256 SWAP1 PUSH1 0x5 MUL ADD PUSH0 ADD SLOAD EQ PUSH2 0x5C8 JUMPI PUSH1 0x40 MLOAD PUSH32 0x8C379A000000000000000000000000000000000000000000000000000000000 DUP2 MSTORE PUSH1 0x4 ADD PUSH2 0x5BF SWAP1 PUSH2 0x12CA JUMP JUMPDEST PUSH1 0x40 MLOAD DUP1 SWAP2 SUB SWAP1 REVERT JUMPDEST PUSH1 0x1 PUSH0 DUP4 PUSH20 0xFFFFFFFFFFFFFFFFFFFFFFFFFFFFFFFFFFFFFFFF AND PUSH20 0xFFFFFFFFFFFFFFFFFFFFFFFFFFFFFFFFFFFFFFFF AND DUP2 MSTORE PUSH1 0x20 ADD SWAP1 DUP2 MSTORE PUSH1 0x20 ADD PUSH0 KECCAK256 DUP2 DUP2 SLOAD DUP2 LT PUSH2 0x617 JUMPI PUSH2 0x616 PUSH2 0x1253 JUMP JUMPDEST JUMPDEST SWAP1 PUSH0 MSTORE PUSH1 0x20 PUSH0 KECCAK256 SWAP1 PUSH1 0x5 MUL ADD PUSH1 0x4 ADD PUSH0 DUP2 SLOAD DUP1 SWAP3 SWAP2 SWAP1 PUSH2 0x636 SWAP1 PUSH2 0x140C JUMP JUMPDEST SWAP2 SWAP1 POP SSTORE POP POP POP JUMP JUMPDEST PUSH0 PUSH0 SWAP1 SLOAD SWAP1 PUSH2 0x100 EXP SWAP1 DIV PUSH2 0xFFFF AND PUSH2 0xFFFF AND DUP2 MLOAD GT ISZERO PUSH2 0x695 JUMPI PUSH1 0x40 MLOAD PUSH32 0x8C379A000000000000000000000000000000000000000000000000000000000 DUP2 MSTORE PUSH1 0x4 ADD PUSH2 0x68C SWAP1 PUSH2 0x149D JUMP JUMPDEST PUSH1 0x40 MLOAD DUP1 SWAP2 SUB SWAP1 REVERT JUMPDEST PUSH0 PUSH1 0x40 MLOAD DUP1 PUSH1 0xA0 ADD PUSH1 0x40 MSTORE DUP1 PUSH1 0x1 PUSH0 CALLER PUSH20 0xFFFFFFFFFFFFFFFFFFFFFFFFFFFFFFFFFFFFFFFF AND PUSH20 0xFFFFFFFFFFFFFFFFFFFFFFFFFFFFFFFFFFFFFFFF AND DUP2 MSTORE PUSH1 0x20 ADD SWAP1 DUP2 MSTORE PUSH1 0x20 ADD PUSH0 KECCAK256 DUP1 SLOAD SWAP1 POP DUP2 MSTORE PUSH1 0x20 ADD CALLER PUSH20 0xFFFFFFFFFFFFFFFFFFFFFFFFFFFFFFFFFFFFFFFF AND DUP2 MSTORE PUSH1 0x20 ADD DUP4 DUP2 MSTORE PUSH1 0x20 ADD TIMESTAMP DUP2 MSTORE PUSH1 0x20 ADD PUSH0 DUP2 MSTORE POP SWAP1 POP PUSH1 0x1 PUSH0 CALLER PUSH20 0xFFFFFFFFFFFFFFFFFFFFFFFFFFFFFFFFFFFFFFFF AND PUSH20 0xFFFFFFFFFFFFFFFFFFFFFFFFFFFFFFFFFFFFFFFF AND DUP2 MSTORE PUSH1 0x20 ADD SWAP1 DUP2 MSTORE PUSH1 0x20 ADD PUSH0 KECCAK256 DUP2 SWAP1 DUP1 PUSH1 0x1 DUP2 SLOAD ADD DUP1 DUP3 SSTORE DUP1 SWAP2 POP POP PUSH1 0x1 SWAP1 SUB SWAP1 PUSH0 MSTORE PUSH1 0x20 PUSH0 KECCAK256 SWAP1 PUSH1 0x5 MUL ADD PUSH0 SWAP1 SWAP2 SWAP1 SWAP2 SWAP1 SWAP2 POP PUSH0 DUP3 ADD MLOAD DUP2 PUSH0 ADD SSTORE PUSH1 0x20 DUP3 ADD MLOAD DUP2 PUSH1 0x1 ADD PUSH0 PUSH2 0x100 EXP DUP2 SLOAD DUP2 PUSH20 0xFFFFFFFFFFFFFFFFFFFFFFFFFFFFFFFFFFFFFFFF MUL NOT AND SWAP1 DUP4 PUSH20 0xFFFFFFFFFFFFFFFFFFFFFFFFFFFFFFFFFFFFFFFF AND MUL OR SWAP1 SSTORE POP PUSH1 0x40 DUP3 ADD MLOAD DUP2 PUSH1 0x2 ADD SWAP1 DUP2 PUSH2 0x7DC SWAP2 SWAP1 PUSH2 0x166C JUMP JUMPDEST POP PUSH1 0x60 DUP3 ADD MLOAD DUP2 PUSH1 0x3 ADD SSTORE PUSH1 0x80 DUP3 ADD MLOAD DUP2 PUSH1 0x4 ADD SSTORE POP POP POP POP JUMP JUMPDEST PUSH1 0x2 PUSH0 SWAP1 SLOAD SWAP1 PUSH2 0x100 EXP SWAP1 DIV PUSH20 0xFFFFFFFFFFFFFFFFFFFFFFFFFFFFFFFFFFFFFFFF AND DUP2 JUMP JUMPDEST PUSH1 0x60 PUSH1 0x1 PUSH0 DUP4 PUSH20 0xFFFFFFFFFFFFFFFFFFFFFFFFFFFFFFFFFFFFFFFF AND PUSH20 0xFFFFFFFFFFFFFFFFFFFFFFFFFFFFFFFFFFFFFFFF AND DUP2 MSTORE PUSH1 0x20 ADD SWAP1 DUP2 MSTORE PUSH1 0x20 ADD PUSH0 KECCAK256 DUP1 SLOAD DUP1 PUSH1 0x20 MUL PUSH1 0x20 ADD PUSH1 0x40 MLOAD SWAP1 DUP2 ADD PUSH1 0x40 MSTORE DUP1 SWAP3 SWAP2 SWAP1 DUP2 DUP2 MSTORE PUSH1 0x20 ADD PUSH0 SWAP1 JUMPDEST DUP3 DUP3 LT ISZERO PUSH2 0x9AC JUMPI DUP4 DUP3 SWAP1 PUSH0 MSTORE PUSH1 0x20 PUSH0 KECCAK256 SWAP1 PUSH1 0x5 MUL ADD PUSH1 0x40 MLOAD DUP1 PUSH1 0xA0 ADD PUSH1 0x40 MSTORE SWAP1 DUP2 PUSH0 DUP3 ADD SLOAD DUP2 MSTORE PUSH1 0x20 ADD PUSH1 0x1 DUP3 ADD PUSH0 SWAP1 SLOAD SWAP1 PUSH2 0x100 EXP SWAP1 DIV PUSH20 0xFFFFFFFFFFFFFFFFFFFFFFFFFFFFFFFFFFFFFFFF AND PUSH20 0xFFFFFFFFFFFFFFFFFFFFFFFFFFFFFFFFFFFFFFFF AND PUSH20 0xFFFFFFFFFFFFFFFFFFFFFFFFFFFFFFFFFFFFFFFF AND DUP2 MSTORE PUSH1 0x20 ADD PUSH1 0x2 DUP3 ADD DUP1 SLOAD PUSH2 0x909 SWAP1 PUSH2 0x1223 JUMP JUMPDEST DUP1 PUSH1 0x1F ADD PUSH1 0x20 DUP1 SWAP2 DIV MUL PUSH1 0x20 ADD PUSH1 0x40 MLOAD SWAP1 DUP2 ADD PUSH1 0x40 MSTORE DUP1 SWAP3 SWAP2 SWAP1 DUP2 DUP2 MSTORE PUSH1 0x20 ADD DUP3 DUP1 SLOAD PUSH2 0x935 SWAP1 PUSH2 0x1223 JUMP JUMPDEST DUP1 ISZERO PUSH2 0x980 JUMPI DUP1 PUSH1 0x1F LT PUSH2 0x957 JUMPI PUSH2 0x100 DUP1 DUP4 SLOAD DIV MUL DUP4 MSTORE SWAP2 PUSH1 0x20 ADD SWAP2 PUSH2 0x980 JUMP JUMPDEST DUP3 ADD SWAP2 SWAP1 PUSH0 MSTORE PUSH1 0x20 PUSH0 KECCAK256 SWAP1 JUMPDEST DUP2 SLOAD DUP2 MSTORE SWAP1 PUSH1 0x1 ADD SWAP1 PUSH1 0x20 ADD DUP1 DUP4 GT PUSH2 0x963 JUMPI DUP3 SWAP1 SUB PUSH1 0x1F AND DUP3 ADD SWAP2 JUMPDEST POP POP POP POP POP DUP2 MSTORE PUSH1 0x20 ADD PUSH1 0x3 DUP3 ADD SLOAD DUP2 MSTORE PUSH1 0x20 ADD PUSH1 0x4 DUP3 ADD SLOAD DUP2 MSTORE POP POP DUP2 MSTORE PUSH1 0x20 ADD SWAP1 PUSH1 0x1 ADD SWAP1 PUSH2 0x87A JUMP JUMPDEST POP POP POP POP SWAP1 POP SWAP2 SWAP1 POP JUMP JUMPDEST PUSH2 0x9BF PUSH2 0xB40 JUMP JUMPDEST PUSH1 0x1 PUSH0 CALLER PUSH20 0xFFFFFFFFFFFFFFFFFFFFFFFFFFFFFFFFFFFFFFFF AND PUSH20 0xFFFFFFFFFFFFFFFFFFFFFFFFFFFFFFFFFFFFFFFF AND DUP2 MSTORE PUSH1 0x20 ADD SWAP1 DUP2 MSTORE PUSH1 0x20 ADD PUSH0 KECCAK256 DUP3 DUP2 SLOAD DUP2 LT PUSH2 0xA0E JUMPI PUSH2 0xA0D PUSH2 0x1253 JUMP JUMPDEST JUMPDEST SWAP1 PUSH0 MSTORE PUSH1 0x20 PUSH0 KECCAK256 SWAP1 PUSH1 0x5 MUL ADD PUSH1 0x40 MLOAD DUP1 PUSH1 0xA0 ADD PUSH1 0x40 MSTORE SWAP1 DUP2 PUSH0 DUP3 ADD SLOAD DUP2 MSTORE PUSH1 0x20 ADD PUSH1 0x1 DUP3 ADD PUSH0 SWAP1 SLOAD SWAP1 PUSH2 0x100 EXP SWAP1 DIV PUSH20 0xFFFFFFFFFFFFFFFFFFFFFFFFFFFFFFFFFFFFFFFF AND PUSH20 0xFFFFFFFFFFFFFFFFFFFFFFFFFFFFFFFFFFFFFFFF AND PUSH20 0xFFFFFFFFFFFFFFFFFFFFFFFFFFFFFFFFFFFFFFFF AND DUP2 MSTORE PUSH1 0x20 ADD PUSH1 0x2 DUP3 ADD DUP1 SLOAD PUSH2 0xA93 SWAP1 PUSH2 0x1223 JUMP JUMPDEST DUP1 PUSH1 0x1F ADD PUSH1 0x20 DUP1 SWAP2 DIV MUL PUSH1 0x20 ADD PUSH1 0x40 MLOAD SWAP1 DUP2 ADD PUSH1 0x40 MSTORE DUP1 SWAP3 SWAP2 SWAP1 DUP2 DUP2 MSTORE PUSH1 0x20 ADD DUP3 DUP1 SLOAD PUSH2 0xABF SWAP1 PUSH2 0x1223 JUMP JUMPDEST DUP1 ISZERO PUSH2 0xB0A JUMPI DUP1 PUSH1 0x1F LT PUSH2 0xAE1 JUMPI PUSH2 0x100 DUP1 DUP4 SLOAD DIV MUL DUP4 MSTORE SWAP2 PUSH1 0x20 ADD SWAP2 PUSH2 0xB0A JUMP JUMPDEST DUP3 ADD SWAP2 SWAP1 PUSH0 MSTORE PUSH1 0x20 PUSH0 KECCAK256 SWAP1 JUMPDEST DUP2 SLOAD DUP2 MSTORE SWAP1 PUSH1 0x1 ADD SWAP1 PUSH1 0x20 ADD DUP1 DUP4 GT PUSH2 0xAED JUMPI DUP3 SWAP1 SUB PUSH1 0x1F AND DUP3 ADD SWAP2 JUMPDEST POP POP POP POP POP DUP2 MSTORE PUSH1 0x20 ADD PUSH1 0x3 DUP3 ADD SLOAD DUP2 MSTORE PUSH1 0x20 ADD PUSH1 0x4 DUP3 ADD SLOAD DUP2 MSTORE POP POP SWAP1 POP SWAP2 SWAP1 POP JUMP JUMPDEST PUSH0 PUSH0 SWAP1 SLOAD SWAP1 PUSH2 0x100 EXP SWAP1 DIV PUSH2 0xFFFF AND DUP2 JUMP JUMPDEST PUSH1 0x40 MLOAD DUP1 PUSH1 0xA0 ADD PUSH1 0x40 MSTORE DUP1 PUSH0 DUP2 MSTORE PUSH1 0x20 ADD PUSH0 PUSH20 0xFFFFFFFFFFFFFFFFFFFFFFFFFFFFFFFFFFFFFFFF AND DUP2 MSTORE PUSH1 0x20 ADD PUSH1 0x60 DUP2 MSTORE PUSH1 0x20 ADD PUSH0 DUP2 MSTORE PUSH1 0x20 ADD PUSH0 DUP2 MSTORE POP SWAP1 JUMP JUMPDEST PUSH0 PUSH1 0x40 MLOAD SWAP1 POP SWAP1 JUMP JUMPDEST PUSH0 PUSH0 REVERT JUMPDEST PUSH0 PUSH0 REVERT JUMPDEST PUSH0 PUSH20 0xFFFFFFFFFFFFFFFFFFFFFFFFFFFFFFFFFFFFFFFF DUP3 AND SWAP1 POP SWAP2 SWAP1 POP JUMP JUMPDEST PUSH0 PUSH2 0xBBB DUP3 PUSH2 0xB92 JUMP JUMPDEST SWAP1 POP SWAP2 SWAP1 POP JUMP JUMPDEST PUSH2 0xBCB DUP2 PUSH2 0xBB1 JUMP JUMPDEST DUP2 EQ PUSH2 0xBD5 JUMPI PUSH0 PUSH0 REVERT JUMPDEST POP JUMP JUMPDEST PUSH0 DUP2 CALLDATALOAD SWAP1 POP PUSH2 0xBE6 DUP2 PUSH2 0xBC2 JUMP JUMPDEST SWAP3 SWAP2 POP POP JUMP JUMPDEST PUSH0 DUP2 SWAP1 POP SWAP2 SWAP1 POP JUMP JUMPDEST PUSH2 0xBFE DUP2 PUSH2 0xBEC JUMP JUMPDEST DUP2 EQ PUSH2 0xC08 JUMPI PUSH0 PUSH0 REVERT JUMPDEST POP JUMP JUMPDEST PUSH0 DUP2 CALLDATALOAD SWAP1 POP PUSH2 0xC19 DUP2 PUSH2 0xBF5 JUMP JUMPDEST SWAP3 SWAP2 POP POP JUMP JUMPDEST PUSH0 PUSH0 PUSH1 0x40 DUP4 DUP6 SUB SLT ISZERO PUSH2 0xC35 JUMPI PUSH2 0xC34 PUSH2 0xB8A JUMP JUMPDEST JUMPDEST PUSH0 PUSH2 0xC42 DUP6 DUP3 DUP7 ADD PUSH2 0xBD8 JUMP JUMPDEST SWAP3 POP POP PUSH1 0x20 PUSH2 0xC53 DUP6 DUP3 DUP7 ADD PUSH2 0xC0B JUMP JUMPDEST SWAP2 POP POP SWAP3 POP SWAP3 SWAP1 POP JUMP JUMPDEST PUSH2 0xC66 DUP2 PUSH2 0xBEC JUMP JUMPDEST DUP3 MSTORE POP POP JUMP JUMPDEST PUSH2 0xC75 DUP2 PUSH2 0xBB1 JUMP JUMPDEST DUP3 MSTORE POP POP JUMP JUMPDEST PUSH0 DUP2 MLOAD SWAP1 POP SWAP2 SWAP1 POP JUMP JUMPDEST PUSH0 DUP3 DUP3 MSTORE PUSH1 0x20 DUP3 ADD SWAP1 POP SWAP3 SWAP2 POP POP JUMP JUMPDEST DUP3 DUP2 DUP4 MCOPY PUSH0 DUP4 DUP4 ADD MSTORE POP POP POP JUMP JUMPDEST PUSH0 PUSH1 0x1F NOT PUSH1 0x1F DUP4 ADD AND SWAP1 POP SWAP2 SWAP1 POP JUMP JUMPDEST PUSH0 PUSH2 0xCBD DUP3 PUSH2 0xC7B JUMP JUMPDEST PUSH2 0xCC7 DUP2 DUP6 PUSH2 0xC85 JUMP JUMPDEST SWAP4 POP PUSH2 0xCD7 DUP2 DUP6 PUSH1 0x20 DUP7 ADD PUSH2 0xC95 JUMP JUMPDEST PUSH2 0xCE0 DUP2 PUSH2 0xCA3 JUMP JUMPDEST DUP5 ADD SWAP2 POP POP SWAP3 SWAP2 POP POP JUMP JUMPDEST PUSH0 PUSH1 0xA0 DUP3 ADD SWAP1 POP PUSH2 0xCFE PUSH0 DUP4 ADD DUP9 PUSH2 0xC5D JUMP JUMPDEST PUSH2 0xD0B PUSH1 0x20 DUP4 ADD DUP8 PUSH2 0xC6C JUMP JUMPDEST DUP2 DUP2 SUB PUSH1 0x40 DUP4 ADD MSTORE PUSH2 0xD1D DUP2 DUP7 PUSH2 0xCB3 JUMP JUMPDEST SWAP1 POP PUSH2 0xD2C PUSH1 0x60 DUP4 ADD DUP6 PUSH2 0xC5D JUMP JUMPDEST PUSH2 0xD39 PUSH1 0x80 DUP4 ADD DUP5 PUSH2 0xC5D JUMP JUMPDEST SWAP7 SWAP6 POP POP POP POP POP POP JUMP JUMPDEST PUSH0 PUSH2 0xFFFF DUP3 AND SWAP1 POP SWAP2 SWAP1 POP JUMP JUMPDEST PUSH2 0xD59 DUP2 PUSH2 0xD43 JUMP JUMPDEST DUP2 EQ PUSH2 0xD63 JUMPI PUSH0 PUSH0 REVERT JUMPDEST POP JUMP JUMPDEST PUSH0 DUP2 CALLDATALOAD SWAP1 POP PUSH2 0xD74 DUP2 PUSH2 0xD50 JUMP JUMPDEST SWAP3 SWAP2 POP POP JUMP JUMPDEST PUSH0 PUSH1 0x20 DUP3 DUP5 SUB SLT ISZERO PUSH2 0xD8F JUMPI PUSH2 0xD8E PUSH2 0xB8A JUMP JUMPDEST JUMPDEST PUSH0 PUSH2 0xD9C DUP5 DUP3 DUP6 ADD PUSH2 0xD66 JUMP JUMPDEST SWAP2 POP POP SWAP3 SWAP2 POP POP JUMP JUMPDEST PUSH0 PUSH0 REVERT JUMPDEST PUSH0 PUSH0 REVERT JUMPDEST PUSH32 0x4E487B7100000000000000000000000000000000000000000000000000000000 PUSH0 MSTORE PUSH1 0x41 PUSH1 0x4 MSTORE PUSH1 0x24 PUSH0 REVERT JUMPDEST PUSH2 0xDE3 DUP3 PUSH2 0xCA3 JUMP JUMPDEST DUP2 ADD DUP2 DUP2 LT PUSH8 0xFFFFFFFFFFFFFFFF DUP3 GT OR ISZERO PUSH2 0xE02 JUMPI PUSH2 0xE01 PUSH2 0xDAD JUMP JUMPDEST JUMPDEST DUP1 PUSH1 0x40 MSTORE POP POP POP JUMP JUMPDEST PUSH0 PUSH2 0xE14 PUSH2 0xB81 JUMP JUMPDEST SWAP1 POP PUSH2 0xE20 DUP3 DUP3 PUSH2 0xDDA JUMP JUMPDEST SWAP2 SWAP1 POP JUMP JUMPDEST PUSH0 PUSH8 0xFFFFFFFFFFFFFFFF DUP3 GT ISZERO PUSH2 0xE3F JUMPI PUSH2 0xE3E PUSH2 0xDAD JUMP JUMPDEST JUMPDEST PUSH2 0xE48 DUP3 PUSH2 0xCA3 JUMP JUMPDEST SWAP1 POP PUSH1 0x20 DUP2 ADD SWAP1 POP SWAP2 SWAP1 POP JUMP JUMPDEST DUP3 DUP2 DUP4 CALLDATACOPY PUSH0 DUP4 DUP4 ADD MSTORE POP POP POP JUMP JUMPDEST PUSH0 PUSH2 0xE75 PUSH2 0xE70 DUP5 PUSH2 0xE25 JUMP JUMPDEST PUSH2 0xE0B JUMP JUMPDEST SWAP1 POP DUP3 DUP2 MSTORE PUSH1 0x20 DUP2 ADD DUP5 DUP5 DUP5 ADD GT ISZERO PUSH2 0xE91 JUMPI PUSH2 0xE90 PUSH2 0xDA9 JUMP JUMPDEST JUMPDEST PUSH2 0xE9C DUP5 DUP3 DUP6 PUSH2 0xE55 JUMP JUMPDEST POP SWAP4 SWAP3 POP POP POP JUMP JUMPDEST PUSH0 DUP3 PUSH1 0x1F DUP4 ADD SLT PUSH2 0xEB8 JUMPI PUSH2 0xEB7 PUSH2 0xDA5 JUMP JUMPDEST JUMPDEST DUP2 CALLDATALOAD PUSH2 0xEC8 DUP5 DUP3 PUSH1 0x20 DUP7 ADD PUSH2 0xE63 JUMP JUMPDEST SWAP2 POP POP SWAP3 SWAP2 POP POP JUMP JUMPDEST PUSH0 PUSH1 0x20 DUP3 DUP5 SUB SLT ISZERO PUSH2 0xEE6 JUMPI PUSH2 0xEE5 PUSH2 0xB8A JUMP JUMPDEST JUMPDEST PUSH0 DUP3 ADD CALLDATALOAD PUSH8 0xFFFFFFFFFFFFFFFF DUP2 GT ISZERO PUSH2 0xF03 JUMPI PUSH2 0xF02 PUSH2 0xB8E JUMP JUMPDEST JUMPDEST PUSH2 0xF0F DUP5 DUP3 DUP6 ADD PUSH2 0xEA4 JUMP JUMPDEST SWAP2 POP POP SWAP3 SWAP2 POP POP JUMP JUMPDEST PUSH0 PUSH1 0x20 DUP3 ADD SWAP1 POP PUSH2 0xF2B PUSH0 DUP4 ADD DUP5 PUSH2 0xC6C JUMP JUMPDEST SWAP3 SWAP2 POP POP JUMP JUMPDEST PUSH0 PUSH1 0x20 DUP3 DUP5 SUB SLT ISZERO PUSH2 0xF46 JUMPI PUSH2 0xF45 PUSH2 0xB8A JUMP JUMPDEST JUMPDEST PUSH0 PUSH2 0xF53 DUP5 DUP3 DUP6 ADD PUSH2 0xBD8 JUMP JUMPDEST SWAP2 POP POP SWAP3 SWAP2 POP POP JUMP JUMPDEST PUSH0 DUP2 MLOAD SWAP1 POP SWAP2 SWAP1 POP JUMP JUMPDEST PUSH0 DUP3 DUP3 MSTORE PUSH1 0x20 DUP3 ADD SWAP1 POP SWAP3 SWAP2 POP POP JUMP JUMPDEST PUSH0 DUP2 SWAP1 POP PUSH1 0x20 DUP3 ADD SWAP1 POP SWAP2 SWAP1 POP JUMP JUMPDEST PUSH2 0xF8E DUP2 PUSH2 0xBEC JUMP JUMPDEST DUP3 MSTORE POP POP JUMP JUMPDEST PUSH2 0xF9D DUP2 PUSH2 0xBB1 JUMP JUMPDEST DUP3 MSTORE POP POP JUMP JUMPDEST PUSH0 DUP3 DUP3 MSTORE PUSH1 0x20 DUP3 ADD SWAP1 POP SWAP3 SWAP2 POP POP JUMP JUMPDEST PUSH0 PUSH2 0xFBD DUP3 PUSH2 0xC7B JUMP JUMPDEST PUSH2 0xFC7 DUP2 DUP6 PUSH2 0xFA3 JUMP JUMPDEST SWAP4 POP PUSH2 0xFD7 DUP2 DUP6 PUSH1 0x20 DUP7 ADD PUSH2 0xC95 JUMP JUMPDEST PUSH2 0xFE0 DUP2 PUSH2 0xCA3 JUMP JUMPDEST DUP5 ADD SWAP2 POP POP SWAP3 SWAP2 POP POP JUMP JUMPDEST PUSH0 PUSH1 0xA0 DUP4 ADD PUSH0 DUP4 ADD MLOAD PUSH2 0x1000 PUSH0 DUP7 ADD DUP3 PUSH2 0xF85 JUMP JUMPDEST POP PUSH1 0x20 DUP4 ADD MLOAD PUSH2 0x1013 PUSH1 0x20 DUP7 ADD DUP3 PUSH2 0xF94 JUMP JUMPDEST POP PUSH1 0x40 DUP4 ADD MLOAD DUP5 DUP3 SUB PUSH1 0x40 DUP7 ADD MSTORE PUSH2 0x102B DUP3 DUP3 PUSH2 0xFB3 JUMP JUMPDEST SWAP2 POP POP PUSH1 0x60 DUP4 ADD MLOAD PUSH2 0x1040 PUSH1 0x60 DUP7 ADD DUP3 PUSH2 0xF85 JUMP JUMPDEST POP PUSH1 0x80 DUP4 ADD MLOAD PUSH2 0x1053 PUSH1 0x80 DUP7 ADD DUP3 PUSH2 0xF85 JUMP JUMPDEST POP DUP1 SWAP2 POP POP SWAP3 SWAP2 POP POP JUMP JUMPDEST PUSH0 PUSH2 0x1069 DUP4 DUP4 PUSH2 0xFEB JUMP JUMPDEST SWAP1 POP SWAP3 SWAP2 POP POP JUMP JUMPDEST PUSH0 PUSH1 0x20 DUP3 ADD SWAP1 POP SWAP2 SWAP1 POP JUMP JUMPDEST PUSH0 PUSH2 0x1087 DUP3 PUSH2 0xF5C JUMP JUMPDEST PUSH2 0x1091 DUP2 DUP6 PUSH2 0xF66 JUMP JUMPDEST SWAP4 POP DUP4 PUSH1 0x20 DUP3 MUL DUP6 ADD PUSH2 0x10A3 DUP6 PUSH2 0xF76 JUMP JUMPDEST DUP1 PUSH0 JUMPDEST DUP6 DUP2 LT ISZERO PUSH2 0x10DE JUMPI DUP5 DUP5 SUB DUP10 MSTORE DUP2 MLOAD PUSH2 0x10BF DUP6 DUP3 PUSH2 0x105E JUMP JUMPDEST SWAP5 POP PUSH2 0x10CA DUP4 PUSH2 0x1071 JUMP JUMPDEST SWAP3 POP PUSH1 0x20 DUP11 ADD SWAP10 POP POP PUSH1 0x1 DUP2 ADD SWAP1 POP PUSH2 0x10A6 JUMP JUMPDEST POP DUP3 SWAP8 POP DUP8 SWAP6 POP POP POP POP POP POP SWAP3 SWAP2 POP POP JUMP JUMPDEST PUSH0 PUSH1 0x20 DUP3 ADD SWAP1 POP DUP2 DUP2 SUB PUSH0 DUP4 ADD MSTORE PUSH2 0x1108 DUP2 DUP5 PUSH2 0x107D JUMP JUMPDEST SWAP1 POP SWAP3 SWAP2 POP POP JUMP JUMPDEST PUSH0 PUSH1 0x20 DUP3 DUP5 SUB SLT ISZERO PUSH2 0x1125 JUMPI PUSH2 0x1124 PUSH2 0xB8A JUMP JUMPDEST JUMPDEST PUSH0 PUSH2 0x1132 DUP5 DUP3 DUP6 ADD PUSH2 0xC0B JUMP JUMPDEST SWAP2 POP POP SWAP3 SWAP2 POP POP JUMP JUMPDEST PUSH0 PUSH1 0xA0 DUP4 ADD PUSH0 DUP4 ADD MLOAD PUSH2 0x1150 PUSH0 DUP7 ADD DUP3 PUSH2 0xF85 JUMP JUMPDEST POP PUSH1 0x20 DUP4 ADD MLOAD PUSH2 0x1163 PUSH1 0x20 DUP7 ADD DUP3 PUSH2 0xF94 JUMP JUMPDEST POP PUSH1 0x40 DUP4 ADD MLOAD DUP5 DUP3 SUB PUSH1 0x40 DUP7 ADD MSTORE PUSH2 0x117B DUP3 DUP3 PUSH2 0xFB3 JUMP JUMPDEST SWAP2 POP POP PUSH1 0x60 DUP4 ADD MLOAD PUSH2 0x1190 PUSH1 0x60 DUP7 ADD DUP3 PUSH2 0xF85 JUMP JUMPDEST POP PUSH1 0x80 DUP4 ADD MLOAD PUSH2 0x11A3 PUSH1 0x80 DUP7 ADD DUP3 PUSH2 0xF85 JUMP JUMPDEST POP DUP1 SWAP2 POP POP SWAP3 SWAP2 POP POP JUMP JUMPDEST PUSH0 PUSH1 0x20 DUP3 ADD SWAP1 POP DUP2 DUP2 SUB PUSH0 DUP4 ADD MSTORE PUSH2 0x11C6 DUP2 DUP5 PUSH2 0x113B JUMP JUMPDEST SWAP1 POP SWAP3 SWAP2 POP POP JUMP JUMPDEST PUSH2 0x11D7 DUP2 PUSH2 0xD43 JUMP JUMPDEST DUP3 MSTORE POP POP JUMP JUMPDEST PUSH0 PUSH1 0x20 DUP3 ADD SWAP1 POP PUSH2 0x11F0 PUSH0 DUP4 ADD DUP5 PUSH2 0x11CE JUMP JUMPDEST SWAP3 SWAP2 POP POP JUMP JUMPDEST PUSH32 0x4E487B7100000000000000000000000000000000000000000000000000000000 PUSH0 MSTORE PUSH1 0x22 PUSH1 0x4 MSTORE PUSH1 0x24 PUSH0 REVERT JUMPDEST PUSH0 PUSH1 0x2 DUP3 DIV SWAP1 POP PUSH1 0x1 DUP3 AND DUP1 PUSH2 0x123A JUMPI PUSH1 0x7F DUP3 AND SWAP2 POP JUMPDEST PUSH1 0x20 DUP3 LT DUP2 SUB PUSH2 0x124D JUMPI PUSH2 0x124C PUSH2 0x11F6 JUMP JUMPDEST JUMPDEST POP SWAP2 SWAP1 POP JUMP JUMPDEST PUSH32 0x4E487B7100000000000000000000000000000000000000000000000000000000 PUSH0 MSTORE PUSH1 0x32 PUSH1 0x4 MSTORE PUSH1 0x24 PUSH0 REVERT JUMPDEST PUSH32 0x545745455420444F4553204E4F54204558495354000000000000000000000000 PUSH0 DUP3 ADD MSTORE POP JUMP JUMPDEST PUSH0 PUSH2 0x12B4 PUSH1 0x14 DUP4 PUSH2 0xC85 JUMP JUMPDEST SWAP2 POP PUSH2 0x12BF DUP3 PUSH2 0x1280 JUMP JUMPDEST PUSH1 0x20 DUP3 ADD SWAP1 POP SWAP2 SWAP1 POP JUMP JUMPDEST PUSH0 PUSH1 0x20 DUP3 ADD SWAP1 POP DUP2 DUP2 SUB PUSH0 DUP4 ADD MSTORE PUSH2 0x12E1 DUP2 PUSH2 0x12A8 JUMP JUMPDEST SWAP1 POP SWAP2 SWAP1 POP JUMP JUMPDEST PUSH32 0x545745455420484153204E4F204C494B45000000000000000000000000000000 PUSH0 DUP3 ADD MSTORE POP JUMP JUMPDEST PUSH0 PUSH2 0x131C PUSH1 0x11 DUP4 PUSH2 0xC85 JUMP JUMPDEST SWAP2 POP PUSH2 0x1327 DUP3 PUSH2 0x12E8 JUMP JUMPDEST PUSH1 0x20 DUP3 ADD SWAP1 POP SWAP2 SWAP1 POP JUMP JUMPDEST PUSH0 PUSH1 0x20 DUP3 ADD SWAP1 POP DUP2 DUP2 SUB PUSH0 DUP4 ADD MSTORE PUSH2 0x1349 DUP2 PUSH2 0x1310 JUMP JUMPDEST SWAP1 POP SWAP2 SWAP1 POP JUMP JUMPDEST PUSH32 0x4E487B7100000000000000000000000000000000000000000000000000000000 PUSH0 MSTORE PUSH1 0x11 PUSH1 0x4 MSTORE PUSH1 0x24 PUSH0 REVERT JUMPDEST PUSH0 PUSH2 0x1387 DUP3 PUSH2 0xBEC JUMP JUMPDEST SWAP2 POP PUSH0 DUP3 SUB PUSH2 0x1399 JUMPI PUSH2 0x1398 PUSH2 0x1350 JUMP JUMPDEST JUMPDEST PUSH1 0x1 DUP3 SUB SWAP1 POP SWAP2 SWAP1 POP JUMP JUMPDEST PUSH32 0x594F5520415245204E4F5420544845204F574E45520000000000000000000000 PUSH0 DUP3 ADD MSTORE POP JUMP JUMPDEST PUSH0 PUSH2 0x13D8 PUSH1 0x15 DUP4 PUSH2 0xC85 JUMP JUMPDEST SWAP2 POP PUSH2 0x13E3 DUP3 PUSH2 0x13A4 JUMP JUMPDEST PUSH1 0x20 DUP3 ADD SWAP1 POP SWAP2 SWAP1 POP JUMP JUMPDEST PUSH0 PUSH1 0x20 DUP3 ADD SWAP1 POP DUP2 DUP2 SUB PUSH0 DUP4 ADD MSTORE PUSH2 0x1405 DUP2 PUSH2 0x13CC JUMP JUMPDEST SWAP1 POP SWAP2 SWAP1 POP JUMP JUMPDEST PUSH0 PUSH2 0x1416 DUP3 PUSH2 0xBEC JUMP JUMPDEST SWAP2 POP PUSH32 0xFFFFFFFFFFFFFFFFFFFFFFFFFFFFFFFFFFFFFFFFFFFFFFFFFFFFFFFFFFFFFFFF DUP3 SUB PUSH2 0x1448 JUMPI PUSH2 0x1447 PUSH2 0x1350 JUMP JUMPDEST JUMPDEST PUSH1 0x1 DUP3 ADD SWAP1 POP SWAP2 SWAP1 POP JUMP JUMPDEST PUSH32 0x547765657420697320746F6F206C6F6E672062726F2100000000000000000000 PUSH0 DUP3 ADD MSTORE POP JUMP JUMPDEST PUSH0 PUSH2 0x1487 PUSH1 0x16 DUP4 PUSH2 0xC85 JUMP JUMPDEST SWAP2 POP PUSH2 0x1492 DUP3 PUSH2 0x1453 JUMP JUMPDEST PUSH1 0x20 DUP3 ADD SWAP1 POP SWAP2 SWAP1 POP JUMP JUMPDEST PUSH0 PUSH1 0x20 DUP3 ADD SWAP1 POP DUP2 DUP2 SUB PUSH0 DUP4 ADD MSTORE PUSH2 0x14B4 DUP2 PUSH2 0x147B JUMP JUMPDEST SWAP1 POP SWAP2 SWAP1 POP JUMP JUMPDEST PUSH0 DUP2 SWAP1 POP DUP2 PUSH0 MSTORE PUSH1 0x20 PUSH0 KECCAK256 SWAP1 POP SWAP2 SWAP1 POP JUMP JUMPDEST PUSH0 PUSH1 0x20 PUSH1 0x1F DUP4 ADD DIV SWAP1 POP SWAP2 SWAP1 POP JUMP JUMPDEST PUSH0 DUP3 DUP3 SHL SWAP1 POP SWAP3 SWAP2 POP POP JUMP JUMPDEST PUSH0 PUSH1 0x8 DUP4 MUL PUSH2 0x1517 PUSH32 0xFFFFFFFFFFFFFFFFFFFFFFFFFFFFFFFFFFFFFFFFFFFFFFFFFFFFFFFFFFFFFFFF DUP3 PUSH2 0x14DC JUMP JUMPDEST PUSH2 0x1521 DUP7 DUP4 PUSH2 0x14DC JUMP JUMPDEST SWAP6 POP DUP1 NOT DUP5 AND SWAP4 POP DUP1 DUP7 AND DUP5 OR SWAP3 POP POP POP SWAP4 SWAP3 POP POP POP JUMP JUMPDEST PUSH0 DUP2 SWAP1 POP SWAP2 SWAP1 POP JUMP JUMPDEST PUSH0 PUSH2 0x155C PUSH2 0x1557 PUSH2 0x1552 DUP5 PUSH2 0xBEC JUMP JUMPDEST PUSH2 0x1539 JUMP JUMPDEST PUSH2 0xBEC JUMP JUMPDEST SWAP1 POP SWAP2 SWAP1 POP JUMP JUMPDEST PUSH0 DUP2 SWAP1 POP SWAP2 SWAP1 POP JUMP JUMPDEST PUSH2 0x1575 DUP4 PUSH2 0x1542 JUMP JUMPDEST PUSH2 0x1589 PUSH2 0x1581 DUP3 PUSH2 0x1563 JUMP JUMPDEST DUP5 DUP5 SLOAD PUSH2 0x14E8 JUMP JUMPDEST DUP3 SSTORE POP POP POP POP JUMP JUMPDEST PUSH0 PUSH0 SWAP1 POP SWAP1 JUMP JUMPDEST PUSH2 0x15A0 PUSH2 0x1591 JUMP JUMPDEST PUSH2 0x15AB DUP2 DUP5 DUP5 PUSH2 0x156C JUMP JUMPDEST POP POP POP JUMP JUMPDEST PUSH0 JUMPDEST DUP3 DUP2 LT ISZERO PUSH2 0x15D1 JUMPI PUSH2 0x15C6 PUSH0 DUP3 DUP5 ADD PUSH2 0x1598 JUMP JUMPDEST PUSH1 0x1 DUP2 ADD SWAP1 POP PUSH2 0x15B2 JUMP JUMPDEST POP POP POP JUMP JUMPDEST PUSH1 0x1F DUP3 GT ISZERO PUSH2 0x1624 JUMPI DUP3 DUP3 GT ISZERO PUSH2 0x1623 JUMPI PUSH2 0x15F0 DUP2 PUSH2 0x14BB JUMP JUMPDEST PUSH2 0x15F9 DUP4 PUSH2 0x14CD JUMP JUMPDEST PUSH2 0x1602 DUP6 PUSH2 0x14CD JUMP JUMPDEST PUSH1 0x20 DUP7 LT ISZERO PUSH2 0x160F JUMPI PUSH0 SWAP1 POP JUMPDEST DUP1 DUP4 ADD PUSH2 0x161E DUP3 DUP5 SUB DUP3 PUSH2 0x15B0 JUMP JUMPDEST POP POP POP POP JUMPDEST JUMPDEST POP POP POP JUMP JUMPDEST PUSH0 DUP3 DUP3 SHR SWAP1 POP SWAP3 SWAP2 POP POP JUMP JUMPDEST PUSH0 PUSH2 0x1644 PUSH0 NOT DUP5 PUSH1 0x8 MUL PUSH2 0x1629 JUMP JUMPDEST NOT DUP1 DUP4 AND SWAP2 POP POP SWAP3 SWAP2 POP POP JUMP JUMPDEST PUSH0 PUSH2 0x165C DUP4 DUP4 PUSH2 0x1635 JUMP JUMPDEST SWAP2 POP DUP3 PUSH1 0x2 MUL DUP3 OR SWAP1 POP SWAP3 SWAP2 POP POP JUMP JUMPDEST PUSH2 0x1675 DUP3 PUSH2 0xC7B JUMP JUMPDEST PUSH8 0xFFFFFFFFFFFFFFFF DUP2 GT ISZERO PUSH2 0x168E JUMPI PUSH2 0x168D PUSH2 0xDAD JUMP JUMPDEST JUMPDEST PUSH2 0x1698 DUP3 SLOAD PUSH2 0x1223 JUMP JUMPDEST PUSH2 0x16A3 DUP3 DUP3 DUP6 PUSH2 0x15D6 JUMP JUMPDEST PUSH0 PUSH1 0x20 SWAP1 POP PUSH1 0x1F DUP4 GT PUSH1 0x1 DUP2 EQ PUSH2 0x16D4 JUMPI PUSH0 DUP5 ISZERO PUSH2 0x16C2 JUMPI DUP3 DUP8 ADD MLOAD SWAP1 POP JUMPDEST PUSH2 0x16CC DUP6 DUP3 PUSH2 0x1651 JUMP JUMPDEST DUP7 SSTORE POP PUSH2 0x1733 JUMP JUMPDEST PUSH1 0x1F NOT DUP5 AND PUSH2 0x16E2 DUP7 PUSH2 0x14BB JUMP JUMPDEST PUSH0 JUMPDEST DUP3 DUP2 LT ISZERO PUSH2 0x1709 JUMPI DUP5 DUP10 ADD MLOAD DUP3 SSTORE PUSH1 0x1 DUP3 ADD SWAP2 POP PUSH1 0x20 DUP6 ADD SWAP5 POP PUSH1 0x20 DUP2 ADD SWAP1 POP PUSH2 0x16E4 JUMP JUMPDEST DUP7 DUP4 LT ISZERO PUSH2 0x1726 JUMPI DUP5 DUP10 ADD MLOAD PUSH2 0x1722 PUSH1 0x1F DUP10 AND DUP3 PUSH2 0x1635 JUMP JUMPDEST DUP4 SSTORE POP JUMPDEST PUSH1 0x1 PUSH1 0x2 DUP9 MUL ADD DUP9 SSTORE POP POP POP JUMPDEST POP POP POP POP POP POP JUMP INVALID LOG2 PUSH5 0x6970667358 0x22 SLT KECCAK256 CODESIZE LOG1 COINBASE DUP9 PREVRANDAO CALLER 0x4B PUSH27 0x376B868287114DB42FF336AB278F815FD1106EE1FFB6CE2D64736F PUSH13 0x63430008210033000000000000 "
				},
				"gasEstimates": {
					"creation": {
						"codeDepositCost": "1200200",
						"executionCost": "49776",
						"totalCost": "1249976"
					},
					"external": {
						"MaxTweetAllowed()": "2553",
						"changeTweetLength(uint16)": "26886",
						"createTweet(string)": "infinite",
						"getAllTweet(address)": "infinite",
						"getTweet(uint256)": "infinite",
						"likeTweet(address,uint256)": "infinite",
						"owner()": "2530",
						"tweets(address,uint256)": "infinite",
						"unlikeTweet(address,uint256)": "infinite"
					}
				},
				"methodIdentifiers": {
					"MaxTweetAllowed()": "cb886fa7",
					"changeTweetLength(uint16)": "58bfa4ab",
					"createTweet(string)": "7c9cd2bc",
					"getAllTweet(address)": "b64988b8",
					"getTweet(uint256)": "c3ad5ecb",
					"likeTweet(address,uint256)": "63378216",
					"owner()": "8da5cb5b",
					"tweets(address,uint256)": "05a1b4a9",
					"unlikeTweet(address,uint256)": "3d9b569f"
				}
			},
			"storageLayout": {
				"storage": [
					{
						"astId": 4,
						"contract": "contracts/Twitter.sol:Twitter",
						"label": "MaxTweetAllowed",
						"offset": 0,
						"slot": "0",
						"type": "t_uint16"
					},
					{
						"astId": 21,
						"contract": "contracts/Twitter.sol:Twitter",
						"label": "tweets",
						"offset": 0,
						"slot": "1",
						"type": "t_mapping(t_address,t_array(t_struct(Tweet)15_storage)dyn_storage)"
					},
					{
						"astId": 23,
						"contract": "contracts/Twitter.sol:Twitter",
						"label": "owner",
						"offset": 0,
						"slot": "2",
						"type": "t_address"
					}
				],
				"types": {
					"t_address": {
						"encoding": "inplace",
						"label": "address",
						"numberOfBytes": "20"
					},
					"t_array(t_struct(Tweet)15_storage)dyn_storage": {
						"base": "t_struct(Tweet)15_storage",
						"encoding": "dynamic_array",
						"label": "struct Twitter.Tweet[]",
						"numberOfBytes": "32"
					},
					"t_mapping(t_address,t_array(t_struct(Tweet)15_storage)dyn_storage)": {
						"encoding": "mapping",
						"key": "t_address",
						"label": "mapping(address => struct Twitter.Tweet[])",
						"numberOfBytes": "32",
						"value": "t_array(t_struct(Tweet)15_storage)dyn_storage"
					},
					"t_string_storage": {
						"encoding": "bytes",
						"label": "string",
						"numberOfBytes": "32"
					},
					"t_struct(Tweet)15_storage": {
						"encoding": "inplace",
						"label": "struct Twitter.Tweet",
						"members": [
							{
								"astId": 6,
								"contract": "contracts/Twitter.sol:Twitter",
								"label": "id",
								"offset": 0,
								"slot": "0",
								"type": "t_uint256"
							},
							{
								"astId": 8,
								"contract": "contracts/Twitter.sol:Twitter",
								"label": "author",
								"offset": 0,
								"slot": "1",
								"type": "t_address"
							},
							{
								"astId": 10,
								"contract": "contracts/Twitter.sol:Twitter",
								"label": "content",
								"offset": 0,
								"slot": "2",
								"type": "t_string_storage"
							},
							{
								"astId": 12,
								"contract": "contracts/Twitter.sol:Twitter",
								"label": "timestamp",
								"offset": 0,
								"slot": "3",
								"type": "t_uint256"
							},
							{
								"astId": 14,
								"contract": "contracts/Twitter.sol:Twitter",
								"label": "likes",
								"offset": 0,
								"slot": "4",
								"type": "t_uint256"
							}
						],
						"numberOfBytes": "160"
					},
					"t_uint16": {
						"encoding": "inplace",
						"label": "uint16",
						"numberOfBytes": "2"
					},
					"t_uint256": {
						"encoding": "inplace",
						"label": "uint256",
						"numberOfBytes": "32"
					}
				}
			},
			"userdoc": {
				"kind": "user",
				"methods": {},
				"version": 1
			}
		}
	}
}