{
	"contracts/Twitter.sol": {
		"Twitter": {
			"abi": [
				{
					"inputs": [],
					"stateMutability": "nonpayable",
					"type": "constructor"
				},
				{
					"inputs": [],
					"name": "MaxTweetAllowed",
					"outputs": [
						{
							"internalType": "uint16",
							"name": "",
							"type": "uint16"
						}
					],
					"stateMutability": "view",
					"type": "function"
				},
				{
					"inputs": [
						{
							"internalType": "uint16",
							"name": "newTweetLength",
							"type": "uint16"
						}
					],
					"name": "changeTweetLength",
					"outputs": [],
					"stateMutability": "nonpayable",
					"type": "function"
				},
				{
					"inputs": [
						{
							"internalType": "string",
							"name": "a",
							"type": "string"
						}
					],
					"name": "createTweet",
					"outputs": [],
					"stateMutability": "nonpayable",
					"type": "function"
				},
				{
					"inputs": [
						{
							"internalType": "address",
							"name": "a",
							"type": "address"
						}
					],
					"name": "getAllTweet",
					"outputs": [
						{
							"components": [
								{
									"internalType": "address",
									"name": "author",
									"type": "address"
								},
								{
									"internalType": "string",
									"name": "content",
									"type": "string"
								},
								{
									"internalType": "uint256",
									"name": "timestamp",
									"type": "uint256"
								},
								{
									"internalType": "uint256",
									"name": "likes",
									"type": "uint256"
								}
							],
							"internalType": "struct Twitter.Tweet[]",
							"name": "",
							"type": "tuple[]"
						}
					],
					"stateMutability": "view",
					"type": "function"
				},
				{
					"inputs": [
						{
							"internalType": "uint256",
							"name": "i",
							"type": "uint256"
						}
					],
					"name": "getTweet",
					"outputs": [
						{
							"components": [
								{
									"internalType": "address",
									"name": "author",
									"type": "address"
								},
								{
									"internalType": "string",
									"name": "content",
									"type": "string"
								},
								{
									"internalType": "uint256",
									"name": "timestamp",
									"type": "uint256"
								},
								{
									"internalType": "uint256",
									"name": "likes",
									"type": "uint256"
								}
							],
							"internalType": "struct Twitter.Tweet",
							"name": "",
							"type": "tuple"
						}
					],
					"stateMutability": "view",
					"type": "function"
				},
				{
					"inputs": [],
					"name": "owner",
					"outputs": [
						{
							"internalType": "address",
							"name": "",
							"type": "address"
						}
					],
					"stateMutability": "view",
					"type": "function"
				},
				{
					"inputs": [
						{
							"internalType": "address",
							"name": "",
							"type": "address"
						},
						{
							"internalType": "uint256",
							"name": "",
							"type": "uint256"
						}
					],
					"name": "tweets",
					"outputs": [
						{
							"internalType": "address",
							"name": "author",
							"type": "address"
						},
						{
							"internalType": "string",
							"name": "content",
							"type": "string"
						},
						{
							"internalType": "uint256",
							"name": "timestamp",
							"type": "uint256"
						},
						{
							"internalType": "uint256",
							"name": "likes",
							"type": "uint256"
						}
					],
					"stateMutability": "view",
					"type": "function"
				}
			],
			"devdoc": {
				"kind": "dev",
				"methods": {},
				"version": 1
			},
			"evm": {
				"assembly": "    /* \"contracts/Twitter.sol\":63:1223  contract Twitter {... */\n  mstore(0x40, 0x80)\n    /* \"contracts/Twitter.sol\":121:124  280 */\n  0x0118\n    /* \"contracts/Twitter.sol\":89:124  uint16 public MaxTweetAllowed = 280 */\n  0x00\n  exp(0x0100, 0x00)\n  dup2\n  sload\n  dup2\n  0xffff\n  mul\n  not\n  and\n  swap1\n  dup4\n  0xffff\n  and\n  mul\n  or\n  swap1\n  sstore\n  pop\n    /* \"contracts/Twitter.sol\":338:389  constructor() {... */\n  callvalue\n  dup1\n  iszero\n  tag_1\n  jumpi\n  revert(0x00, 0x00)\ntag_1:\n  pop\n    /* \"contracts/Twitter.sol\":371:381  msg.sender */\n  caller\n    /* \"contracts/Twitter.sol\":363:368  owner */\n  0x02\n  0x00\n    /* \"contracts/Twitter.sol\":363:381  owner = msg.sender */\n  0x0100\n  exp\n  dup2\n  sload\n  dup2\n  0xffffffffffffffffffffffffffffffffffffffff\n  mul\n  not\n  and\n  swap1\n  dup4\n  0xffffffffffffffffffffffffffffffffffffffff\n  and\n  mul\n  or\n  swap1\n  sstore\n  pop\n    /* \"contracts/Twitter.sol\":63:1223  contract Twitter {... */\n  dataSize(sub_0)\n  dup1\n  dataOffset(sub_0)\n  0x00\n  codecopy\n  0x00\n  return\nstop\n\nsub_0: assembly {\n        /* \"contracts/Twitter.sol\":63:1223  contract Twitter {... */\n      mstore(0x40, 0x80)\n      callvalue\n      dup1\n      iszero\n      tag_1\n      jumpi\n      revert(0x00, 0x00)\n    tag_1:\n      pop\n      jumpi(tag_2, lt(calldatasize, 0x04))\n      shr(0xe0, calldataload(0x00))\n      dup1\n      0x8da5cb5b\n      gt\n      tag_10\n      jumpi\n      dup1\n      0x8da5cb5b\n      eq\n      tag_6\n      jumpi\n      dup1\n      0xb64988b8\n      eq\n      tag_7\n      jumpi\n      dup1\n      0xc3ad5ecb\n      eq\n      tag_8\n      jumpi\n      dup1\n      0xcb886fa7\n      eq\n      tag_9\n      jumpi\n      jump(tag_2)\n    tag_10:\n      dup1\n      0x05a1b4a9\n      eq\n      tag_3\n      jumpi\n      dup1\n      0x58bfa4ab\n      eq\n      tag_4\n      jumpi\n      dup1\n      0x7c9cd2bc\n      eq\n      tag_5\n      jumpi\n    tag_2:\n      revert(0x00, 0x00)\n        /* \"contracts/Twitter.sol\":261:302  mapping(address => Tweet[]) public tweets */\n    tag_3:\n      tag_11\n      0x04\n      dup1\n      calldatasize\n      sub\n      dup2\n      add\n      swap1\n      tag_12\n      swap2\n      swap1\n      tag_13\n      jump\t// in\n    tag_12:\n      tag_14\n      jump\t// in\n    tag_11:\n      mload(0x40)\n      tag_15\n      swap5\n      swap4\n      swap3\n      swap2\n      swap1\n      tag_16\n      jump\t// in\n    tag_15:\n      mload(0x40)\n      dup1\n      swap2\n      sub\n      swap1\n      return\n        /* \"contracts/Twitter.sol\":510:628  function changeTweetLength(uint16 newTweetLength) public onlyOwner {... */\n    tag_4:\n      tag_17\n      0x04\n      dup1\n      calldatasize\n      sub\n      dup2\n      add\n      swap1\n      tag_18\n      swap2\n      swap1\n      tag_19\n      jump\t// in\n    tag_18:\n      tag_20\n      jump\t// in\n    tag_17:\n      stop\n        /* \"contracts/Twitter.sol\":636:992  function createTweet(string memory a) public {... */\n    tag_5:\n      tag_21\n      0x04\n      dup1\n      calldatasize\n      sub\n      dup2\n      add\n      swap1\n      tag_22\n      swap2\n      swap1\n      tag_23\n      jump\t// in\n    tag_22:\n      tag_24\n      jump\t// in\n    tag_21:\n      stop\n        /* \"contracts/Twitter.sol\":309:329  address public owner */\n    tag_6:\n      tag_25\n      tag_26\n      jump\t// in\n    tag_25:\n      mload(0x40)\n      tag_27\n      swap2\n      swap1\n      tag_28\n      jump\t// in\n    tag_27:\n      mload(0x40)\n      dup1\n      swap2\n      sub\n      swap1\n      return\n        /* \"contracts/Twitter.sol\":1116:1220  function getAllTweet(address a) public view returns (Tweet[] memory) {... */\n    tag_7:\n      tag_29\n      0x04\n      dup1\n      calldatasize\n      sub\n      dup2\n      add\n      swap1\n      tag_30\n      swap2\n      swap1\n      tag_31\n      jump\t// in\n    tag_30:\n      tag_32\n      jump\t// in\n    tag_29:\n      mload(0x40)\n      tag_33\n      swap2\n      swap1\n      tag_34\n      jump\t// in\n    tag_33:\n      mload(0x40)\n      dup1\n      swap2\n      sub\n      swap1\n      return\n        /* \"contracts/Twitter.sol\":1000:1108  function getTweet(uint i) public view returns (Tweet memory) {... */\n    tag_8:\n      tag_35\n      0x04\n      dup1\n      calldatasize\n      sub\n      dup2\n      add\n      swap1\n      tag_36\n      swap2\n      swap1\n      tag_37\n      jump\t// in\n    tag_36:\n      tag_38\n      jump\t// in\n    tag_35:\n      mload(0x40)\n      tag_39\n      swap2\n      swap1\n      tag_40\n      jump\t// in\n    tag_39:\n      mload(0x40)\n      dup1\n      swap2\n      sub\n      swap1\n      return\n        /* \"contracts/Twitter.sol\":89:124  uint16 public MaxTweetAllowed = 280 */\n    tag_9:\n      tag_41\n      tag_42\n      jump\t// in\n    tag_41:\n      mload(0x40)\n      tag_43\n      swap2\n      swap1\n      tag_44\n      jump\t// in\n    tag_43:\n      mload(0x40)\n      dup1\n      swap2\n      sub\n      swap1\n      return\n        /* \"contracts/Twitter.sol\":261:302  mapping(address => Tweet[]) public tweets */\n    tag_14:\n      mstore(0x20, 0x01)\n      dup2\n      0x00\n      mstore\n      keccak256(0x00, 0x40)\n      dup2\n      dup2\n      sload\n      dup2\n      lt\n      tag_45\n      jumpi\n      0x00\n      dup1\n      revert\n    tag_45:\n      swap1\n      0x00\n      mstore\n      keccak256(0x00, 0x20)\n      swap1\n      0x04\n      mul\n      add\n      0x00\n      swap2\n      pop\n      swap2\n      pop\n      pop\n      dup1\n      0x00\n      add\n      0x00\n      swap1\n      sload\n      swap1\n      0x0100\n      exp\n      swap1\n      div\n      0xffffffffffffffffffffffffffffffffffffffff\n      and\n      swap1\n      dup1\n      0x01\n      add\n      dup1\n      sload\n      tag_47\n      swap1\n      tag_48\n      jump\t// in\n    tag_47:\n      dup1\n      0x1f\n      add\n      0x20\n      dup1\n      swap2\n      div\n      mul\n      0x20\n      add\n      mload(0x40)\n      swap1\n      dup2\n      add\n      0x40\n      mstore\n      dup1\n      swap3\n      swap2\n      swap1\n      dup2\n      dup2\n      mstore\n      0x20\n      add\n      dup3\n      dup1\n      sload\n      tag_49\n      swap1\n      tag_48\n      jump\t// in\n    tag_49:\n      dup1\n      iszero\n      tag_50\n      jumpi\n      dup1\n      0x1f\n      lt\n      tag_51\n      jumpi\n      0x0100\n      dup1\n      dup4\n      sload\n      div\n      mul\n      dup4\n      mstore\n      swap2\n      0x20\n      add\n      swap2\n      jump(tag_50)\n    tag_51:\n      dup3\n      add\n      swap2\n      swap1\n      0x00\n      mstore\n      keccak256(0x00, 0x20)\n      swap1\n    tag_52:\n      dup2\n      sload\n      dup2\n      mstore\n      swap1\n      0x01\n      add\n      swap1\n      0x20\n      add\n      dup1\n      dup4\n      gt\n      tag_52\n      jumpi\n      dup3\n      swap1\n      sub\n      0x1f\n      and\n      dup3\n      add\n      swap2\n    tag_50:\n      pop\n      pop\n      pop\n      pop\n      pop\n      swap1\n      dup1\n      0x02\n      add\n      sload\n      swap1\n      dup1\n      0x03\n      add\n      sload\n      swap1\n      pop\n      dup5\n      jump\t// out\n        /* \"contracts/Twitter.sol\":510:628  function changeTweetLength(uint16 newTweetLength) public onlyOwner {... */\n    tag_20:\n        /* \"contracts/Twitter.sol\":451:456  owner */\n      0x02\n      0x00\n      swap1\n      sload\n      swap1\n      0x0100\n      exp\n      swap1\n      div\n      0xffffffffffffffffffffffffffffffffffffffff\n      and\n        /* \"contracts/Twitter.sol\":437:456  msg.sender == owner */\n      0xffffffffffffffffffffffffffffffffffffffff\n      and\n        /* \"contracts/Twitter.sol\":437:447  msg.sender */\n      caller\n        /* \"contracts/Twitter.sol\":437:456  msg.sender == owner */\n      0xffffffffffffffffffffffffffffffffffffffff\n      and\n      eq\n        /* \"contracts/Twitter.sol\":429:482  require(msg.sender == owner, \"YOU ARE NOT THE OWNER\") */\n      tag_54\n      jumpi\n      mload(0x40)\n      0x08c379a000000000000000000000000000000000000000000000000000000000\n      dup2\n      mstore\n      0x04\n      add\n      tag_55\n      swap1\n      tag_56\n      jump\t// in\n    tag_55:\n      mload(0x40)\n      dup1\n      swap2\n      sub\n      swap1\n      revert\n    tag_54:\n        /* \"contracts/Twitter.sol\":606:620  newTweetLength */\n      dup1\n        /* \"contracts/Twitter.sol\":588:603  MaxTweetAllowed */\n      0x00\n      0x00\n        /* \"contracts/Twitter.sol\":588:620  MaxTweetAllowed = newTweetLength */\n      0x0100\n      exp\n      dup2\n      sload\n      dup2\n      0xffff\n      mul\n      not\n      and\n      swap1\n      dup4\n      0xffff\n      and\n      mul\n      or\n      swap1\n      sstore\n      pop\n        /* \"contracts/Twitter.sol\":510:628  function changeTweetLength(uint16 newTweetLength) public onlyOwner {... */\n      pop\n      jump\t// out\n        /* \"contracts/Twitter.sol\":636:992  function createTweet(string memory a) public {... */\n    tag_24:\n        /* \"contracts/Twitter.sol\":719:734  MaxTweetAllowed */\n      0x00\n      0x00\n      swap1\n      sload\n      swap1\n      0x0100\n      exp\n      swap1\n      div\n      0xffff\n      and\n        /* \"contracts/Twitter.sol\":700:734  bytes(a).length <= MaxTweetAllowed */\n      0xffff\n      and\n        /* \"contracts/Twitter.sol\":706:707  a */\n      dup2\n        /* \"contracts/Twitter.sol\":700:715  bytes(a).length */\n      mload\n        /* \"contracts/Twitter.sol\":700:734  bytes(a).length <= MaxTweetAllowed */\n      gt\n      iszero\n        /* \"contracts/Twitter.sol\":692:761  require(bytes(a).length <= MaxTweetAllowed, \"Tweet is too long bro!\") */\n      tag_59\n      jumpi\n      mload(0x40)\n      0x08c379a000000000000000000000000000000000000000000000000000000000\n      dup2\n      mstore\n      0x04\n      add\n      tag_60\n      swap1\n      tag_61\n      jump\t// in\n    tag_60:\n      mload(0x40)\n      dup1\n      swap2\n      sub\n      swap1\n      revert\n    tag_59:\n        /* \"contracts/Twitter.sol\":774:795  Tweet memory newTweet */\n      0x00\n        /* \"contracts/Twitter.sol\":798:938  Tweet({... */\n      mload(0x40)\n      dup1\n      0x80\n      add\n      0x40\n      mstore\n      dup1\n        /* \"contracts/Twitter.sol\":827:837  msg.sender */\n      caller\n        /* \"contracts/Twitter.sol\":798:938  Tweet({... */\n      0xffffffffffffffffffffffffffffffffffffffff\n      and\n      dup2\n      mstore\n      0x20\n      add\n        /* \"contracts/Twitter.sol\":861:862  a */\n      dup4\n        /* \"contracts/Twitter.sol\":798:938  Tweet({... */\n      dup2\n      mstore\n      0x20\n      add\n        /* \"contracts/Twitter.sol\":888:903  block.timestamp */\n      timestamp\n        /* \"contracts/Twitter.sol\":798:938  Tweet({... */\n      dup2\n      mstore\n      0x20\n      add\n        /* \"contracts/Twitter.sol\":925:926  0 */\n      0x00\n        /* \"contracts/Twitter.sol\":798:938  Tweet({... */\n      dup2\n      mstore\n      pop\n        /* \"contracts/Twitter.sol\":774:938  Tweet memory newTweet = Tweet({... */\n      swap1\n      pop\n        /* \"contracts/Twitter.sol\":951:957  tweets */\n      0x01\n        /* \"contracts/Twitter.sol\":951:969  tweets[msg.sender] */\n      0x00\n        /* \"contracts/Twitter.sol\":958:968  msg.sender */\n      caller\n        /* \"contracts/Twitter.sol\":951:969  tweets[msg.sender] */\n      0xffffffffffffffffffffffffffffffffffffffff\n      and\n      0xffffffffffffffffffffffffffffffffffffffff\n      and\n      dup2\n      mstore\n      0x20\n      add\n      swap1\n      dup2\n      mstore\n      0x20\n      add\n      0x00\n      keccak256\n        /* \"contracts/Twitter.sol\":975:983  newTweet */\n      dup2\n        /* \"contracts/Twitter.sol\":951:984  tweets[msg.sender].push(newTweet) */\n      swap1\n      dup1\n      0x01\n      dup2\n      sload\n      add\n      dup1\n      dup3\n      sstore\n      dup1\n      swap2\n      pop\n      pop\n      0x01\n      swap1\n      sub\n      swap1\n      0x00\n      mstore\n      keccak256(0x00, 0x20)\n      swap1\n      0x04\n      mul\n      add\n      0x00\n      swap1\n      swap2\n      swap1\n      swap2\n      swap1\n      swap2\n      pop\n      0x00\n      dup3\n      add\n      mload\n      dup2\n      0x00\n      add\n      exp(0x0100, 0x00)\n      dup2\n      sload\n      dup2\n      0xffffffffffffffffffffffffffffffffffffffff\n      mul\n      not\n      and\n      swap1\n      dup4\n      0xffffffffffffffffffffffffffffffffffffffff\n      and\n      mul\n      or\n      swap1\n      sstore\n      pop\n      0x20\n      dup3\n      add\n      mload\n      dup2\n      0x01\n      add\n      swap1\n      dup2\n      tag_63\n      swap2\n      swap1\n      tag_64\n      jump\t// in\n    tag_63:\n      pop\n      0x40\n      dup3\n      add\n      mload\n      dup2\n      0x02\n      add\n      sstore\n      0x60\n      dup3\n      add\n      mload\n      dup2\n      0x03\n      add\n      sstore\n      pop\n      pop\n        /* \"contracts/Twitter.sol\":681:992  {... */\n      pop\n        /* \"contracts/Twitter.sol\":636:992  function createTweet(string memory a) public {... */\n      pop\n      jump\t// out\n        /* \"contracts/Twitter.sol\":309:329  address public owner */\n    tag_26:\n      0x02\n      0x00\n      swap1\n      sload\n      swap1\n      0x0100\n      exp\n      swap1\n      div\n      0xffffffffffffffffffffffffffffffffffffffff\n      and\n      dup2\n      jump\t// out\n        /* \"contracts/Twitter.sol\":1116:1220  function getAllTweet(address a) public view returns (Tweet[] memory) {... */\n    tag_32:\n        /* \"contracts/Twitter.sol\":1169:1183  Tweet[] memory */\n      0x60\n        /* \"contracts/Twitter.sol\":1203:1209  tweets */\n      0x01\n        /* \"contracts/Twitter.sol\":1203:1212  tweets[a] */\n      0x00\n        /* \"contracts/Twitter.sol\":1210:1211  a */\n      dup4\n        /* \"contracts/Twitter.sol\":1203:1212  tweets[a] */\n      0xffffffffffffffffffffffffffffffffffffffff\n      and\n      0xffffffffffffffffffffffffffffffffffffffff\n      and\n      dup2\n      mstore\n      0x20\n      add\n      swap1\n      dup2\n      mstore\n      0x20\n      add\n      0x00\n      keccak256\n        /* \"contracts/Twitter.sol\":1196:1212  return tweets[a] */\n      dup1\n      sload\n      dup1\n      0x20\n      mul\n      0x20\n      add\n      mload(0x40)\n      swap1\n      dup2\n      add\n      0x40\n      mstore\n      dup1\n      swap3\n      swap2\n      swap1\n      dup2\n      dup2\n      mstore\n      0x20\n      add\n      0x00\n      swap1\n    tag_66:\n      dup3\n      dup3\n      lt\n      iszero\n      tag_67\n      jumpi\n      dup4\n      dup3\n      swap1\n      0x00\n      mstore\n      keccak256(0x00, 0x20)\n      swap1\n      0x04\n      mul\n      add\n      mload(0x40)\n      dup1\n      0x80\n      add\n      0x40\n      mstore\n      swap1\n      dup2\n      0x00\n      dup3\n      add\n      0x00\n      swap1\n      sload\n      swap1\n      0x0100\n      exp\n      swap1\n      div\n      0xffffffffffffffffffffffffffffffffffffffff\n      and\n      0xffffffffffffffffffffffffffffffffffffffff\n      and\n      0xffffffffffffffffffffffffffffffffffffffff\n      and\n      dup2\n      mstore\n      0x20\n      add\n      0x01\n      dup3\n      add\n      dup1\n      sload\n      tag_69\n      swap1\n      tag_48\n      jump\t// in\n    tag_69:\n      dup1\n      0x1f\n      add\n      0x20\n      dup1\n      swap2\n      div\n      mul\n      0x20\n      add\n      mload(0x40)\n      swap1\n      dup2\n      add\n      0x40\n      mstore\n      dup1\n      swap3\n      swap2\n      swap1\n      dup2\n      dup2\n      mstore\n      0x20\n      add\n      dup3\n      dup1\n      sload\n      tag_70\n      swap1\n      tag_48\n      jump\t// in\n    tag_70:\n      dup1\n      iszero\n      tag_71\n      jumpi\n      dup1\n      0x1f\n      lt\n      tag_72\n      jumpi\n      0x0100\n      dup1\n      dup4\n      sload\n      div\n      mul\n      dup4\n      mstore\n      swap2\n      0x20\n      add\n      swap2\n      jump(tag_71)\n    tag_72:\n      dup3\n      add\n      swap2\n      swap1\n      0x00\n      mstore\n      keccak256(0x00, 0x20)\n      swap1\n    tag_73:\n      dup2\n      sload\n      dup2\n      mstore\n      swap1\n      0x01\n      add\n      swap1\n      0x20\n      add\n      dup1\n      dup4\n      gt\n      tag_73\n      jumpi\n      dup3\n      swap1\n      sub\n      0x1f\n      and\n      dup3\n      add\n      swap2\n    tag_71:\n      pop\n      pop\n      pop\n      pop\n      pop\n      dup2\n      mstore\n      0x20\n      add\n      0x02\n      dup3\n      add\n      sload\n      dup2\n      mstore\n      0x20\n      add\n      0x03\n      dup3\n      add\n      sload\n      dup2\n      mstore\n      pop\n      pop\n      dup2\n      mstore\n      0x20\n      add\n      swap1\n      0x01\n      add\n      swap1\n      jump(tag_66)\n    tag_67:\n      pop\n      pop\n      pop\n      pop\n      swap1\n      pop\n        /* \"contracts/Twitter.sol\":1116:1220  function getAllTweet(address a) public view returns (Tweet[] memory) {... */\n      swap2\n      swap1\n      pop\n      jump\t// out\n        /* \"contracts/Twitter.sol\":1000:1108  function getTweet(uint i) public view returns (Tweet memory) {... */\n    tag_38:\n        /* \"contracts/Twitter.sol\":1047:1059  Tweet memory */\n      tag_74\n      tag_75\n      jump\t// in\n    tag_74:\n        /* \"contracts/Twitter.sol\":1079:1085  tweets */\n      0x01\n        /* \"contracts/Twitter.sol\":1079:1097  tweets[msg.sender] */\n      0x00\n        /* \"contracts/Twitter.sol\":1086:1096  msg.sender */\n      caller\n        /* \"contracts/Twitter.sol\":1079:1097  tweets[msg.sender] */\n      0xffffffffffffffffffffffffffffffffffffffff\n      and\n      0xffffffffffffffffffffffffffffffffffffffff\n      and\n      dup2\n      mstore\n      0x20\n      add\n      swap1\n      dup2\n      mstore\n      0x20\n      add\n      0x00\n      keccak256\n        /* \"contracts/Twitter.sol\":1098:1099  i */\n      dup3\n        /* \"contracts/Twitter.sol\":1079:1100  tweets[msg.sender][i] */\n      dup2\n      sload\n      dup2\n      lt\n      tag_77\n      jumpi\n      tag_78\n      tag_79\n      jump\t// in\n    tag_78:\n    tag_77:\n      swap1\n      0x00\n      mstore\n      keccak256(0x00, 0x20)\n      swap1\n      0x04\n      mul\n      add\n        /* \"contracts/Twitter.sol\":1072:1100  return tweets[msg.sender][i] */\n      mload(0x40)\n      dup1\n      0x80\n      add\n      0x40\n      mstore\n      swap1\n      dup2\n      0x00\n      dup3\n      add\n      0x00\n      swap1\n      sload\n      swap1\n      0x0100\n      exp\n      swap1\n      div\n      0xffffffffffffffffffffffffffffffffffffffff\n      and\n      0xffffffffffffffffffffffffffffffffffffffff\n      and\n      0xffffffffffffffffffffffffffffffffffffffff\n      and\n      dup2\n      mstore\n      0x20\n      add\n      0x01\n      dup3\n      add\n      dup1\n      sload\n      tag_81\n      swap1\n      tag_48\n      jump\t// in\n    tag_81:\n      dup1\n      0x1f\n      add\n      0x20\n      dup1\n      swap2\n      div\n      mul\n      0x20\n      add\n      mload(0x40)\n      swap1\n      dup2\n      add\n      0x40\n      mstore\n      dup1\n      swap3\n      swap2\n      swap1\n      dup2\n      dup2\n      mstore\n      0x20\n      add\n      dup3\n      dup1\n      sload\n      tag_82\n      swap1\n      tag_48\n      jump\t// in\n    tag_82:\n      dup1\n      iszero\n      tag_83\n      jumpi\n      dup1\n      0x1f\n      lt\n      tag_84\n      jumpi\n      0x0100\n      dup1\n      dup4\n      sload\n      div\n      mul\n      dup4\n      mstore\n      swap2\n      0x20\n      add\n      swap2\n      jump(tag_83)\n    tag_84:\n      dup3\n      add\n      swap2\n      swap1\n      0x00\n      mstore\n      keccak256(0x00, 0x20)\n      swap1\n    tag_85:\n      dup2\n      sload\n      dup2\n      mstore\n      swap1\n      0x01\n      add\n      swap1\n      0x20\n      add\n      dup1\n      dup4\n      gt\n      tag_85\n      jumpi\n      dup3\n      swap1\n      sub\n      0x1f\n      and\n      dup3\n      add\n      swap2\n    tag_83:\n      pop\n      pop\n      pop\n      pop\n      pop\n      dup2\n      mstore\n      0x20\n      add\n      0x02\n      dup3\n      add\n      sload\n      dup2\n      mstore\n      0x20\n      add\n      0x03\n      dup3\n      add\n      sload\n      dup2\n      mstore\n      pop\n      pop\n      swap1\n      pop\n        /* \"contracts/Twitter.sol\":1000:1108  function getTweet(uint i) public view returns (Tweet memory) {... */\n      swap2\n      swap1\n      pop\n      jump\t// out\n        /* \"contracts/Twitter.sol\":89:124  uint16 public MaxTweetAllowed = 280 */\n    tag_42:\n      0x00\n      0x00\n      swap1\n      sload\n      swap1\n      0x0100\n      exp\n      swap1\n      div\n      0xffff\n      and\n      dup2\n      jump\t// out\n    tag_75:\n      mload(0x40)\n      dup1\n      0x80\n      add\n      0x40\n      mstore\n      dup1\n      and(0xffffffffffffffffffffffffffffffffffffffff, 0x00)\n      dup2\n      mstore\n      0x20\n      add\n      0x60\n      dup2\n      mstore\n      0x20\n      add\n      0x00\n      dup2\n      mstore\n      0x20\n      add\n      0x00\n      dup2\n      mstore\n      pop\n      swap1\n      jump\t// out\n        /* \"#utility.yul\":7:82   */\n    tag_86:\n        /* \"#utility.yul\":40:46   */\n      0x00\n        /* \"#utility.yul\":73:75   */\n      0x40\n        /* \"#utility.yul\":67:76   */\n      mload\n        /* \"#utility.yul\":57:76   */\n      swap1\n      pop\n        /* \"#utility.yul\":7:82   */\n      swap1\n      jump\t// out\n        /* \"#utility.yul\":88:205   */\n    tag_87:\n        /* \"#utility.yul\":197:198   */\n      0x00\n        /* \"#utility.yul\":194:195   */\n      0x00\n        /* \"#utility.yul\":187:199   */\n      revert\n        /* \"#utility.yul\":211:328   */\n    tag_88:\n        /* \"#utility.yul\":320:321   */\n      0x00\n        /* \"#utility.yul\":317:318   */\n      0x00\n        /* \"#utility.yul\":310:322   */\n      revert\n        /* \"#utility.yul\":334:460   */\n    tag_89:\n        /* \"#utility.yul\":371:378   */\n      0x00\n        /* \"#utility.yul\":411:453   */\n      0xffffffffffffffffffffffffffffffffffffffff\n        /* \"#utility.yul\":404:409   */\n      dup3\n        /* \"#utility.yul\":400:454   */\n      and\n        /* \"#utility.yul\":389:454   */\n      swap1\n      pop\n        /* \"#utility.yul\":334:460   */\n      swap2\n      swap1\n      pop\n      jump\t// out\n        /* \"#utility.yul\":466:562   */\n    tag_90:\n        /* \"#utility.yul\":503:510   */\n      0x00\n        /* \"#utility.yul\":532:556   */\n      tag_154\n        /* \"#utility.yul\":550:555   */\n      dup3\n        /* \"#utility.yul\":532:556   */\n      tag_89\n      jump\t// in\n    tag_154:\n        /* \"#utility.yul\":521:556   */\n      swap1\n      pop\n        /* \"#utility.yul\":466:562   */\n      swap2\n      swap1\n      pop\n      jump\t// out\n        /* \"#utility.yul\":568:690   */\n    tag_91:\n        /* \"#utility.yul\":641:665   */\n      tag_156\n        /* \"#utility.yul\":659:664   */\n      dup2\n        /* \"#utility.yul\":641:665   */\n      tag_90\n      jump\t// in\n    tag_156:\n        /* \"#utility.yul\":634:639   */\n      dup2\n        /* \"#utility.yul\":631:666   */\n      eq\n        /* \"#utility.yul\":621:684   */\n      tag_157\n      jumpi\n        /* \"#utility.yul\":680:681   */\n      0x00\n        /* \"#utility.yul\":677:678   */\n      0x00\n        /* \"#utility.yul\":670:682   */\n      revert\n        /* \"#utility.yul\":621:684   */\n    tag_157:\n        /* \"#utility.yul\":568:690   */\n      pop\n      jump\t// out\n        /* \"#utility.yul\":696:835   */\n    tag_92:\n        /* \"#utility.yul\":742:747   */\n      0x00\n        /* \"#utility.yul\":780:786   */\n      dup2\n        /* \"#utility.yul\":767:787   */\n      calldataload\n        /* \"#utility.yul\":758:787   */\n      swap1\n      pop\n        /* \"#utility.yul\":796:829   */\n      tag_159\n        /* \"#utility.yul\":823:828   */\n      dup2\n        /* \"#utility.yul\":796:829   */\n      tag_91\n      jump\t// in\n    tag_159:\n        /* \"#utility.yul\":696:835   */\n      swap3\n      swap2\n      pop\n      pop\n      jump\t// out\n        /* \"#utility.yul\":841:918   */\n    tag_93:\n        /* \"#utility.yul\":878:885   */\n      0x00\n        /* \"#utility.yul\":907:912   */\n      dup2\n        /* \"#utility.yul\":896:912   */\n      swap1\n      pop\n        /* \"#utility.yul\":841:918   */\n      swap2\n      swap1\n      pop\n      jump\t// out\n        /* \"#utility.yul\":924:1046   */\n    tag_94:\n        /* \"#utility.yul\":997:1021   */\n      tag_162\n        /* \"#utility.yul\":1015:1020   */\n      dup2\n        /* \"#utility.yul\":997:1021   */\n      tag_93\n      jump\t// in\n    tag_162:\n        /* \"#utility.yul\":990:995   */\n      dup2\n        /* \"#utility.yul\":987:1022   */\n      eq\n        /* \"#utility.yul\":977:1040   */\n      tag_163\n      jumpi\n        /* \"#utility.yul\":1036:1037   */\n      0x00\n        /* \"#utility.yul\":1033:1034   */\n      0x00\n        /* \"#utility.yul\":1026:1038   */\n      revert\n        /* \"#utility.yul\":977:1040   */\n    tag_163:\n        /* \"#utility.yul\":924:1046   */\n      pop\n      jump\t// out\n        /* \"#utility.yul\":1052:1191   */\n    tag_95:\n        /* \"#utility.yul\":1098:1103   */\n      0x00\n        /* \"#utility.yul\":1136:1142   */\n      dup2\n        /* \"#utility.yul\":1123:1143   */\n      calldataload\n        /* \"#utility.yul\":1114:1143   */\n      swap1\n      pop\n        /* \"#utility.yul\":1152:1185   */\n      tag_165\n        /* \"#utility.yul\":1179:1184   */\n      dup2\n        /* \"#utility.yul\":1152:1185   */\n      tag_94\n      jump\t// in\n    tag_165:\n        /* \"#utility.yul\":1052:1191   */\n      swap3\n      swap2\n      pop\n      pop\n      jump\t// out\n        /* \"#utility.yul\":1197:1671   */\n    tag_13:\n        /* \"#utility.yul\":1265:1271   */\n      0x00\n        /* \"#utility.yul\":1273:1279   */\n      0x00\n        /* \"#utility.yul\":1322:1324   */\n      0x40\n        /* \"#utility.yul\":1310:1319   */\n      dup4\n        /* \"#utility.yul\":1301:1308   */\n      dup6\n        /* \"#utility.yul\":1297:1320   */\n      sub\n        /* \"#utility.yul\":1293:1325   */\n      slt\n        /* \"#utility.yul\":1290:1409   */\n      iszero\n      tag_167\n      jumpi\n        /* \"#utility.yul\":1328:1407   */\n      tag_168\n      tag_87\n      jump\t// in\n    tag_168:\n        /* \"#utility.yul\":1290:1409   */\n    tag_167:\n        /* \"#utility.yul\":1448:1449   */\n      0x00\n        /* \"#utility.yul\":1473:1526   */\n      tag_169\n        /* \"#utility.yul\":1518:1525   */\n      dup6\n        /* \"#utility.yul\":1509:1515   */\n      dup3\n        /* \"#utility.yul\":1498:1507   */\n      dup7\n        /* \"#utility.yul\":1494:1516   */\n      add\n        /* \"#utility.yul\":1473:1526   */\n      tag_92\n      jump\t// in\n    tag_169:\n        /* \"#utility.yul\":1463:1526   */\n      swap3\n      pop\n        /* \"#utility.yul\":1419:1536   */\n      pop\n        /* \"#utility.yul\":1575:1577   */\n      0x20\n        /* \"#utility.yul\":1601:1654   */\n      tag_170\n        /* \"#utility.yul\":1646:1653   */\n      dup6\n        /* \"#utility.yul\":1637:1643   */\n      dup3\n        /* \"#utility.yul\":1626:1635   */\n      dup7\n        /* \"#utility.yul\":1622:1644   */\n      add\n        /* \"#utility.yul\":1601:1654   */\n      tag_95\n      jump\t// in\n    tag_170:\n        /* \"#utility.yul\":1591:1654   */\n      swap2\n      pop\n        /* \"#utility.yul\":1546:1664   */\n      pop\n        /* \"#utility.yul\":1197:1671   */\n      swap3\n      pop\n      swap3\n      swap1\n      pop\n      jump\t// out\n        /* \"#utility.yul\":1677:1795   */\n    tag_96:\n        /* \"#utility.yul\":1764:1788   */\n      tag_172\n        /* \"#utility.yul\":1782:1787   */\n      dup2\n        /* \"#utility.yul\":1764:1788   */\n      tag_90\n      jump\t// in\n    tag_172:\n        /* \"#utility.yul\":1759:1762   */\n      dup3\n        /* \"#utility.yul\":1752:1789   */\n      mstore\n        /* \"#utility.yul\":1677:1795   */\n      pop\n      pop\n      jump\t// out\n        /* \"#utility.yul\":1801:1900   */\n    tag_97:\n        /* \"#utility.yul\":1853:1859   */\n      0x00\n        /* \"#utility.yul\":1887:1892   */\n      dup2\n        /* \"#utility.yul\":1881:1893   */\n      mload\n        /* \"#utility.yul\":1871:1893   */\n      swap1\n      pop\n        /* \"#utility.yul\":1801:1900   */\n      swap2\n      swap1\n      pop\n      jump\t// out\n        /* \"#utility.yul\":1906:2075   */\n    tag_98:\n        /* \"#utility.yul\":1990:2001   */\n      0x00\n        /* \"#utility.yul\":2024:2030   */\n      dup3\n        /* \"#utility.yul\":2019:2022   */\n      dup3\n        /* \"#utility.yul\":2012:2031   */\n      mstore\n        /* \"#utility.yul\":2064:2068   */\n      0x20\n        /* \"#utility.yul\":2059:2062   */\n      dup3\n        /* \"#utility.yul\":2055:2069   */\n      add\n        /* \"#utility.yul\":2040:2069   */\n      swap1\n      pop\n        /* \"#utility.yul\":1906:2075   */\n      swap3\n      swap2\n      pop\n      pop\n      jump\t// out\n        /* \"#utility.yul\":2081:2220   */\n    tag_99:\n        /* \"#utility.yul\":2170:2176   */\n      dup3\n        /* \"#utility.yul\":2165:2168   */\n      dup2\n        /* \"#utility.yul\":2160:2163   */\n      dup4\n        /* \"#utility.yul\":2154:2177   */\n      mcopy\n        /* \"#utility.yul\":2211:2212   */\n      0x00\n        /* \"#utility.yul\":2202:2208   */\n      dup4\n        /* \"#utility.yul\":2197:2200   */\n      dup4\n        /* \"#utility.yul\":2193:2209   */\n      add\n        /* \"#utility.yul\":2186:2213   */\n      mstore\n        /* \"#utility.yul\":2081:2220   */\n      pop\n      pop\n      pop\n      jump\t// out\n        /* \"#utility.yul\":2226:2328   */\n    tag_100:\n        /* \"#utility.yul\":2267:2273   */\n      0x00\n        /* \"#utility.yul\":2318:2320   */\n      0x1f\n        /* \"#utility.yul\":2314:2321   */\n      not\n        /* \"#utility.yul\":2309:2311   */\n      0x1f\n        /* \"#utility.yul\":2302:2307   */\n      dup4\n        /* \"#utility.yul\":2298:2312   */\n      add\n        /* \"#utility.yul\":2294:2322   */\n      and\n        /* \"#utility.yul\":2284:2322   */\n      swap1\n      pop\n        /* \"#utility.yul\":2226:2328   */\n      swap2\n      swap1\n      pop\n      jump\t// out\n        /* \"#utility.yul\":2334:2711   */\n    tag_101:\n        /* \"#utility.yul\":2422:2425   */\n      0x00\n        /* \"#utility.yul\":2450:2489   */\n      tag_178\n        /* \"#utility.yul\":2483:2488   */\n      dup3\n        /* \"#utility.yul\":2450:2489   */\n      tag_97\n      jump\t// in\n    tag_178:\n        /* \"#utility.yul\":2505:2576   */\n      tag_179\n        /* \"#utility.yul\":2569:2575   */\n      dup2\n        /* \"#utility.yul\":2564:2567   */\n      dup6\n        /* \"#utility.yul\":2505:2576   */\n      tag_98\n      jump\t// in\n    tag_179:\n        /* \"#utility.yul\":2498:2576   */\n      swap4\n      pop\n        /* \"#utility.yul\":2585:2650   */\n      tag_180\n        /* \"#utility.yul\":2643:2649   */\n      dup2\n        /* \"#utility.yul\":2638:2641   */\n      dup6\n        /* \"#utility.yul\":2631:2635   */\n      0x20\n        /* \"#utility.yul\":2624:2629   */\n      dup7\n        /* \"#utility.yul\":2620:2636   */\n      add\n        /* \"#utility.yul\":2585:2650   */\n      tag_99\n      jump\t// in\n    tag_180:\n        /* \"#utility.yul\":2675:2704   */\n      tag_181\n        /* \"#utility.yul\":2697:2703   */\n      dup2\n        /* \"#utility.yul\":2675:2704   */\n      tag_100\n      jump\t// in\n    tag_181:\n        /* \"#utility.yul\":2670:2673   */\n      dup5\n        /* \"#utility.yul\":2666:2705   */\n      add\n        /* \"#utility.yul\":2659:2705   */\n      swap2\n      pop\n        /* \"#utility.yul\":2426:2711   */\n      pop\n        /* \"#utility.yul\":2334:2711   */\n      swap3\n      swap2\n      pop\n      pop\n      jump\t// out\n        /* \"#utility.yul\":2717:2835   */\n    tag_102:\n        /* \"#utility.yul\":2804:2828   */\n      tag_183\n        /* \"#utility.yul\":2822:2827   */\n      dup2\n        /* \"#utility.yul\":2804:2828   */\n      tag_93\n      jump\t// in\n    tag_183:\n        /* \"#utility.yul\":2799:2802   */\n      dup3\n        /* \"#utility.yul\":2792:2829   */\n      mstore\n        /* \"#utility.yul\":2717:2835   */\n      pop\n      pop\n      jump\t// out\n        /* \"#utility.yul\":2841:3485   */\n    tag_16:\n        /* \"#utility.yul\":3038:3042   */\n      0x00\n        /* \"#utility.yul\":3076:3079   */\n      0x80\n        /* \"#utility.yul\":3065:3074   */\n      dup3\n        /* \"#utility.yul\":3061:3080   */\n      add\n        /* \"#utility.yul\":3053:3080   */\n      swap1\n      pop\n        /* \"#utility.yul\":3090:3161   */\n      tag_185\n        /* \"#utility.yul\":3158:3159   */\n      0x00\n        /* \"#utility.yul\":3147:3156   */\n      dup4\n        /* \"#utility.yul\":3143:3160   */\n      add\n        /* \"#utility.yul\":3134:3140   */\n      dup8\n        /* \"#utility.yul\":3090:3161   */\n      tag_96\n      jump\t// in\n    tag_185:\n        /* \"#utility.yul\":3208:3217   */\n      dup2\n        /* \"#utility.yul\":3202:3206   */\n      dup2\n        /* \"#utility.yul\":3198:3218   */\n      sub\n        /* \"#utility.yul\":3193:3195   */\n      0x20\n        /* \"#utility.yul\":3182:3191   */\n      dup4\n        /* \"#utility.yul\":3178:3196   */\n      add\n        /* \"#utility.yul\":3171:3219   */\n      mstore\n        /* \"#utility.yul\":3236:3314   */\n      tag_186\n        /* \"#utility.yul\":3309:3313   */\n      dup2\n        /* \"#utility.yul\":3300:3306   */\n      dup7\n        /* \"#utility.yul\":3236:3314   */\n      tag_101\n      jump\t// in\n    tag_186:\n        /* \"#utility.yul\":3228:3314   */\n      swap1\n      pop\n        /* \"#utility.yul\":3324:3396   */\n      tag_187\n        /* \"#utility.yul\":3392:3394   */\n      0x40\n        /* \"#utility.yul\":3381:3390   */\n      dup4\n        /* \"#utility.yul\":3377:3395   */\n      add\n        /* \"#utility.yul\":3368:3374   */\n      dup6\n        /* \"#utility.yul\":3324:3396   */\n      tag_102\n      jump\t// in\n    tag_187:\n        /* \"#utility.yul\":3406:3478   */\n      tag_188\n        /* \"#utility.yul\":3474:3476   */\n      0x60\n        /* \"#utility.yul\":3463:3472   */\n      dup4\n        /* \"#utility.yul\":3459:3477   */\n      add\n        /* \"#utility.yul\":3450:3456   */\n      dup5\n        /* \"#utility.yul\":3406:3478   */\n      tag_102\n      jump\t// in\n    tag_188:\n        /* \"#utility.yul\":2841:3485   */\n      swap6\n      swap5\n      pop\n      pop\n      pop\n      pop\n      pop\n      jump\t// out\n        /* \"#utility.yul\":3491:3580   */\n    tag_103:\n        /* \"#utility.yul\":3527:3534   */\n      0x00\n        /* \"#utility.yul\":3567:3573   */\n      0xffff\n        /* \"#utility.yul\":3560:3565   */\n      dup3\n        /* \"#utility.yul\":3556:3574   */\n      and\n        /* \"#utility.yul\":3545:3574   */\n      swap1\n      pop\n        /* \"#utility.yul\":3491:3580   */\n      swap2\n      swap1\n      pop\n      jump\t// out\n        /* \"#utility.yul\":3586:3706   */\n    tag_104:\n        /* \"#utility.yul\":3658:3681   */\n      tag_191\n        /* \"#utility.yul\":3675:3680   */\n      dup2\n        /* \"#utility.yul\":3658:3681   */\n      tag_103\n      jump\t// in\n    tag_191:\n        /* \"#utility.yul\":3651:3656   */\n      dup2\n        /* \"#utility.yul\":3648:3682   */\n      eq\n        /* \"#utility.yul\":3638:3700   */\n      tag_192\n      jumpi\n        /* \"#utility.yul\":3696:3697   */\n      0x00\n        /* \"#utility.yul\":3693:3694   */\n      0x00\n        /* \"#utility.yul\":3686:3698   */\n      revert\n        /* \"#utility.yul\":3638:3700   */\n    tag_192:\n        /* \"#utility.yul\":3586:3706   */\n      pop\n      jump\t// out\n        /* \"#utility.yul\":3712:3849   */\n    tag_105:\n        /* \"#utility.yul\":3757:3762   */\n      0x00\n        /* \"#utility.yul\":3795:3801   */\n      dup2\n        /* \"#utility.yul\":3782:3802   */\n      calldataload\n        /* \"#utility.yul\":3773:3802   */\n      swap1\n      pop\n        /* \"#utility.yul\":3811:3843   */\n      tag_194\n        /* \"#utility.yul\":3837:3842   */\n      dup2\n        /* \"#utility.yul\":3811:3843   */\n      tag_104\n      jump\t// in\n    tag_194:\n        /* \"#utility.yul\":3712:3849   */\n      swap3\n      swap2\n      pop\n      pop\n      jump\t// out\n        /* \"#utility.yul\":3855:4182   */\n    tag_19:\n        /* \"#utility.yul\":3913:3919   */\n      0x00\n        /* \"#utility.yul\":3962:3964   */\n      0x20\n        /* \"#utility.yul\":3950:3959   */\n      dup3\n        /* \"#utility.yul\":3941:3948   */\n      dup5\n        /* \"#utility.yul\":3937:3960   */\n      sub\n        /* \"#utility.yul\":3933:3965   */\n      slt\n        /* \"#utility.yul\":3930:4049   */\n      iszero\n      tag_196\n      jumpi\n        /* \"#utility.yul\":3968:4047   */\n      tag_197\n      tag_87\n      jump\t// in\n    tag_197:\n        /* \"#utility.yul\":3930:4049   */\n    tag_196:\n        /* \"#utility.yul\":4088:4089   */\n      0x00\n        /* \"#utility.yul\":4113:4165   */\n      tag_198\n        /* \"#utility.yul\":4157:4164   */\n      dup5\n        /* \"#utility.yul\":4148:4154   */\n      dup3\n        /* \"#utility.yul\":4137:4146   */\n      dup6\n        /* \"#utility.yul\":4133:4155   */\n      add\n        /* \"#utility.yul\":4113:4165   */\n      tag_105\n      jump\t// in\n    tag_198:\n        /* \"#utility.yul\":4103:4165   */\n      swap2\n      pop\n        /* \"#utility.yul\":4059:4175   */\n      pop\n        /* \"#utility.yul\":3855:4182   */\n      swap3\n      swap2\n      pop\n      pop\n      jump\t// out\n        /* \"#utility.yul\":4188:4305   */\n    tag_106:\n        /* \"#utility.yul\":4297:4298   */\n      0x00\n        /* \"#utility.yul\":4294:4295   */\n      0x00\n        /* \"#utility.yul\":4287:4299   */\n      revert\n        /* \"#utility.yul\":4311:4428   */\n    tag_107:\n        /* \"#utility.yul\":4420:4421   */\n      0x00\n        /* \"#utility.yul\":4417:4418   */\n      0x00\n        /* \"#utility.yul\":4410:4422   */\n      revert\n        /* \"#utility.yul\":4434:4614   */\n    tag_108:\n        /* \"#utility.yul\":4482:4559   */\n      0x4e487b7100000000000000000000000000000000000000000000000000000000\n        /* \"#utility.yul\":4479:4480   */\n      0x00\n        /* \"#utility.yul\":4472:4560   */\n      mstore\n        /* \"#utility.yul\":4579:4583   */\n      0x41\n        /* \"#utility.yul\":4576:4577   */\n      0x04\n        /* \"#utility.yul\":4569:4584   */\n      mstore\n        /* \"#utility.yul\":4603:4607   */\n      0x24\n        /* \"#utility.yul\":4600:4601   */\n      0x00\n        /* \"#utility.yul\":4593:4608   */\n      revert\n        /* \"#utility.yul\":4620:4901   */\n    tag_109:\n        /* \"#utility.yul\":4703:4730   */\n      tag_203\n        /* \"#utility.yul\":4725:4729   */\n      dup3\n        /* \"#utility.yul\":4703:4730   */\n      tag_100\n      jump\t// in\n    tag_203:\n        /* \"#utility.yul\":4695:4701   */\n      dup2\n        /* \"#utility.yul\":4691:4731   */\n      add\n        /* \"#utility.yul\":4833:4839   */\n      dup2\n        /* \"#utility.yul\":4821:4831   */\n      dup2\n        /* \"#utility.yul\":4818:4840   */\n      lt\n        /* \"#utility.yul\":4797:4815   */\n      0xffffffffffffffff\n        /* \"#utility.yul\":4785:4795   */\n      dup3\n        /* \"#utility.yul\":4782:4816   */\n      gt\n        /* \"#utility.yul\":4779:4841   */\n      or\n        /* \"#utility.yul\":4776:4864   */\n      iszero\n      tag_204\n      jumpi\n        /* \"#utility.yul\":4844:4862   */\n      tag_205\n      tag_108\n      jump\t// in\n    tag_205:\n        /* \"#utility.yul\":4776:4864   */\n    tag_204:\n        /* \"#utility.yul\":4884:4894   */\n      dup1\n        /* \"#utility.yul\":4880:4882   */\n      0x40\n        /* \"#utility.yul\":4873:4895   */\n      mstore\n        /* \"#utility.yul\":4663:4901   */\n      pop\n        /* \"#utility.yul\":4620:4901   */\n      pop\n      pop\n      jump\t// out\n        /* \"#utility.yul\":4907:5036   */\n    tag_110:\n        /* \"#utility.yul\":4941:4947   */\n      0x00\n        /* \"#utility.yul\":4968:4988   */\n      tag_207\n      tag_86\n      jump\t// in\n    tag_207:\n        /* \"#utility.yul\":4958:4988   */\n      swap1\n      pop\n        /* \"#utility.yul\":4997:5030   */\n      tag_208\n        /* \"#utility.yul\":5025:5029   */\n      dup3\n        /* \"#utility.yul\":5017:5023   */\n      dup3\n        /* \"#utility.yul\":4997:5030   */\n      tag_109\n      jump\t// in\n    tag_208:\n        /* \"#utility.yul\":4907:5036   */\n      swap2\n      swap1\n      pop\n      jump\t// out\n        /* \"#utility.yul\":5042:5350   */\n    tag_111:\n        /* \"#utility.yul\":5104:5108   */\n      0x00\n        /* \"#utility.yul\":5194:5212   */\n      0xffffffffffffffff\n        /* \"#utility.yul\":5186:5192   */\n      dup3\n        /* \"#utility.yul\":5183:5213   */\n      gt\n        /* \"#utility.yul\":5180:5236   */\n      iszero\n      tag_210\n      jumpi\n        /* \"#utility.yul\":5216:5234   */\n      tag_211\n      tag_108\n      jump\t// in\n    tag_211:\n        /* \"#utility.yul\":5180:5236   */\n    tag_210:\n        /* \"#utility.yul\":5254:5283   */\n      tag_212\n        /* \"#utility.yul\":5276:5282   */\n      dup3\n        /* \"#utility.yul\":5254:5283   */\n      tag_100\n      jump\t// in\n    tag_212:\n        /* \"#utility.yul\":5246:5283   */\n      swap1\n      pop\n        /* \"#utility.yul\":5338:5342   */\n      0x20\n        /* \"#utility.yul\":5332:5336   */\n      dup2\n        /* \"#utility.yul\":5328:5343   */\n      add\n        /* \"#utility.yul\":5320:5343   */\n      swap1\n      pop\n        /* \"#utility.yul\":5042:5350   */\n      swap2\n      swap1\n      pop\n      jump\t// out\n        /* \"#utility.yul\":5356:5504   */\n    tag_112:\n        /* \"#utility.yul\":5454:5460   */\n      dup3\n        /* \"#utility.yul\":5449:5452   */\n      dup2\n        /* \"#utility.yul\":5444:5447   */\n      dup4\n        /* \"#utility.yul\":5431:5461   */\n      calldatacopy\n        /* \"#utility.yul\":5495:5496   */\n      0x00\n        /* \"#utility.yul\":5486:5492   */\n      dup4\n        /* \"#utility.yul\":5481:5484   */\n      dup4\n        /* \"#utility.yul\":5477:5493   */\n      add\n        /* \"#utility.yul\":5470:5497   */\n      mstore\n        /* \"#utility.yul\":5356:5504   */\n      pop\n      pop\n      pop\n      jump\t// out\n        /* \"#utility.yul\":5510:5935   */\n    tag_113:\n        /* \"#utility.yul\":5588:5593   */\n      0x00\n        /* \"#utility.yul\":5613:5679   */\n      tag_215\n        /* \"#utility.yul\":5629:5678   */\n      tag_216\n        /* \"#utility.yul\":5671:5677   */\n      dup5\n        /* \"#utility.yul\":5629:5678   */\n      tag_111\n      jump\t// in\n    tag_216:\n        /* \"#utility.yul\":5613:5679   */\n      tag_110\n      jump\t// in\n    tag_215:\n        /* \"#utility.yul\":5604:5679   */\n      swap1\n      pop\n        /* \"#utility.yul\":5702:5708   */\n      dup3\n        /* \"#utility.yul\":5695:5700   */\n      dup2\n        /* \"#utility.yul\":5688:5709   */\n      mstore\n        /* \"#utility.yul\":5740:5744   */\n      0x20\n        /* \"#utility.yul\":5733:5738   */\n      dup2\n        /* \"#utility.yul\":5729:5745   */\n      add\n        /* \"#utility.yul\":5778:5781   */\n      dup5\n        /* \"#utility.yul\":5769:5775   */\n      dup5\n        /* \"#utility.yul\":5764:5767   */\n      dup5\n        /* \"#utility.yul\":5760:5776   */\n      add\n        /* \"#utility.yul\":5757:5782   */\n      gt\n        /* \"#utility.yul\":5754:5866   */\n      iszero\n      tag_217\n      jumpi\n        /* \"#utility.yul\":5785:5864   */\n      tag_218\n      tag_107\n      jump\t// in\n    tag_218:\n        /* \"#utility.yul\":5754:5866   */\n    tag_217:\n        /* \"#utility.yul\":5875:5929   */\n      tag_219\n        /* \"#utility.yul\":5922:5928   */\n      dup5\n        /* \"#utility.yul\":5917:5920   */\n      dup3\n        /* \"#utility.yul\":5912:5915   */\n      dup6\n        /* \"#utility.yul\":5875:5929   */\n      tag_112\n      jump\t// in\n    tag_219:\n        /* \"#utility.yul\":5594:5935   */\n      pop\n        /* \"#utility.yul\":5510:5935   */\n      swap4\n      swap3\n      pop\n      pop\n      pop\n      jump\t// out\n        /* \"#utility.yul\":5955:6295   */\n    tag_114:\n        /* \"#utility.yul\":6011:6016   */\n      0x00\n        /* \"#utility.yul\":6060:6063   */\n      dup3\n        /* \"#utility.yul\":6053:6057   */\n      0x1f\n        /* \"#utility.yul\":6045:6051   */\n      dup4\n        /* \"#utility.yul\":6041:6058   */\n      add\n        /* \"#utility.yul\":6037:6064   */\n      slt\n        /* \"#utility.yul\":6027:6149   */\n      tag_221\n      jumpi\n        /* \"#utility.yul\":6068:6147   */\n      tag_222\n      tag_106\n      jump\t// in\n    tag_222:\n        /* \"#utility.yul\":6027:6149   */\n    tag_221:\n        /* \"#utility.yul\":6185:6191   */\n      dup2\n        /* \"#utility.yul\":6172:6192   */\n      calldataload\n        /* \"#utility.yul\":6210:6289   */\n      tag_223\n        /* \"#utility.yul\":6285:6288   */\n      dup5\n        /* \"#utility.yul\":6277:6283   */\n      dup3\n        /* \"#utility.yul\":6270:6274   */\n      0x20\n        /* \"#utility.yul\":6262:6268   */\n      dup7\n        /* \"#utility.yul\":6258:6275   */\n      add\n        /* \"#utility.yul\":6210:6289   */\n      tag_113\n      jump\t// in\n    tag_223:\n        /* \"#utility.yul\":6201:6289   */\n      swap2\n      pop\n        /* \"#utility.yul\":6017:6295   */\n      pop\n        /* \"#utility.yul\":5955:6295   */\n      swap3\n      swap2\n      pop\n      pop\n      jump\t// out\n        /* \"#utility.yul\":6301:6810   */\n    tag_23:\n        /* \"#utility.yul\":6370:6376   */\n      0x00\n        /* \"#utility.yul\":6419:6421   */\n      0x20\n        /* \"#utility.yul\":6407:6416   */\n      dup3\n        /* \"#utility.yul\":6398:6405   */\n      dup5\n        /* \"#utility.yul\":6394:6417   */\n      sub\n        /* \"#utility.yul\":6390:6422   */\n      slt\n        /* \"#utility.yul\":6387:6506   */\n      iszero\n      tag_225\n      jumpi\n        /* \"#utility.yul\":6425:6504   */\n      tag_226\n      tag_87\n      jump\t// in\n    tag_226:\n        /* \"#utility.yul\":6387:6506   */\n    tag_225:\n        /* \"#utility.yul\":6573:6574   */\n      0x00\n        /* \"#utility.yul\":6562:6571   */\n      dup3\n        /* \"#utility.yul\":6558:6575   */\n      add\n        /* \"#utility.yul\":6545:6576   */\n      calldataload\n        /* \"#utility.yul\":6603:6621   */\n      0xffffffffffffffff\n        /* \"#utility.yul\":6595:6601   */\n      dup2\n        /* \"#utility.yul\":6592:6622   */\n      gt\n        /* \"#utility.yul\":6589:6706   */\n      iszero\n      tag_227\n      jumpi\n        /* \"#utility.yul\":6625:6704   */\n      tag_228\n      tag_88\n      jump\t// in\n    tag_228:\n        /* \"#utility.yul\":6589:6706   */\n    tag_227:\n        /* \"#utility.yul\":6730:6793   */\n      tag_229\n        /* \"#utility.yul\":6785:6792   */\n      dup5\n        /* \"#utility.yul\":6776:6782   */\n      dup3\n        /* \"#utility.yul\":6765:6774   */\n      dup6\n        /* \"#utility.yul\":6761:6783   */\n      add\n        /* \"#utility.yul\":6730:6793   */\n      tag_114\n      jump\t// in\n    tag_229:\n        /* \"#utility.yul\":6720:6793   */\n      swap2\n      pop\n        /* \"#utility.yul\":6516:6803   */\n      pop\n        /* \"#utility.yul\":6301:6810   */\n      swap3\n      swap2\n      pop\n      pop\n      jump\t// out\n        /* \"#utility.yul\":6816:7038   */\n    tag_28:\n        /* \"#utility.yul\":6909:6913   */\n      0x00\n        /* \"#utility.yul\":6947:6949   */\n      0x20\n        /* \"#utility.yul\":6936:6945   */\n      dup3\n        /* \"#utility.yul\":6932:6950   */\n      add\n        /* \"#utility.yul\":6924:6950   */\n      swap1\n      pop\n        /* \"#utility.yul\":6960:7031   */\n      tag_231\n        /* \"#utility.yul\":7028:7029   */\n      0x00\n        /* \"#utility.yul\":7017:7026   */\n      dup4\n        /* \"#utility.yul\":7013:7030   */\n      add\n        /* \"#utility.yul\":7004:7010   */\n      dup5\n        /* \"#utility.yul\":6960:7031   */\n      tag_96\n      jump\t// in\n    tag_231:\n        /* \"#utility.yul\":6816:7038   */\n      swap3\n      swap2\n      pop\n      pop\n      jump\t// out\n        /* \"#utility.yul\":7044:7373   */\n    tag_31:\n        /* \"#utility.yul\":7103:7109   */\n      0x00\n        /* \"#utility.yul\":7152:7154   */\n      0x20\n        /* \"#utility.yul\":7140:7149   */\n      dup3\n        /* \"#utility.yul\":7131:7138   */\n      dup5\n        /* \"#utility.yul\":7127:7150   */\n      sub\n        /* \"#utility.yul\":7123:7155   */\n      slt\n        /* \"#utility.yul\":7120:7239   */\n      iszero\n      tag_233\n      jumpi\n        /* \"#utility.yul\":7158:7237   */\n      tag_234\n      tag_87\n      jump\t// in\n    tag_234:\n        /* \"#utility.yul\":7120:7239   */\n    tag_233:\n        /* \"#utility.yul\":7278:7279   */\n      0x00\n        /* \"#utility.yul\":7303:7356   */\n      tag_235\n        /* \"#utility.yul\":7348:7355   */\n      dup5\n        /* \"#utility.yul\":7339:7345   */\n      dup3\n        /* \"#utility.yul\":7328:7337   */\n      dup6\n        /* \"#utility.yul\":7324:7346   */\n      add\n        /* \"#utility.yul\":7303:7356   */\n      tag_92\n      jump\t// in\n    tag_235:\n        /* \"#utility.yul\":7293:7356   */\n      swap2\n      pop\n        /* \"#utility.yul\":7249:7366   */\n      pop\n        /* \"#utility.yul\":7044:7373   */\n      swap3\n      swap2\n      pop\n      pop\n      jump\t// out\n        /* \"#utility.yul\":7379:7514   */\n    tag_115:\n        /* \"#utility.yul\":7467:7473   */\n      0x00\n        /* \"#utility.yul\":7501:7506   */\n      dup2\n        /* \"#utility.yul\":7495:7507   */\n      mload\n        /* \"#utility.yul\":7485:7507   */\n      swap1\n      pop\n        /* \"#utility.yul\":7379:7514   */\n      swap2\n      swap1\n      pop\n      jump\t// out\n        /* \"#utility.yul\":7520:7725   */\n    tag_116:\n        /* \"#utility.yul\":7640:7651   */\n      0x00\n        /* \"#utility.yul\":7674:7680   */\n      dup3\n        /* \"#utility.yul\":7669:7672   */\n      dup3\n        /* \"#utility.yul\":7662:7681   */\n      mstore\n        /* \"#utility.yul\":7714:7718   */\n      0x20\n        /* \"#utility.yul\":7709:7712   */\n      dup3\n        /* \"#utility.yul\":7705:7719   */\n      add\n        /* \"#utility.yul\":7690:7719   */\n      swap1\n      pop\n        /* \"#utility.yul\":7520:7725   */\n      swap3\n      swap2\n      pop\n      pop\n      jump\t// out\n        /* \"#utility.yul\":7731:7884   */\n    tag_117:\n        /* \"#utility.yul\":7819:7823   */\n      0x00\n        /* \"#utility.yul\":7842:7845   */\n      dup2\n        /* \"#utility.yul\":7834:7845   */\n      swap1\n      pop\n        /* \"#utility.yul\":7872:7876   */\n      0x20\n        /* \"#utility.yul\":7867:7870   */\n      dup3\n        /* \"#utility.yul\":7863:7877   */\n      add\n        /* \"#utility.yul\":7855:7877   */\n      swap1\n      pop\n        /* \"#utility.yul\":7731:7884   */\n      swap2\n      swap1\n      pop\n      jump\t// out\n        /* \"#utility.yul\":7890:7998   */\n    tag_118:\n        /* \"#utility.yul\":7967:7991   */\n      tag_240\n        /* \"#utility.yul\":7985:7990   */\n      dup2\n        /* \"#utility.yul\":7967:7991   */\n      tag_90\n      jump\t// in\n    tag_240:\n        /* \"#utility.yul\":7962:7965   */\n      dup3\n        /* \"#utility.yul\":7955:7992   */\n      mstore\n        /* \"#utility.yul\":7890:7998   */\n      pop\n      pop\n      jump\t// out\n        /* \"#utility.yul\":8004:8163   */\n    tag_119:\n        /* \"#utility.yul\":8078:8089   */\n      0x00\n        /* \"#utility.yul\":8112:8118   */\n      dup3\n        /* \"#utility.yul\":8107:8110   */\n      dup3\n        /* \"#utility.yul\":8100:8119   */\n      mstore\n        /* \"#utility.yul\":8152:8156   */\n      0x20\n        /* \"#utility.yul\":8147:8150   */\n      dup3\n        /* \"#utility.yul\":8143:8157   */\n      add\n        /* \"#utility.yul\":8128:8157   */\n      swap1\n      pop\n        /* \"#utility.yul\":8004:8163   */\n      swap3\n      swap2\n      pop\n      pop\n      jump\t// out\n        /* \"#utility.yul\":8169:8526   */\n    tag_120:\n        /* \"#utility.yul\":8247:8250   */\n      0x00\n        /* \"#utility.yul\":8275:8314   */\n      tag_243\n        /* \"#utility.yul\":8308:8313   */\n      dup3\n        /* \"#utility.yul\":8275:8314   */\n      tag_97\n      jump\t// in\n    tag_243:\n        /* \"#utility.yul\":8330:8391   */\n      tag_244\n        /* \"#utility.yul\":8384:8390   */\n      dup2\n        /* \"#utility.yul\":8379:8382   */\n      dup6\n        /* \"#utility.yul\":8330:8391   */\n      tag_119\n      jump\t// in\n    tag_244:\n        /* \"#utility.yul\":8323:8391   */\n      swap4\n      pop\n        /* \"#utility.yul\":8400:8465   */\n      tag_245\n        /* \"#utility.yul\":8458:8464   */\n      dup2\n        /* \"#utility.yul\":8453:8456   */\n      dup6\n        /* \"#utility.yul\":8446:8450   */\n      0x20\n        /* \"#utility.yul\":8439:8444   */\n      dup7\n        /* \"#utility.yul\":8435:8451   */\n      add\n        /* \"#utility.yul\":8400:8465   */\n      tag_99\n      jump\t// in\n    tag_245:\n        /* \"#utility.yul\":8490:8519   */\n      tag_246\n        /* \"#utility.yul\":8512:8518   */\n      dup2\n        /* \"#utility.yul\":8490:8519   */\n      tag_100\n      jump\t// in\n    tag_246:\n        /* \"#utility.yul\":8485:8488   */\n      dup5\n        /* \"#utility.yul\":8481:8520   */\n      add\n        /* \"#utility.yul\":8474:8520   */\n      swap2\n      pop\n        /* \"#utility.yul\":8251:8526   */\n      pop\n        /* \"#utility.yul\":8169:8526   */\n      swap3\n      swap2\n      pop\n      pop\n      jump\t// out\n        /* \"#utility.yul\":8532:8640   */\n    tag_121:\n        /* \"#utility.yul\":8609:8633   */\n      tag_248\n        /* \"#utility.yul\":8627:8632   */\n      dup2\n        /* \"#utility.yul\":8609:8633   */\n      tag_93\n      jump\t// in\n    tag_248:\n        /* \"#utility.yul\":8604:8607   */\n      dup3\n        /* \"#utility.yul\":8597:8634   */\n      mstore\n        /* \"#utility.yul\":8532:8640   */\n      pop\n      pop\n      jump\t// out\n        /* \"#utility.yul\":8698:9645   */\n    tag_122:\n        /* \"#utility.yul\":8799:8802   */\n      0x00\n        /* \"#utility.yul\":8835:8839   */\n      0x80\n        /* \"#utility.yul\":8830:8833   */\n      dup4\n        /* \"#utility.yul\":8826:8840   */\n      add\n        /* \"#utility.yul\":8924:8928   */\n      0x00\n        /* \"#utility.yul\":8917:8922   */\n      dup4\n        /* \"#utility.yul\":8913:8929   */\n      add\n        /* \"#utility.yul\":8907:8930   */\n      mload\n        /* \"#utility.yul\":8943:9006   */\n      tag_250\n        /* \"#utility.yul\":9000:9004   */\n      0x00\n        /* \"#utility.yul\":8995:8998   */\n      dup7\n        /* \"#utility.yul\":8991:9005   */\n      add\n        /* \"#utility.yul\":8977:8989   */\n      dup3\n        /* \"#utility.yul\":8943:9006   */\n      tag_118\n      jump\t// in\n    tag_250:\n        /* \"#utility.yul\":8850:9016   */\n      pop\n        /* \"#utility.yul\":9101:9105   */\n      0x20\n        /* \"#utility.yul\":9094:9099   */\n      dup4\n        /* \"#utility.yul\":9090:9106   */\n      add\n        /* \"#utility.yul\":9084:9107   */\n      mload\n        /* \"#utility.yul\":9154:9157   */\n      dup5\n        /* \"#utility.yul\":9148:9152   */\n      dup3\n        /* \"#utility.yul\":9144:9158   */\n      sub\n        /* \"#utility.yul\":9137:9141   */\n      0x20\n        /* \"#utility.yul\":9132:9135   */\n      dup7\n        /* \"#utility.yul\":9128:9142   */\n      add\n        /* \"#utility.yul\":9121:9159   */\n      mstore\n        /* \"#utility.yul\":9180:9253   */\n      tag_251\n        /* \"#utility.yul\":9248:9252   */\n      dup3\n        /* \"#utility.yul\":9234:9246   */\n      dup3\n        /* \"#utility.yul\":9180:9253   */\n      tag_120\n      jump\t// in\n    tag_251:\n        /* \"#utility.yul\":9172:9253   */\n      swap2\n      pop\n        /* \"#utility.yul\":9026:9264   */\n      pop\n        /* \"#utility.yul\":9351:9355   */\n      0x40\n        /* \"#utility.yul\":9344:9349   */\n      dup4\n        /* \"#utility.yul\":9340:9356   */\n      add\n        /* \"#utility.yul\":9334:9357   */\n      mload\n        /* \"#utility.yul\":9370:9433   */\n      tag_252\n        /* \"#utility.yul\":9427:9431   */\n      0x40\n        /* \"#utility.yul\":9422:9425   */\n      dup7\n        /* \"#utility.yul\":9418:9432   */\n      add\n        /* \"#utility.yul\":9404:9416   */\n      dup3\n        /* \"#utility.yul\":9370:9433   */\n      tag_121\n      jump\t// in\n    tag_252:\n        /* \"#utility.yul\":9274:9443   */\n      pop\n        /* \"#utility.yul\":9526:9530   */\n      0x60\n        /* \"#utility.yul\":9519:9524   */\n      dup4\n        /* \"#utility.yul\":9515:9531   */\n      add\n        /* \"#utility.yul\":9509:9532   */\n      mload\n        /* \"#utility.yul\":9545:9608   */\n      tag_253\n        /* \"#utility.yul\":9602:9606   */\n      0x60\n        /* \"#utility.yul\":9597:9600   */\n      dup7\n        /* \"#utility.yul\":9593:9607   */\n      add\n        /* \"#utility.yul\":9579:9591   */\n      dup3\n        /* \"#utility.yul\":9545:9608   */\n      tag_121\n      jump\t// in\n    tag_253:\n        /* \"#utility.yul\":9453:9618   */\n      pop\n        /* \"#utility.yul\":9635:9639   */\n      dup1\n        /* \"#utility.yul\":9628:9639   */\n      swap2\n      pop\n        /* \"#utility.yul\":8804:9645   */\n      pop\n        /* \"#utility.yul\":8698:9645   */\n      swap3\n      swap2\n      pop\n      pop\n      jump\t// out\n        /* \"#utility.yul\":9651:9891   */\n    tag_123:\n        /* \"#utility.yul\":9762:9772   */\n      0x00\n        /* \"#utility.yul\":9797:9885   */\n      tag_255\n        /* \"#utility.yul\":9881:9884   */\n      dup4\n        /* \"#utility.yul\":9873:9879   */\n      dup4\n        /* \"#utility.yul\":9797:9885   */\n      tag_122\n      jump\t// in\n    tag_255:\n        /* \"#utility.yul\":9783:9885   */\n      swap1\n      pop\n        /* \"#utility.yul\":9651:9891   */\n      swap3\n      swap2\n      pop\n      pop\n      jump\t// out\n        /* \"#utility.yul\":9897:10031   */\n    tag_124:\n        /* \"#utility.yul\":9988:9992   */\n      0x00\n        /* \"#utility.yul\":10020:10024   */\n      0x20\n        /* \"#utility.yul\":10015:10018   */\n      dup3\n        /* \"#utility.yul\":10011:10025   */\n      add\n        /* \"#utility.yul\":10003:10025   */\n      swap1\n      pop\n        /* \"#utility.yul\":9897:10031   */\n      swap2\n      swap1\n      pop\n      jump\t// out\n        /* \"#utility.yul\":10093:11172   */\n    tag_125:\n        /* \"#utility.yul\":10254:10257   */\n      0x00\n        /* \"#utility.yul\":10283:10358   */\n      tag_258\n        /* \"#utility.yul\":10352:10357   */\n      dup3\n        /* \"#utility.yul\":10283:10358   */\n      tag_115\n      jump\t// in\n    tag_258:\n        /* \"#utility.yul\":10374:10481   */\n      tag_259\n        /* \"#utility.yul\":10474:10480   */\n      dup2\n        /* \"#utility.yul\":10469:10472   */\n      dup6\n        /* \"#utility.yul\":10374:10481   */\n      tag_116\n      jump\t// in\n    tag_259:\n        /* \"#utility.yul\":10367:10481   */\n      swap4\n      pop\n        /* \"#utility.yul\":10507:10510   */\n      dup4\n        /* \"#utility.yul\":10552:10556   */\n      0x20\n        /* \"#utility.yul\":10544:10550   */\n      dup3\n        /* \"#utility.yul\":10540:10557   */\n      mul\n        /* \"#utility.yul\":10535:10538   */\n      dup6\n        /* \"#utility.yul\":10531:10558   */\n      add\n        /* \"#utility.yul\":10582:10659   */\n      tag_260\n        /* \"#utility.yul\":10653:10658   */\n      dup6\n        /* \"#utility.yul\":10582:10659   */\n      tag_117\n      jump\t// in\n    tag_260:\n        /* \"#utility.yul\":10682:10689   */\n      dup1\n        /* \"#utility.yul\":10713:10714   */\n      0x00\n        /* \"#utility.yul\":10698:11127   */\n    tag_261:\n        /* \"#utility.yul\":10723:10729   */\n      dup6\n        /* \"#utility.yul\":10720:10721   */\n      dup2\n        /* \"#utility.yul\":10717:10730   */\n      lt\n        /* \"#utility.yul\":10698:11127   */\n      iszero\n      tag_263\n      jumpi\n        /* \"#utility.yul\":10794:10803   */\n      dup5\n        /* \"#utility.yul\":10788:10792   */\n      dup5\n        /* \"#utility.yul\":10784:10804   */\n      sub\n        /* \"#utility.yul\":10779:10782   */\n      dup10\n        /* \"#utility.yul\":10772:10805   */\n      mstore\n        /* \"#utility.yul\":10845:10851   */\n      dup2\n        /* \"#utility.yul\":10839:10852   */\n      mload\n        /* \"#utility.yul\":10873:10979   */\n      tag_264\n        /* \"#utility.yul\":10974:10978   */\n      dup6\n        /* \"#utility.yul\":10959:10972   */\n      dup3\n        /* \"#utility.yul\":10873:10979   */\n      tag_123\n      jump\t// in\n    tag_264:\n        /* \"#utility.yul\":10865:10979   */\n      swap5\n      pop\n        /* \"#utility.yul\":11002:11083   */\n      tag_265\n        /* \"#utility.yul\":11076:11082   */\n      dup4\n        /* \"#utility.yul\":11002:11083   */\n      tag_124\n      jump\t// in\n    tag_265:\n        /* \"#utility.yul\":10992:11083   */\n      swap3\n      pop\n        /* \"#utility.yul\":11112:11116   */\n      0x20\n        /* \"#utility.yul\":11107:11110   */\n      dup11\n        /* \"#utility.yul\":11103:11117   */\n      add\n        /* \"#utility.yul\":11096:11117   */\n      swap10\n      pop\n        /* \"#utility.yul\":10758:11127   */\n      pop\n        /* \"#utility.yul\":10745:10746   */\n      0x01\n        /* \"#utility.yul\":10742:10743   */\n      dup2\n        /* \"#utility.yul\":10738:10747   */\n      add\n        /* \"#utility.yul\":10733:10747   */\n      swap1\n      pop\n        /* \"#utility.yul\":10698:11127   */\n      jump(tag_261)\n    tag_263:\n        /* \"#utility.yul\":10702:10716   */\n      pop\n        /* \"#utility.yul\":11143:11147   */\n      dup3\n        /* \"#utility.yul\":11136:11147   */\n      swap8\n      pop\n        /* \"#utility.yul\":11163:11166   */\n      dup8\n        /* \"#utility.yul\":11156:11166   */\n      swap6\n      pop\n        /* \"#utility.yul\":10259:11172   */\n      pop\n      pop\n      pop\n      pop\n      pop\n        /* \"#utility.yul\":10093:11172   */\n      swap3\n      swap2\n      pop\n      pop\n      jump\t// out\n        /* \"#utility.yul\":11178:11635   */\n    tag_34:\n        /* \"#utility.yul\":11363:11367   */\n      0x00\n        /* \"#utility.yul\":11401:11403   */\n      0x20\n        /* \"#utility.yul\":11390:11399   */\n      dup3\n        /* \"#utility.yul\":11386:11404   */\n      add\n        /* \"#utility.yul\":11378:11404   */\n      swap1\n      pop\n        /* \"#utility.yul\":11450:11459   */\n      dup2\n        /* \"#utility.yul\":11444:11448   */\n      dup2\n        /* \"#utility.yul\":11440:11460   */\n      sub\n        /* \"#utility.yul\":11436:11437   */\n      0x00\n        /* \"#utility.yul\":11425:11434   */\n      dup4\n        /* \"#utility.yul\":11421:11438   */\n      add\n        /* \"#utility.yul\":11414:11461   */\n      mstore\n        /* \"#utility.yul\":11478:11628   */\n      tag_267\n        /* \"#utility.yul\":11623:11627   */\n      dup2\n        /* \"#utility.yul\":11614:11620   */\n      dup5\n        /* \"#utility.yul\":11478:11628   */\n      tag_125\n      jump\t// in\n    tag_267:\n        /* \"#utility.yul\":11470:11628   */\n      swap1\n      pop\n        /* \"#utility.yul\":11178:11635   */\n      swap3\n      swap2\n      pop\n      pop\n      jump\t// out\n        /* \"#utility.yul\":11641:11970   */\n    tag_37:\n        /* \"#utility.yul\":11700:11706   */\n      0x00\n        /* \"#utility.yul\":11749:11751   */\n      0x20\n        /* \"#utility.yul\":11737:11746   */\n      dup3\n        /* \"#utility.yul\":11728:11735   */\n      dup5\n        /* \"#utility.yul\":11724:11747   */\n      sub\n        /* \"#utility.yul\":11720:11752   */\n      slt\n        /* \"#utility.yul\":11717:11836   */\n      iszero\n      tag_269\n      jumpi\n        /* \"#utility.yul\":11755:11834   */\n      tag_270\n      tag_87\n      jump\t// in\n    tag_270:\n        /* \"#utility.yul\":11717:11836   */\n    tag_269:\n        /* \"#utility.yul\":11875:11876   */\n      0x00\n        /* \"#utility.yul\":11900:11953   */\n      tag_271\n        /* \"#utility.yul\":11945:11952   */\n      dup5\n        /* \"#utility.yul\":11936:11942   */\n      dup3\n        /* \"#utility.yul\":11925:11934   */\n      dup6\n        /* \"#utility.yul\":11921:11943   */\n      add\n        /* \"#utility.yul\":11900:11953   */\n      tag_95\n      jump\t// in\n    tag_271:\n        /* \"#utility.yul\":11890:11953   */\n      swap2\n      pop\n        /* \"#utility.yul\":11846:11963   */\n      pop\n        /* \"#utility.yul\":11641:11970   */\n      swap3\n      swap2\n      pop\n      pop\n      jump\t// out\n        /* \"#utility.yul\":12028:12985   */\n    tag_126:\n        /* \"#utility.yul\":12139:12142   */\n      0x00\n        /* \"#utility.yul\":12175:12179   */\n      0x80\n        /* \"#utility.yul\":12170:12173   */\n      dup4\n        /* \"#utility.yul\":12166:12180   */\n      add\n        /* \"#utility.yul\":12264:12268   */\n      0x00\n        /* \"#utility.yul\":12257:12262   */\n      dup4\n        /* \"#utility.yul\":12253:12269   */\n      add\n        /* \"#utility.yul\":12247:12270   */\n      mload\n        /* \"#utility.yul\":12283:12346   */\n      tag_273\n        /* \"#utility.yul\":12340:12344   */\n      0x00\n        /* \"#utility.yul\":12335:12338   */\n      dup7\n        /* \"#utility.yul\":12331:12345   */\n      add\n        /* \"#utility.yul\":12317:12329   */\n      dup3\n        /* \"#utility.yul\":12283:12346   */\n      tag_118\n      jump\t// in\n    tag_273:\n        /* \"#utility.yul\":12190:12356   */\n      pop\n        /* \"#utility.yul\":12441:12445   */\n      0x20\n        /* \"#utility.yul\":12434:12439   */\n      dup4\n        /* \"#utility.yul\":12430:12446   */\n      add\n        /* \"#utility.yul\":12424:12447   */\n      mload\n        /* \"#utility.yul\":12494:12497   */\n      dup5\n        /* \"#utility.yul\":12488:12492   */\n      dup3\n        /* \"#utility.yul\":12484:12498   */\n      sub\n        /* \"#utility.yul\":12477:12481   */\n      0x20\n        /* \"#utility.yul\":12472:12475   */\n      dup7\n        /* \"#utility.yul\":12468:12482   */\n      add\n        /* \"#utility.yul\":12461:12499   */\n      mstore\n        /* \"#utility.yul\":12520:12593   */\n      tag_274\n        /* \"#utility.yul\":12588:12592   */\n      dup3\n        /* \"#utility.yul\":12574:12586   */\n      dup3\n        /* \"#utility.yul\":12520:12593   */\n      tag_120\n      jump\t// in\n    tag_274:\n        /* \"#utility.yul\":12512:12593   */\n      swap2\n      pop\n        /* \"#utility.yul\":12366:12604   */\n      pop\n        /* \"#utility.yul\":12691:12695   */\n      0x40\n        /* \"#utility.yul\":12684:12689   */\n      dup4\n        /* \"#utility.yul\":12680:12696   */\n      add\n        /* \"#utility.yul\":12674:12697   */\n      mload\n        /* \"#utility.yul\":12710:12773   */\n      tag_275\n        /* \"#utility.yul\":12767:12771   */\n      0x40\n        /* \"#utility.yul\":12762:12765   */\n      dup7\n        /* \"#utility.yul\":12758:12772   */\n      add\n        /* \"#utility.yul\":12744:12756   */\n      dup3\n        /* \"#utility.yul\":12710:12773   */\n      tag_121\n      jump\t// in\n    tag_275:\n        /* \"#utility.yul\":12614:12783   */\n      pop\n        /* \"#utility.yul\":12866:12870   */\n      0x60\n        /* \"#utility.yul\":12859:12864   */\n      dup4\n        /* \"#utility.yul\":12855:12871   */\n      add\n        /* \"#utility.yul\":12849:12872   */\n      mload\n        /* \"#utility.yul\":12885:12948   */\n      tag_276\n        /* \"#utility.yul\":12942:12946   */\n      0x60\n        /* \"#utility.yul\":12937:12940   */\n      dup7\n        /* \"#utility.yul\":12933:12947   */\n      add\n        /* \"#utility.yul\":12919:12931   */\n      dup3\n        /* \"#utility.yul\":12885:12948   */\n      tag_121\n      jump\t// in\n    tag_276:\n        /* \"#utility.yul\":12793:12958   */\n      pop\n        /* \"#utility.yul\":12975:12979   */\n      dup1\n        /* \"#utility.yul\":12968:12979   */\n      swap2\n      pop\n        /* \"#utility.yul\":12144:12985   */\n      pop\n        /* \"#utility.yul\":12028:12985   */\n      swap3\n      swap2\n      pop\n      pop\n      jump\t// out\n        /* \"#utility.yul\":12991:13348   */\n    tag_40:\n        /* \"#utility.yul\":13126:13130   */\n      0x00\n        /* \"#utility.yul\":13164:13166   */\n      0x20\n        /* \"#utility.yul\":13153:13162   */\n      dup3\n        /* \"#utility.yul\":13149:13167   */\n      add\n        /* \"#utility.yul\":13141:13167   */\n      swap1\n      pop\n        /* \"#utility.yul\":13213:13222   */\n      dup2\n        /* \"#utility.yul\":13207:13211   */\n      dup2\n        /* \"#utility.yul\":13203:13223   */\n      sub\n        /* \"#utility.yul\":13199:13200   */\n      0x00\n        /* \"#utility.yul\":13188:13197   */\n      dup4\n        /* \"#utility.yul\":13184:13201   */\n      add\n        /* \"#utility.yul\":13177:13224   */\n      mstore\n        /* \"#utility.yul\":13241:13341   */\n      tag_278\n        /* \"#utility.yul\":13336:13340   */\n      dup2\n        /* \"#utility.yul\":13327:13333   */\n      dup5\n        /* \"#utility.yul\":13241:13341   */\n      tag_126\n      jump\t// in\n    tag_278:\n        /* \"#utility.yul\":13233:13341   */\n      swap1\n      pop\n        /* \"#utility.yul\":12991:13348   */\n      swap3\n      swap2\n      pop\n      pop\n      jump\t// out\n        /* \"#utility.yul\":13354:13469   */\n    tag_127:\n        /* \"#utility.yul\":13439:13462   */\n      tag_280\n        /* \"#utility.yul\":13456:13461   */\n      dup2\n        /* \"#utility.yul\":13439:13462   */\n      tag_103\n      jump\t// in\n    tag_280:\n        /* \"#utility.yul\":13434:13437   */\n      dup3\n        /* \"#utility.yul\":13427:13463   */\n      mstore\n        /* \"#utility.yul\":13354:13469   */\n      pop\n      pop\n      jump\t// out\n        /* \"#utility.yul\":13475:13693   */\n    tag_44:\n        /* \"#utility.yul\":13566:13570   */\n      0x00\n        /* \"#utility.yul\":13604:13606   */\n      0x20\n        /* \"#utility.yul\":13593:13602   */\n      dup3\n        /* \"#utility.yul\":13589:13607   */\n      add\n        /* \"#utility.yul\":13581:13607   */\n      swap1\n      pop\n        /* \"#utility.yul\":13617:13686   */\n      tag_282\n        /* \"#utility.yul\":13683:13684   */\n      0x00\n        /* \"#utility.yul\":13672:13681   */\n      dup4\n        /* \"#utility.yul\":13668:13685   */\n      add\n        /* \"#utility.yul\":13659:13665   */\n      dup5\n        /* \"#utility.yul\":13617:13686   */\n      tag_127\n      jump\t// in\n    tag_282:\n        /* \"#utility.yul\":13475:13693   */\n      swap3\n      swap2\n      pop\n      pop\n      jump\t// out\n        /* \"#utility.yul\":13699:13879   */\n    tag_128:\n        /* \"#utility.yul\":13747:13824   */\n      0x4e487b7100000000000000000000000000000000000000000000000000000000\n        /* \"#utility.yul\":13744:13745   */\n      0x00\n        /* \"#utility.yul\":13737:13825   */\n      mstore\n        /* \"#utility.yul\":13844:13848   */\n      0x22\n        /* \"#utility.yul\":13841:13842   */\n      0x04\n        /* \"#utility.yul\":13834:13849   */\n      mstore\n        /* \"#utility.yul\":13868:13872   */\n      0x24\n        /* \"#utility.yul\":13865:13866   */\n      0x00\n        /* \"#utility.yul\":13858:13873   */\n      revert\n        /* \"#utility.yul\":13885:14205   */\n    tag_48:\n        /* \"#utility.yul\":13929:13935   */\n      0x00\n        /* \"#utility.yul\":13966:13967   */\n      0x02\n        /* \"#utility.yul\":13960:13964   */\n      dup3\n        /* \"#utility.yul\":13956:13968   */\n      div\n        /* \"#utility.yul\":13946:13968   */\n      swap1\n      pop\n        /* \"#utility.yul\":14013:14014   */\n      0x01\n        /* \"#utility.yul\":14007:14011   */\n      dup3\n        /* \"#utility.yul\":14003:14015   */\n      and\n        /* \"#utility.yul\":14034:14052   */\n      dup1\n        /* \"#utility.yul\":14024:14105   */\n      tag_285\n      jumpi\n        /* \"#utility.yul\":14090:14094   */\n      0x7f\n        /* \"#utility.yul\":14082:14088   */\n      dup3\n        /* \"#utility.yul\":14078:14095   */\n      and\n        /* \"#utility.yul\":14068:14095   */\n      swap2\n      pop\n        /* \"#utility.yul\":14024:14105   */\n    tag_285:\n        /* \"#utility.yul\":14152:14154   */\n      0x20\n        /* \"#utility.yul\":14144:14150   */\n      dup3\n        /* \"#utility.yul\":14141:14155   */\n      lt\n        /* \"#utility.yul\":14121:14139   */\n      dup2\n        /* \"#utility.yul\":14118:14156   */\n      sub\n        /* \"#utility.yul\":14115:14199   */\n      tag_286\n      jumpi\n        /* \"#utility.yul\":14171:14189   */\n      tag_287\n      tag_128\n      jump\t// in\n    tag_287:\n        /* \"#utility.yul\":14115:14199   */\n    tag_286:\n        /* \"#utility.yul\":13936:14205   */\n      pop\n        /* \"#utility.yul\":13885:14205   */\n      swap2\n      swap1\n      pop\n      jump\t// out\n        /* \"#utility.yul\":14211:14382   */\n    tag_129:\n        /* \"#utility.yul\":14351:14374   */\n      0x594f5520415245204e4f5420544845204f574e45520000000000000000000000\n        /* \"#utility.yul\":14347:14348   */\n      0x00\n        /* \"#utility.yul\":14339:14345   */\n      dup3\n        /* \"#utility.yul\":14335:14349   */\n      add\n        /* \"#utility.yul\":14328:14375   */\n      mstore\n        /* \"#utility.yul\":14211:14382   */\n      pop\n      jump\t// out\n        /* \"#utility.yul\":14388:14754   */\n    tag_130:\n        /* \"#utility.yul\":14530:14533   */\n      0x00\n        /* \"#utility.yul\":14551:14618   */\n      tag_290\n        /* \"#utility.yul\":14615:14617   */\n      0x15\n        /* \"#utility.yul\":14610:14613   */\n      dup4\n        /* \"#utility.yul\":14551:14618   */\n      tag_98\n      jump\t// in\n    tag_290:\n        /* \"#utility.yul\":14544:14618   */\n      swap2\n      pop\n        /* \"#utility.yul\":14627:14720   */\n      tag_291\n        /* \"#utility.yul\":14716:14719   */\n      dup3\n        /* \"#utility.yul\":14627:14720   */\n      tag_129\n      jump\t// in\n    tag_291:\n        /* \"#utility.yul\":14745:14747   */\n      0x20\n        /* \"#utility.yul\":14740:14743   */\n      dup3\n        /* \"#utility.yul\":14736:14748   */\n      add\n        /* \"#utility.yul\":14729:14748   */\n      swap1\n      pop\n        /* \"#utility.yul\":14388:14754   */\n      swap2\n      swap1\n      pop\n      jump\t// out\n        /* \"#utility.yul\":14760:15179   */\n    tag_56:\n        /* \"#utility.yul\":14926:14930   */\n      0x00\n        /* \"#utility.yul\":14964:14966   */\n      0x20\n        /* \"#utility.yul\":14953:14962   */\n      dup3\n        /* \"#utility.yul\":14949:14967   */\n      add\n        /* \"#utility.yul\":14941:14967   */\n      swap1\n      pop\n        /* \"#utility.yul\":15013:15022   */\n      dup2\n        /* \"#utility.yul\":15007:15011   */\n      dup2\n        /* \"#utility.yul\":15003:15023   */\n      sub\n        /* \"#utility.yul\":14999:15000   */\n      0x00\n        /* \"#utility.yul\":14988:14997   */\n      dup4\n        /* \"#utility.yul\":14984:15001   */\n      add\n        /* \"#utility.yul\":14977:15024   */\n      mstore\n        /* \"#utility.yul\":15041:15172   */\n      tag_293\n        /* \"#utility.yul\":15167:15171   */\n      dup2\n        /* \"#utility.yul\":15041:15172   */\n      tag_130\n      jump\t// in\n    tag_293:\n        /* \"#utility.yul\":15033:15172   */\n      swap1\n      pop\n        /* \"#utility.yul\":14760:15179   */\n      swap2\n      swap1\n      pop\n      jump\t// out\n        /* \"#utility.yul\":15185:15357   */\n    tag_131:\n        /* \"#utility.yul\":15325:15349   */\n      0x547765657420697320746f6f206c6f6e672062726f2100000000000000000000\n        /* \"#utility.yul\":15321:15322   */\n      0x00\n        /* \"#utility.yul\":15313:15319   */\n      dup3\n        /* \"#utility.yul\":15309:15323   */\n      add\n        /* \"#utility.yul\":15302:15350   */\n      mstore\n        /* \"#utility.yul\":15185:15357   */\n      pop\n      jump\t// out\n        /* \"#utility.yul\":15363:15729   */\n    tag_132:\n        /* \"#utility.yul\":15505:15508   */\n      0x00\n        /* \"#utility.yul\":15526:15593   */\n      tag_296\n        /* \"#utility.yul\":15590:15592   */\n      0x16\n        /* \"#utility.yul\":15585:15588   */\n      dup4\n        /* \"#utility.yul\":15526:15593   */\n      tag_98\n      jump\t// in\n    tag_296:\n        /* \"#utility.yul\":15519:15593   */\n      swap2\n      pop\n        /* \"#utility.yul\":15602:15695   */\n      tag_297\n        /* \"#utility.yul\":15691:15694   */\n      dup3\n        /* \"#utility.yul\":15602:15695   */\n      tag_131\n      jump\t// in\n    tag_297:\n        /* \"#utility.yul\":15720:15722   */\n      0x20\n        /* \"#utility.yul\":15715:15718   */\n      dup3\n        /* \"#utility.yul\":15711:15723   */\n      add\n        /* \"#utility.yul\":15704:15723   */\n      swap1\n      pop\n        /* \"#utility.yul\":15363:15729   */\n      swap2\n      swap1\n      pop\n      jump\t// out\n        /* \"#utility.yul\":15735:16154   */\n    tag_61:\n        /* \"#utility.yul\":15901:15905   */\n      0x00\n        /* \"#utility.yul\":15939:15941   */\n      0x20\n        /* \"#utility.yul\":15928:15937   */\n      dup3\n        /* \"#utility.yul\":15924:15942   */\n      add\n        /* \"#utility.yul\":15916:15942   */\n      swap1\n      pop\n        /* \"#utility.yul\":15988:15997   */\n      dup2\n        /* \"#utility.yul\":15982:15986   */\n      dup2\n        /* \"#utility.yul\":15978:15998   */\n      sub\n        /* \"#utility.yul\":15974:15975   */\n      0x00\n        /* \"#utility.yul\":15963:15972   */\n      dup4\n        /* \"#utility.yul\":15959:15976   */\n      add\n        /* \"#utility.yul\":15952:15999   */\n      mstore\n        /* \"#utility.yul\":16016:16147   */\n      tag_299\n        /* \"#utility.yul\":16142:16146   */\n      dup2\n        /* \"#utility.yul\":16016:16147   */\n      tag_132\n      jump\t// in\n    tag_299:\n        /* \"#utility.yul\":16008:16147   */\n      swap1\n      pop\n        /* \"#utility.yul\":15735:16154   */\n      swap2\n      swap1\n      pop\n      jump\t// out\n        /* \"#utility.yul\":16160:16301   */\n    tag_133:\n        /* \"#utility.yul\":16209:16213   */\n      0x00\n        /* \"#utility.yul\":16232:16235   */\n      dup2\n        /* \"#utility.yul\":16224:16235   */\n      swap1\n      pop\n        /* \"#utility.yul\":16255:16258   */\n      dup2\n        /* \"#utility.yul\":16252:16253   */\n      0x00\n        /* \"#utility.yul\":16245:16259   */\n      mstore\n        /* \"#utility.yul\":16289:16293   */\n      0x20\n        /* \"#utility.yul\":16286:16287   */\n      0x00\n        /* \"#utility.yul\":16276:16294   */\n      keccak256\n        /* \"#utility.yul\":16268:16294   */\n      swap1\n      pop\n        /* \"#utility.yul\":16160:16301   */\n      swap2\n      swap1\n      pop\n      jump\t// out\n        /* \"#utility.yul\":16307:16400   */\n    tag_134:\n        /* \"#utility.yul\":16344:16350   */\n      0x00\n        /* \"#utility.yul\":16391:16393   */\n      0x20\n        /* \"#utility.yul\":16386:16388   */\n      0x1f\n        /* \"#utility.yul\":16379:16384   */\n      dup4\n        /* \"#utility.yul\":16375:16389   */\n      add\n        /* \"#utility.yul\":16371:16394   */\n      div\n        /* \"#utility.yul\":16361:16394   */\n      swap1\n      pop\n        /* \"#utility.yul\":16307:16400   */\n      swap2\n      swap1\n      pop\n      jump\t// out\n        /* \"#utility.yul\":16406:16513   */\n    tag_135:\n        /* \"#utility.yul\":16450:16458   */\n      0x00\n        /* \"#utility.yul\":16500:16505   */\n      dup3\n        /* \"#utility.yul\":16494:16498   */\n      dup3\n        /* \"#utility.yul\":16490:16506   */\n      shl\n        /* \"#utility.yul\":16469:16506   */\n      swap1\n      pop\n        /* \"#utility.yul\":16406:16513   */\n      swap3\n      swap2\n      pop\n      pop\n      jump\t// out\n        /* \"#utility.yul\":16519:16912   */\n    tag_136:\n        /* \"#utility.yul\":16588:16594   */\n      0x00\n        /* \"#utility.yul\":16638:16639   */\n      0x08\n        /* \"#utility.yul\":16626:16636   */\n      dup4\n        /* \"#utility.yul\":16622:16640   */\n      mul\n        /* \"#utility.yul\":16661:16758   */\n      tag_304\n        /* \"#utility.yul\":16691:16757   */\n      0xffffffffffffffffffffffffffffffffffffffffffffffffffffffffffffffff\n        /* \"#utility.yul\":16680:16689   */\n      dup3\n        /* \"#utility.yul\":16661:16758   */\n      tag_135\n      jump\t// in\n    tag_304:\n        /* \"#utility.yul\":16779:16818   */\n      tag_305\n        /* \"#utility.yul\":16809:16817   */\n      dup7\n        /* \"#utility.yul\":16798:16807   */\n      dup4\n        /* \"#utility.yul\":16779:16818   */\n      tag_135\n      jump\t// in\n    tag_305:\n        /* \"#utility.yul\":16767:16818   */\n      swap6\n      pop\n        /* \"#utility.yul\":16851:16855   */\n      dup1\n        /* \"#utility.yul\":16847:16856   */\n      not\n        /* \"#utility.yul\":16840:16845   */\n      dup5\n        /* \"#utility.yul\":16836:16857   */\n      and\n        /* \"#utility.yul\":16827:16857   */\n      swap4\n      pop\n        /* \"#utility.yul\":16900:16904   */\n      dup1\n        /* \"#utility.yul\":16890:16898   */\n      dup7\n        /* \"#utility.yul\":16886:16905   */\n      and\n        /* \"#utility.yul\":16879:16884   */\n      dup5\n        /* \"#utility.yul\":16876:16906   */\n      or\n        /* \"#utility.yul\":16866:16906   */\n      swap3\n      pop\n        /* \"#utility.yul\":16595:16912   */\n      pop\n      pop\n        /* \"#utility.yul\":16519:16912   */\n      swap4\n      swap3\n      pop\n      pop\n      pop\n      jump\t// out\n        /* \"#utility.yul\":16918:16978   */\n    tag_137:\n        /* \"#utility.yul\":16946:16949   */\n      0x00\n        /* \"#utility.yul\":16967:16972   */\n      dup2\n        /* \"#utility.yul\":16960:16972   */\n      swap1\n      pop\n        /* \"#utility.yul\":16918:16978   */\n      swap2\n      swap1\n      pop\n      jump\t// out\n        /* \"#utility.yul\":16984:17126   */\n    tag_138:\n        /* \"#utility.yul\":17034:17043   */\n      0x00\n        /* \"#utility.yul\":17067:17120   */\n      tag_308\n        /* \"#utility.yul\":17085:17119   */\n      tag_309\n        /* \"#utility.yul\":17094:17118   */\n      tag_310\n        /* \"#utility.yul\":17112:17117   */\n      dup5\n        /* \"#utility.yul\":17094:17118   */\n      tag_93\n      jump\t// in\n    tag_310:\n        /* \"#utility.yul\":17085:17119   */\n      tag_137\n      jump\t// in\n    tag_309:\n        /* \"#utility.yul\":17067:17120   */\n      tag_93\n      jump\t// in\n    tag_308:\n        /* \"#utility.yul\":17054:17120   */\n      swap1\n      pop\n        /* \"#utility.yul\":16984:17126   */\n      swap2\n      swap1\n      pop\n      jump\t// out\n        /* \"#utility.yul\":17132:17207   */\n    tag_139:\n        /* \"#utility.yul\":17175:17178   */\n      0x00\n        /* \"#utility.yul\":17196:17201   */\n      dup2\n        /* \"#utility.yul\":17189:17201   */\n      swap1\n      pop\n        /* \"#utility.yul\":17132:17207   */\n      swap2\n      swap1\n      pop\n      jump\t// out\n        /* \"#utility.yul\":17213:17482   */\n    tag_140:\n        /* \"#utility.yul\":17323:17362   */\n      tag_313\n        /* \"#utility.yul\":17354:17361   */\n      dup4\n        /* \"#utility.yul\":17323:17362   */\n      tag_138\n      jump\t// in\n    tag_313:\n        /* \"#utility.yul\":17384:17475   */\n      tag_314\n        /* \"#utility.yul\":17433:17474   */\n      tag_315\n        /* \"#utility.yul\":17457:17473   */\n      dup3\n        /* \"#utility.yul\":17433:17474   */\n      tag_139\n      jump\t// in\n    tag_315:\n        /* \"#utility.yul\":17425:17431   */\n      dup5\n        /* \"#utility.yul\":17418:17422   */\n      dup5\n        /* \"#utility.yul\":17412:17423   */\n      sload\n        /* \"#utility.yul\":17384:17475   */\n      tag_136\n      jump\t// in\n    tag_314:\n        /* \"#utility.yul\":17378:17382   */\n      dup3\n        /* \"#utility.yul\":17371:17476   */\n      sstore\n        /* \"#utility.yul\":17289:17482   */\n      pop\n        /* \"#utility.yul\":17213:17482   */\n      pop\n      pop\n      pop\n      jump\t// out\n        /* \"#utility.yul\":17488:17561   */\n    tag_141:\n        /* \"#utility.yul\":17533:17536   */\n      0x00\n        /* \"#utility.yul\":17554:17555   */\n      0x00\n        /* \"#utility.yul\":17547:17555   */\n      swap1\n      pop\n        /* \"#utility.yul\":17488:17561   */\n      swap1\n      jump\t// out\n        /* \"#utility.yul\":17567:17756   */\n    tag_142:\n        /* \"#utility.yul\":17644:17676   */\n      tag_318\n      tag_141\n      jump\t// in\n    tag_318:\n        /* \"#utility.yul\":17685:17750   */\n      tag_319\n        /* \"#utility.yul\":17743:17749   */\n      dup2\n        /* \"#utility.yul\":17735:17741   */\n      dup5\n        /* \"#utility.yul\":17729:17733   */\n      dup5\n        /* \"#utility.yul\":17685:17750   */\n      tag_140\n      jump\t// in\n    tag_319:\n        /* \"#utility.yul\":17620:17756   */\n      pop\n        /* \"#utility.yul\":17567:17756   */\n      pop\n      pop\n      jump\t// out\n        /* \"#utility.yul\":17762:17976   */\n    tag_143:\n        /* \"#utility.yul\":17847:17848   */\n      0x00\n        /* \"#utility.yul\":17832:17970   */\n    tag_321:\n        /* \"#utility.yul\":17857:17866   */\n      dup3\n        /* \"#utility.yul\":17854:17855   */\n      dup2\n        /* \"#utility.yul\":17851:17867   */\n      lt\n        /* \"#utility.yul\":17832:17970   */\n      iszero\n      tag_323\n      jumpi\n        /* \"#utility.yul\":17909:17960   */\n      tag_324\n        /* \"#utility.yul\":17958:17959   */\n      0x00\n        /* \"#utility.yul\":17954:17955   */\n      dup3\n        /* \"#utility.yul\":17943:17952   */\n      dup5\n        /* \"#utility.yul\":17939:17956   */\n      add\n        /* \"#utility.yul\":17909:17960   */\n      tag_142\n      jump\t// in\n    tag_324:\n        /* \"#utility.yul\":17882:17883   */\n      0x01\n        /* \"#utility.yul\":17879:17880   */\n      dup2\n        /* \"#utility.yul\":17875:17884   */\n      add\n        /* \"#utility.yul\":17870:17884   */\n      swap1\n      pop\n        /* \"#utility.yul\":17832:17970   */\n      jump(tag_321)\n    tag_323:\n        /* \"#utility.yul\":17836:17850   */\n      pop\n        /* \"#utility.yul\":17762:17976   */\n      pop\n      pop\n      jump\t// out\n        /* \"#utility.yul\":17982:18728   */\n    tag_144:\n        /* \"#utility.yul\":18083:18085   */\n      0x1f\n        /* \"#utility.yul\":18078:18081   */\n      dup3\n        /* \"#utility.yul\":18075:18086   */\n      gt\n        /* \"#utility.yul\":18072:18721   */\n      iszero\n      tag_326\n      jumpi\n        /* \"#utility.yul\":18112:18122   */\n      dup3\n        /* \"#utility.yul\":18107:18110   */\n      dup3\n        /* \"#utility.yul\":18104:18123   */\n      gt\n        /* \"#utility.yul\":18101:18711   */\n      iszero\n      tag_327\n      jumpi\n        /* \"#utility.yul\":18158:18196   */\n      tag_328\n        /* \"#utility.yul\":18190:18195   */\n      dup2\n        /* \"#utility.yul\":18158:18196   */\n      tag_133\n      jump\t// in\n    tag_328:\n        /* \"#utility.yul\":18233:18255   */\n      tag_329\n        /* \"#utility.yul\":18251:18254   */\n      dup4\n        /* \"#utility.yul\":18233:18255   */\n      tag_134\n      jump\t// in\n    tag_329:\n        /* \"#utility.yul\":18292:18321   */\n      tag_330\n        /* \"#utility.yul\":18310:18320   */\n      dup6\n        /* \"#utility.yul\":18292:18321   */\n      tag_134\n      jump\t// in\n    tag_330:\n        /* \"#utility.yul\":18482:18484   */\n      0x20\n        /* \"#utility.yul\":18470:18480   */\n      dup7\n        /* \"#utility.yul\":18467:18485   */\n      lt\n        /* \"#utility.yul\":18464:18543   */\n      iszero\n      tag_331\n      jumpi\n        /* \"#utility.yul\":18524:18525   */\n      0x00\n        /* \"#utility.yul\":18508:18525   */\n      swap1\n      pop\n        /* \"#utility.yul\":18464:18543   */\n    tag_331:\n        /* \"#utility.yul\":18593:18605   */\n      dup1\n        /* \"#utility.yul\":18583:18591   */\n      dup4\n        /* \"#utility.yul\":18579:18606   */\n      add\n        /* \"#utility.yul\":18623:18697   */\n      tag_332\n        /* \"#utility.yul\":18683:18695   */\n      dup3\n        /* \"#utility.yul\":18669:18681   */\n      dup5\n        /* \"#utility.yul\":18665:18696   */\n      sub\n        /* \"#utility.yul\":18652:18663   */\n      dup3\n        /* \"#utility.yul\":18623:18697   */\n      tag_143\n      jump\t// in\n    tag_332:\n        /* \"#utility.yul\":18124:18711   */\n      pop\n      pop\n      pop\n      pop\n        /* \"#utility.yul\":18101:18711   */\n    tag_327:\n        /* \"#utility.yul\":18072:18721   */\n    tag_326:\n        /* \"#utility.yul\":17982:18728   */\n      pop\n      pop\n      pop\n      jump\t// out\n        /* \"#utility.yul\":18734:18851   */\n    tag_145:\n        /* \"#utility.yul\":18788:18796   */\n      0x00\n        /* \"#utility.yul\":18838:18843   */\n      dup3\n        /* \"#utility.yul\":18832:18836   */\n      dup3\n        /* \"#utility.yul\":18828:18844   */\n      shr\n        /* \"#utility.yul\":18807:18844   */\n      swap1\n      pop\n        /* \"#utility.yul\":18734:18851   */\n      swap3\n      swap2\n      pop\n      pop\n      jump\t// out\n        /* \"#utility.yul\":18857:19026   */\n    tag_146:\n        /* \"#utility.yul\":18901:18907   */\n      0x00\n        /* \"#utility.yul\":18934:18985   */\n      tag_335\n        /* \"#utility.yul\":18982:18983   */\n      0x00\n        /* \"#utility.yul\":18978:18984   */\n      not\n        /* \"#utility.yul\":18970:18975   */\n      dup5\n        /* \"#utility.yul\":18967:18968   */\n      0x08\n        /* \"#utility.yul\":18963:18976   */\n      mul\n        /* \"#utility.yul\":18934:18985   */\n      tag_145\n      jump\t// in\n    tag_335:\n        /* \"#utility.yul\":18930:18986   */\n      not\n        /* \"#utility.yul\":19015:19019   */\n      dup1\n        /* \"#utility.yul\":19009:19013   */\n      dup4\n        /* \"#utility.yul\":19005:19020   */\n      and\n        /* \"#utility.yul\":18995:19020   */\n      swap2\n      pop\n        /* \"#utility.yul\":18908:19026   */\n      pop\n        /* \"#utility.yul\":18857:19026   */\n      swap3\n      swap2\n      pop\n      pop\n      jump\t// out\n        /* \"#utility.yul\":19031:19326   */\n    tag_147:\n        /* \"#utility.yul\":19107:19111   */\n      0x00\n        /* \"#utility.yul\":19253:19282   */\n      tag_337\n        /* \"#utility.yul\":19278:19281   */\n      dup4\n        /* \"#utility.yul\":19272:19276   */\n      dup4\n        /* \"#utility.yul\":19253:19282   */\n      tag_146\n      jump\t// in\n    tag_337:\n        /* \"#utility.yul\":19245:19282   */\n      swap2\n      pop\n        /* \"#utility.yul\":19315:19318   */\n      dup3\n        /* \"#utility.yul\":19312:19313   */\n      0x02\n        /* \"#utility.yul\":19308:19319   */\n      mul\n        /* \"#utility.yul\":19302:19306   */\n      dup3\n        /* \"#utility.yul\":19299:19320   */\n      or\n        /* \"#utility.yul\":19291:19320   */\n      swap1\n      pop\n        /* \"#utility.yul\":19031:19326   */\n      swap3\n      swap2\n      pop\n      pop\n      jump\t// out\n        /* \"#utility.yul\":19331:20726   */\n    tag_64:\n        /* \"#utility.yul\":19448:19485   */\n      tag_339\n        /* \"#utility.yul\":19481:19484   */\n      dup3\n        /* \"#utility.yul\":19448:19485   */\n      tag_97\n      jump\t// in\n    tag_339:\n        /* \"#utility.yul\":19550:19568   */\n      0xffffffffffffffff\n        /* \"#utility.yul\":19542:19548   */\n      dup2\n        /* \"#utility.yul\":19539:19569   */\n      gt\n        /* \"#utility.yul\":19536:19592   */\n      iszero\n      tag_340\n      jumpi\n        /* \"#utility.yul\":19572:19590   */\n      tag_341\n      tag_108\n      jump\t// in\n    tag_341:\n        /* \"#utility.yul\":19536:19592   */\n    tag_340:\n        /* \"#utility.yul\":19616:19654   */\n      tag_342\n        /* \"#utility.yul\":19648:19652   */\n      dup3\n        /* \"#utility.yul\":19642:19653   */\n      sload\n        /* \"#utility.yul\":19616:19654   */\n      tag_48\n      jump\t// in\n    tag_342:\n        /* \"#utility.yul\":19701:19768   */\n      tag_343\n        /* \"#utility.yul\":19761:19767   */\n      dup3\n        /* \"#utility.yul\":19753:19759   */\n      dup3\n        /* \"#utility.yul\":19747:19751   */\n      dup6\n        /* \"#utility.yul\":19701:19768   */\n      tag_144\n      jump\t// in\n    tag_343:\n        /* \"#utility.yul\":19795:19796   */\n      0x00\n        /* \"#utility.yul\":19819:19823   */\n      0x20\n        /* \"#utility.yul\":19806:19823   */\n      swap1\n      pop\n        /* \"#utility.yul\":19851:19853   */\n      0x1f\n        /* \"#utility.yul\":19843:19849   */\n      dup4\n        /* \"#utility.yul\":19840:19854   */\n      gt\n        /* \"#utility.yul\":19868:19869   */\n      0x01\n        /* \"#utility.yul\":19863:20481   */\n      dup2\n      eq\n      tag_345\n      jumpi\n        /* \"#utility.yul\":20525:20526   */\n      0x00\n        /* \"#utility.yul\":20542:20548   */\n      dup5\n        /* \"#utility.yul\":20539:20616   */\n      iszero\n      tag_346\n      jumpi\n        /* \"#utility.yul\":20591:20600   */\n      dup3\n        /* \"#utility.yul\":20586:20589   */\n      dup8\n        /* \"#utility.yul\":20582:20601   */\n      add\n        /* \"#utility.yul\":20576:20602   */\n      mload\n        /* \"#utility.yul\":20567:20602   */\n      swap1\n      pop\n        /* \"#utility.yul\":20539:20616   */\n    tag_346:\n        /* \"#utility.yul\":20642:20709   */\n      tag_347\n        /* \"#utility.yul\":20702:20708   */\n      dup6\n        /* \"#utility.yul\":20695:20700   */\n      dup3\n        /* \"#utility.yul\":20642:20709   */\n      tag_147\n      jump\t// in\n    tag_347:\n        /* \"#utility.yul\":20636:20640   */\n      dup7\n        /* \"#utility.yul\":20629:20710   */\n      sstore\n        /* \"#utility.yul\":20498:20720   */\n      pop\n        /* \"#utility.yul\":19833:20720   */\n      jump(tag_344)\n        /* \"#utility.yul\":19863:20481   */\n    tag_345:\n        /* \"#utility.yul\":19915:19919   */\n      0x1f\n        /* \"#utility.yul\":19911:19920   */\n      not\n        /* \"#utility.yul\":19903:19909   */\n      dup5\n        /* \"#utility.yul\":19899:19921   */\n      and\n        /* \"#utility.yul\":19949:19986   */\n      tag_348\n        /* \"#utility.yul\":19981:19985   */\n      dup7\n        /* \"#utility.yul\":19949:19986   */\n      tag_133\n      jump\t// in\n    tag_348:\n        /* \"#utility.yul\":20008:20009   */\n      0x00\n        /* \"#utility.yul\":20022:20230   */\n    tag_349:\n        /* \"#utility.yul\":20036:20043   */\n      dup3\n        /* \"#utility.yul\":20033:20034   */\n      dup2\n        /* \"#utility.yul\":20030:20044   */\n      lt\n        /* \"#utility.yul\":20022:20230   */\n      iszero\n      tag_351\n      jumpi\n        /* \"#utility.yul\":20115:20124   */\n      dup5\n        /* \"#utility.yul\":20110:20113   */\n      dup10\n        /* \"#utility.yul\":20106:20125   */\n      add\n        /* \"#utility.yul\":20100:20126   */\n      mload\n        /* \"#utility.yul\":20092:20098   */\n      dup3\n        /* \"#utility.yul\":20085:20127   */\n      sstore\n        /* \"#utility.yul\":20166:20167   */\n      0x01\n        /* \"#utility.yul\":20158:20164   */\n      dup3\n        /* \"#utility.yul\":20154:20168   */\n      add\n        /* \"#utility.yul\":20144:20168   */\n      swap2\n      pop\n        /* \"#utility.yul\":20213:20215   */\n      0x20\n        /* \"#utility.yul\":20202:20211   */\n      dup6\n        /* \"#utility.yul\":20198:20216   */\n      add\n        /* \"#utility.yul\":20185:20216   */\n      swap5\n      pop\n        /* \"#utility.yul\":20059:20063   */\n      0x20\n        /* \"#utility.yul\":20056:20057   */\n      dup2\n        /* \"#utility.yul\":20052:20064   */\n      add\n        /* \"#utility.yul\":20047:20064   */\n      swap1\n      pop\n        /* \"#utility.yul\":20022:20230   */\n      jump(tag_349)\n    tag_351:\n        /* \"#utility.yul\":20258:20264   */\n      dup7\n        /* \"#utility.yul\":20249:20256   */\n      dup4\n        /* \"#utility.yul\":20246:20265   */\n      lt\n        /* \"#utility.yul\":20243:20422   */\n      iszero\n      tag_352\n      jumpi\n        /* \"#utility.yul\":20316:20325   */\n      dup5\n        /* \"#utility.yul\":20311:20314   */\n      dup10\n        /* \"#utility.yul\":20307:20326   */\n      add\n        /* \"#utility.yul\":20301:20327   */\n      mload\n        /* \"#utility.yul\":20359:20407   */\n      tag_353\n        /* \"#utility.yul\":20401:20405   */\n      0x1f\n        /* \"#utility.yul\":20393:20399   */\n      dup10\n        /* \"#utility.yul\":20389:20406   */\n      and\n        /* \"#utility.yul\":20378:20387   */\n      dup3\n        /* \"#utility.yul\":20359:20407   */\n      tag_146\n      jump\t// in\n    tag_353:\n        /* \"#utility.yul\":20351:20357   */\n      dup4\n        /* \"#utility.yul\":20344:20408   */\n      sstore\n        /* \"#utility.yul\":20266:20422   */\n      pop\n        /* \"#utility.yul\":20243:20422   */\n    tag_352:\n        /* \"#utility.yul\":20468:20469   */\n      0x01\n        /* \"#utility.yul\":20464:20465   */\n      0x02\n        /* \"#utility.yul\":20456:20462   */\n      dup9\n        /* \"#utility.yul\":20452:20466   */\n      mul\n        /* \"#utility.yul\":20448:20470   */\n      add\n        /* \"#utility.yul\":20442:20446   */\n      dup9\n        /* \"#utility.yul\":20435:20471   */\n      sstore\n        /* \"#utility.yul\":19870:20481   */\n      pop\n      pop\n      pop\n        /* \"#utility.yul\":19833:20720   */\n    tag_344:\n      pop\n        /* \"#utility.yul\":19423:20726   */\n      pop\n      pop\n      pop\n        /* \"#utility.yul\":19331:20726   */\n      pop\n      pop\n      jump\t// out\n        /* \"#utility.yul\":20732:20912   */\n    tag_79:\n        /* \"#utility.yul\":20780:20857   */\n      0x4e487b7100000000000000000000000000000000000000000000000000000000\n        /* \"#utility.yul\":20777:20778   */\n      0x00\n        /* \"#utility.yul\":20770:20858   */\n      mstore\n        /* \"#utility.yul\":20877:20881   */\n      0x32\n        /* \"#utility.yul\":20874:20875   */\n      0x04\n        /* \"#utility.yul\":20867:20882   */\n      mstore\n        /* \"#utility.yul\":20901:20905   */\n      0x24\n        /* \"#utility.yul\":20898:20899   */\n      0x00\n        /* \"#utility.yul\":20891:20906   */\n      revert\n\n    auxdata: 0xa26469706673582212206f7ba13fd1c3f9eb85d8aecb9370e2183a0b58d964813161c7117a7a750fb4be64736f6c63430008210033\n}\n",
				"bytecode": {
					"linkReferences": {},
					"object": "60806040526101185f5f6101000a81548161ffff021916908361ffff160217905550348015602b575f5ffd5b503360025f6101000a81548173ffffffffffffffffffffffffffffffffffffffff021916908373ffffffffffffffffffffffffffffffffffffffff160217905550611247806100795f395ff3fe608060405234801561000f575f5ffd5b506004361061007b575f3560e01c80638da5cb5b116100595780638da5cb5b146100ea578063b64988b814610108578063c3ad5ecb14610138578063cb886fa7146101685761007b565b806305a1b4a91461007f57806358bfa4ab146100b25780637c9cd2bc146100ce575b5f5ffd5b61009960048036038101906100949190610894565b610186565b6040516100a99493929190610960565b60405180910390f35b6100cc60048036038101906100c791906109e1565b610271565b005b6100e860048036038101906100e39190610b38565b61031e565b005b6100f2610486565b6040516100ff9190610b7f565b60405180910390f35b610122600480360381019061011d9190610b98565b6104ab565b60405161012f9190610d44565b60405180910390f35b610152600480360381019061014d9190610d64565b61063c565b60405161015f9190610def565b60405180910390f35b6101706107a9565b60405161017d9190610e1e565b60405180910390f35b6001602052815f5260405f20818154811061019f575f80fd5b905f5260205f2090600402015f9150915050805f015f9054906101000a900473ffffffffffffffffffffffffffffffffffffffff16908060010180546101e490610e64565b80601f016020809104026020016040519081016040528092919081815260200182805461021090610e64565b801561025b5780601f106102325761010080835404028352916020019161025b565b820191905f5260205f20905b81548152906001019060200180831161023e57829003601f168201915b5050505050908060020154908060030154905084565b60025f9054906101000a900473ffffffffffffffffffffffffffffffffffffffff1673ffffffffffffffffffffffffffffffffffffffff163373ffffffffffffffffffffffffffffffffffffffff1614610300576040517f08c379a00000000000000000000000000000000000000000000000000000000081526004016102f790610ede565b60405180910390fd5b805f5f6101000a81548161ffff021916908361ffff16021790555050565b5f5f9054906101000a900461ffff1661ffff1681511115610374576040517f08c379a000000000000000000000000000000000000000000000000000000000815260040161036b90610f46565b60405180910390fd5b5f60405180608001604052803373ffffffffffffffffffffffffffffffffffffffff1681526020018381526020014281526020015f815250905060015f3373ffffffffffffffffffffffffffffffffffffffff1673ffffffffffffffffffffffffffffffffffffffff1681526020019081526020015f2081908060018154018082558091505060019003905f5260205f2090600402015f909190919091505f820151815f015f6101000a81548173ffffffffffffffffffffffffffffffffffffffff021916908373ffffffffffffffffffffffffffffffffffffffff160217905550602082015181600101908161046b9190611115565b50604082015181600201556060820151816003015550505050565b60025f9054906101000a900473ffffffffffffffffffffffffffffffffffffffff1681565b606060015f8373ffffffffffffffffffffffffffffffffffffffff1673ffffffffffffffffffffffffffffffffffffffff1681526020019081526020015f20805480602002602001604051908101604052809291908181526020015f905b82821015610631578382905f5260205f2090600402016040518060800160405290815f82015f9054906101000a900473ffffffffffffffffffffffffffffffffffffffff1673ffffffffffffffffffffffffffffffffffffffff1673ffffffffffffffffffffffffffffffffffffffff16815260200160018201805461058e90610e64565b80601f01602080910402602001604051908101604052809291908181526020018280546105ba90610e64565b80156106055780601f106105dc57610100808354040283529160200191610605565b820191905f5260205f20905b8154815290600101906020018083116105e857829003601f168201915b505050505081526020016002820154815260200160038201548152505081526020019060010190610509565b505050509050919050565b6106446107bb565b60015f3373ffffffffffffffffffffffffffffffffffffffff1673ffffffffffffffffffffffffffffffffffffffff1681526020019081526020015f208281548110610693576106926111e4565b5b905f5260205f2090600402016040518060800160405290815f82015f9054906101000a900473ffffffffffffffffffffffffffffffffffffffff1673ffffffffffffffffffffffffffffffffffffffff1673ffffffffffffffffffffffffffffffffffffffff16815260200160018201805461070e90610e64565b80601f016020809104026020016040519081016040528092919081815260200182805461073a90610e64565b80156107855780601f1061075c57610100808354040283529160200191610785565b820191905f5260205f20905b81548152906001019060200180831161076857829003601f168201915b50505050508152602001600282015481526020016003820154815250509050919050565b5f5f9054906101000a900461ffff1681565b60405180608001604052805f73ffffffffffffffffffffffffffffffffffffffff168152602001606081526020015f81526020015f81525090565b5f604051905090565b5f5ffd5b5f5ffd5b5f73ffffffffffffffffffffffffffffffffffffffff82169050919050565b5f61083082610807565b9050919050565b61084081610826565b811461084a575f5ffd5b50565b5f8135905061085b81610837565b92915050565b5f819050919050565b61087381610861565b811461087d575f5ffd5b50565b5f8135905061088e8161086a565b92915050565b5f5f604083850312156108aa576108a96107ff565b5b5f6108b78582860161084d565b92505060206108c885828601610880565b9150509250929050565b6108db81610826565b82525050565b5f81519050919050565b5f82825260208201905092915050565b8281835e5f83830152505050565b5f601f19601f8301169050919050565b5f610923826108e1565b61092d81856108eb565b935061093d8185602086016108fb565b61094681610909565b840191505092915050565b61095a81610861565b82525050565b5f6080820190506109735f8301876108d2565b81810360208301526109858186610919565b90506109946040830185610951565b6109a16060830184610951565b95945050505050565b5f61ffff82169050919050565b6109c0816109aa565b81146109ca575f5ffd5b50565b5f813590506109db816109b7565b92915050565b5f602082840312156109f6576109f56107ff565b5b5f610a03848285016109cd565b91505092915050565b5f5ffd5b5f5ffd5b7f4e487b71000000000000000000000000000000000000000000000000000000005f52604160045260245ffd5b610a4a82610909565b810181811067ffffffffffffffff82111715610a6957610a68610a14565b5b80604052505050565b5f610a7b6107f6565b9050610a878282610a41565b919050565b5f67ffffffffffffffff821115610aa657610aa5610a14565b5b610aaf82610909565b9050602081019050919050565b828183375f83830152505050565b5f610adc610ad784610a8c565b610a72565b905082815260208101848484011115610af857610af7610a10565b5b610b03848285610abc565b509392505050565b5f82601f830112610b1f57610b1e610a0c565b5b8135610b2f848260208601610aca565b91505092915050565b5f60208284031215610b4d57610b4c6107ff565b5b5f82013567ffffffffffffffff811115610b6a57610b69610803565b5b610b7684828501610b0b565b91505092915050565b5f602082019050610b925f8301846108d2565b92915050565b5f60208284031215610bad57610bac6107ff565b5b5f610bba8482850161084d565b91505092915050565b5f81519050919050565b5f82825260208201905092915050565b5f819050602082019050919050565b610bf581610826565b82525050565b5f82825260208201905092915050565b5f610c15826108e1565b610c1f8185610bfb565b9350610c2f8185602086016108fb565b610c3881610909565b840191505092915050565b610c4c81610861565b82525050565b5f608083015f830151610c675f860182610bec565b5060208301518482036020860152610c7f8282610c0b565b9150506040830151610c946040860182610c43565b506060830151610ca76060860182610c43565b508091505092915050565b5f610cbd8383610c52565b905092915050565b5f602082019050919050565b5f610cdb82610bc3565b610ce58185610bcd565b935083602082028501610cf785610bdd565b805f5b85811015610d325784840389528151610d138582610cb2565b9450610d1e83610cc5565b925060208a01995050600181019050610cfa565b50829750879550505050505092915050565b5f6020820190508181035f830152610d5c8184610cd1565b905092915050565b5f60208284031215610d7957610d786107ff565b5b5f610d8684828501610880565b91505092915050565b5f608083015f830151610da45f860182610bec565b5060208301518482036020860152610dbc8282610c0b565b9150506040830151610dd16040860182610c43565b506060830151610de46060860182610c43565b508091505092915050565b5f6020820190508181035f830152610e078184610d8f565b905092915050565b610e18816109aa565b82525050565b5f602082019050610e315f830184610e0f565b92915050565b7f4e487b71000000000000000000000000000000000000000000000000000000005f52602260045260245ffd5b5f6002820490506001821680610e7b57607f821691505b602082108103610e8e57610e8d610e37565b5b50919050565b7f594f5520415245204e4f5420544845204f574e455200000000000000000000005f82015250565b5f610ec86015836108eb565b9150610ed382610e94565b602082019050919050565b5f6020820190508181035f830152610ef581610ebc565b9050919050565b7f547765657420697320746f6f206c6f6e672062726f21000000000000000000005f82015250565b5f610f306016836108eb565b9150610f3b82610efc565b602082019050919050565b5f6020820190508181035f830152610f5d81610f24565b9050919050565b5f819050815f5260205f209050919050565b5f6020601f8301049050919050565b5f82821b905092915050565b5f60088302610fc07fffffffffffffffffffffffffffffffffffffffffffffffffffffffffffffffff82610f85565b610fca8683610f85565b95508019841693508086168417925050509392505050565b5f819050919050565b5f611005611000610ffb84610861565b610fe2565b610861565b9050919050565b5f819050919050565b61101e83610feb565b61103261102a8261100c565b848454610f91565b825550505050565b5f5f905090565b61104961103a565b611054818484611015565b505050565b5f5b8281101561107a5761106f5f828401611041565b60018101905061105b565b505050565b601f8211156110cd57828211156110cc5761109981610f64565b6110a283610f76565b6110ab85610f76565b60208610156110b8575f90505b8083016110c782840382611059565b505050505b5b505050565b5f82821c905092915050565b5f6110ed5f19846008026110d2565b1980831691505092915050565b5f61110583836110de565b9150826002028217905092915050565b61111e826108e1565b67ffffffffffffffff81111561113757611136610a14565b5b6111418254610e64565b61114c82828561107f565b5f60209050601f83116001811461117d575f841561116b578287015190505b61117585826110fa565b8655506111dc565b601f19841661118b86610f64565b5f5b828110156111b25784890151825560018201915060208501945060208101905061118d565b868310156111cf57848901516111cb601f8916826110de565b8355505b6001600288020188555050505b505050505050565b7f4e487b71000000000000000000000000000000000000000000000000000000005f52603260045260245ffdfea26469706673582212206f7ba13fd1c3f9eb85d8aecb9370e2183a0b58d964813161c7117a7a750fb4be64736f6c63430008210033",
					"opcodes": "PUSH1 0x80 PUSH1 0x40 MSTORE PUSH2 0x118 PUSH0 PUSH0 PUSH2 0x100 EXP DUP2 SLOAD DUP2 PUSH2 0xFFFF MUL NOT AND SWAP1 DUP4 PUSH2 0xFFFF AND MUL OR SWAP1 SSTORE POP CALLVALUE DUP1 ISZERO PUSH1 0x2B JUMPI PUSH0 PUSH0 REVERT JUMPDEST POP CALLER PUSH1 0x2 PUSH0 PUSH2 0x100 EXP DUP2 SLOAD DUP2 PUSH20 0xFFFFFFFFFFFFFFFFFFFFFFFFFFFFFFFFFFFFFFFF MUL NOT AND SWAP1 DUP4 PUSH20 0xFFFFFFFFFFFFFFFFFFFFFFFFFFFFFFFFFFFFFFFF AND MUL OR SWAP1 SSTORE POP PUSH2 0x1247 DUP1 PUSH2 0x79 PUSH0 CODECOPY PUSH0 RETURN INVALID PUSH1 0x80 PUSH1 0x40 MSTORE CALLVALUE DUP1 ISZERO PUSH2 0xF JUMPI PUSH0 PUSH0 REVERT JUMPDEST POP PUSH1 0x4 CALLDATASIZE LT PUSH2 0x7B JUMPI PUSH0 CALLDATALOAD PUSH1 0xE0 SHR DUP1 PUSH4 0x8DA5CB5B GT PUSH2 0x59 JUMPI DUP1 PUSH4 0x8DA5CB5B EQ PUSH2 0xEA JUMPI DUP1 PUSH4 0xB64988B8 EQ PUSH2 0x108 JUMPI DUP1 PUSH4 0xC3AD5ECB EQ PUSH2 0x138 JUMPI DUP1 PUSH4 0xCB886FA7 EQ PUSH2 0x168 JUMPI PUSH2 0x7B JUMP JUMPDEST DUP1 PUSH4 0x5A1B4A9 EQ PUSH2 0x7F JUMPI DUP1 PUSH4 0x58BFA4AB EQ PUSH2 0xB2 JUMPI DUP1 PUSH4 0x7C9CD2BC EQ PUSH2 0xCE JUMPI JUMPDEST PUSH0 PUSH0 REVERT JUMPDEST PUSH2 0x99 PUSH1 0x4 DUP1 CALLDATASIZE SUB DUP2 ADD SWAP1 PUSH2 0x94 SWAP2 SWAP1 PUSH2 0x894 JUMP JUMPDEST PUSH2 0x186 JUMP JUMPDEST PUSH1 0x40 MLOAD PUSH2 0xA9 SWAP5 SWAP4 SWAP3 SWAP2 SWAP1 PUSH2 0x960 JUMP JUMPDEST PUSH1 0x40 MLOAD DUP1 SWAP2 SUB SWAP1 RETURN JUMPDEST PUSH2 0xCC PUSH1 0x4 DUP1 CALLDATASIZE SUB DUP2 ADD SWAP1 PUSH2 0xC7 SWAP2 SWAP1 PUSH2 0x9E1 JUMP JUMPDEST PUSH2 0x271 JUMP JUMPDEST STOP JUMPDEST PUSH2 0xE8 PUSH1 0x4 DUP1 CALLDATASIZE SUB DUP2 ADD SWAP1 PUSH2 0xE3 SWAP2 SWAP1 PUSH2 0xB38 JUMP JUMPDEST PUSH2 0x31E JUMP JUMPDEST STOP JUMPDEST PUSH2 0xF2 PUSH2 0x486 JUMP JUMPDEST PUSH1 0x40 MLOAD PUSH2 0xFF SWAP2 SWAP1 PUSH2 0xB7F JUMP JUMPDEST PUSH1 0x40 MLOAD DUP1 SWAP2 SUB SWAP1 RETURN JUMPDEST PUSH2 0x122 PUSH1 0x4 DUP1 CALLDATASIZE SUB DUP2 ADD SWAP1 PUSH2 0x11D SWAP2 SWAP1 PUSH2 0xB98 JUMP JUMPDEST PUSH2 0x4AB JUMP JUMPDEST PUSH1 0x40 MLOAD PUSH2 0x12F SWAP2 SWAP1 PUSH2 0xD44 JUMP JUMPDEST PUSH1 0x40 MLOAD DUP1 SWAP2 SUB SWAP1 RETURN JUMPDEST PUSH2 0x152 PUSH1 0x4 DUP1 CALLDATASIZE SUB DUP2 ADD SWAP1 PUSH2 0x14D SWAP2 SWAP1 PUSH2 0xD64 JUMP JUMPDEST PUSH2 0x63C JUMP JUMPDEST PUSH1 0x40 MLOAD PUSH2 0x15F SWAP2 SWAP1 PUSH2 0xDEF JUMP JUMPDEST PUSH1 0x40 MLOAD DUP1 SWAP2 SUB SWAP1 RETURN JUMPDEST PUSH2 0x170 PUSH2 0x7A9 JUMP JUMPDEST PUSH1 0x40 MLOAD PUSH2 0x17D SWAP2 SWAP1 PUSH2 0xE1E JUMP JUMPDEST PUSH1 0x40 MLOAD DUP1 SWAP2 SUB SWAP1 RETURN JUMPDEST PUSH1 0x1 PUSH1 0x20 MSTORE DUP2 PUSH0 MSTORE PUSH1 0x40 PUSH0 KECCAK256 DUP2 DUP2 SLOAD DUP2 LT PUSH2 0x19F JUMPI PUSH0 DUP1 REVERT JUMPDEST SWAP1 PUSH0 MSTORE PUSH1 0x20 PUSH0 KECCAK256 SWAP1 PUSH1 0x4 MUL ADD PUSH0 SWAP2 POP SWAP2 POP POP DUP1 PUSH0 ADD PUSH0 SWAP1 SLOAD SWAP1 PUSH2 0x100 EXP SWAP1 DIV PUSH20 0xFFFFFFFFFFFFFFFFFFFFFFFFFFFFFFFFFFFFFFFF AND SWAP1 DUP1 PUSH1 0x1 ADD DUP1 SLOAD PUSH2 0x1E4 SWAP1 PUSH2 0xE64 JUMP JUMPDEST DUP1 PUSH1 0x1F ADD PUSH1 0x20 DUP1 SWAP2 DIV MUL PUSH1 0x20 ADD PUSH1 0x40 MLOAD SWAP1 DUP2 ADD PUSH1 0x40 MSTORE DUP1 SWAP3 SWAP2 SWAP1 DUP2 DUP2 MSTORE PUSH1 0x20 ADD DUP3 DUP1 SLOAD PUSH2 0x210 SWAP1 PUSH2 0xE64 JUMP JUMPDEST DUP1 ISZERO PUSH2 0x25B JUMPI DUP1 PUSH1 0x1F LT PUSH2 0x232 JUMPI PUSH2 0x100 DUP1 DUP4 SLOAD DIV MUL DUP4 MSTORE SWAP2 PUSH1 0x20 ADD SWAP2 PUSH2 0x25B JUMP JUMPDEST DUP3 ADD SWAP2 SWAP1 PUSH0 MSTORE PUSH1 0x20 PUSH0 KECCAK256 SWAP1 JUMPDEST DUP2 SLOAD DUP2 MSTORE SWAP1 PUSH1 0x1 ADD SWAP1 PUSH1 0x20 ADD DUP1 DUP4 GT PUSH2 0x23E JUMPI DUP3 SWAP1 SUB PUSH1 0x1F AND DUP3 ADD SWAP2 JUMPDEST POP POP POP POP POP SWAP1 DUP1 PUSH1 0x2 ADD SLOAD SWAP1 DUP1 PUSH1 0x3 ADD SLOAD SWAP1 POP DUP5 JUMP JUMPDEST PUSH1 0x2 PUSH0 SWAP1 SLOAD SWAP1 PUSH2 0x100 EXP SWAP1 DIV PUSH20 0xFFFFFFFFFFFFFFFFFFFFFFFFFFFFFFFFFFFFFFFF AND PUSH20 0xFFFFFFFFFFFFFFFFFFFFFFFFFFFFFFFFFFFFFFFF AND CALLER PUSH20 0xFFFFFFFFFFFFFFFFFFFFFFFFFFFFFFFFFFFFFFFF AND EQ PUSH2 0x300 JUMPI PUSH1 0x40 MLOAD PUSH32 0x8C379A000000000000000000000000000000000000000000000000000000000 DUP2 MSTORE PUSH1 0x4 ADD PUSH2 0x2F7 SWAP1 PUSH2 0xEDE JUMP JUMPDEST PUSH1 0x40 MLOAD DUP1 SWAP2 SUB SWAP1 REVERT JUMPDEST DUP1 PUSH0 PUSH0 PUSH2 0x100 EXP DUP2 SLOAD DUP2 PUSH2 0xFFFF MUL NOT AND SWAP1 DUP4 PUSH2 0xFFFF AND MUL OR SWAP1 SSTORE POP POP JUMP JUMPDEST PUSH0 PUSH0 SWAP1 SLOAD SWAP1 PUSH2 0x100 EXP SWAP1 DIV PUSH2 0xFFFF AND PUSH2 0xFFFF AND DUP2 MLOAD GT ISZERO PUSH2 0x374 JUMPI PUSH1 0x40 MLOAD PUSH32 0x8C379A000000000000000000000000000000000000000000000000000000000 DUP2 MSTORE PUSH1 0x4 ADD PUSH2 0x36B SWAP1 PUSH2 0xF46 JUMP JUMPDEST PUSH1 0x40 MLOAD DUP1 SWAP2 SUB SWAP1 REVERT JUMPDEST PUSH0 PUSH1 0x40 MLOAD DUP1 PUSH1 0x80 ADD PUSH1 0x40 MSTORE DUP1 CALLER PUSH20 0xFFFFFFFFFFFFFFFFFFFFFFFFFFFFFFFFFFFFFFFF AND DUP2 MSTORE PUSH1 0x20 ADD DUP4 DUP2 MSTORE PUSH1 0x20 ADD TIMESTAMP DUP2 MSTORE PUSH1 0x20 ADD PUSH0 DUP2 MSTORE POP SWAP1 POP PUSH1 0x1 PUSH0 CALLER PUSH20 0xFFFFFFFFFFFFFFFFFFFFFFFFFFFFFFFFFFFFFFFF AND PUSH20 0xFFFFFFFFFFFFFFFFFFFFFFFFFFFFFFFFFFFFFFFF AND DUP2 MSTORE PUSH1 0x20 ADD SWAP1 DUP2 MSTORE PUSH1 0x20 ADD PUSH0 KECCAK256 DUP2 SWAP1 DUP1 PUSH1 0x1 DUP2 SLOAD ADD DUP1 DUP3 SSTORE DUP1 SWAP2 POP POP PUSH1 0x1 SWAP1 SUB SWAP1 PUSH0 MSTORE PUSH1 0x20 PUSH0 KECCAK256 SWAP1 PUSH1 0x4 MUL ADD PUSH0 SWAP1 SWAP2 SWAP1 SWAP2 SWAP1 SWAP2 POP PUSH0 DUP3 ADD MLOAD DUP2 PUSH0 ADD PUSH0 PUSH2 0x100 EXP DUP2 SLOAD DUP2 PUSH20 0xFFFFFFFFFFFFFFFFFFFFFFFFFFFFFFFFFFFFFFFF MUL NOT AND SWAP1 DUP4 PUSH20 0xFFFFFFFFFFFFFFFFFFFFFFFFFFFFFFFFFFFFFFFF AND MUL OR SWAP1 SSTORE POP PUSH1 0x20 DUP3 ADD MLOAD DUP2 PUSH1 0x1 ADD SWAP1 DUP2 PUSH2 0x46B SWAP2 SWAP1 PUSH2 0x1115 JUMP JUMPDEST POP PUSH1 0x40 DUP3 ADD MLOAD DUP2 PUSH1 0x2 ADD SSTORE PUSH1 0x60 DUP3 ADD MLOAD DUP2 PUSH1 0x3 ADD SSTORE POP POP POP POP JUMP JUMPDEST PUSH1 0x2 PUSH0 SWAP1 SLOAD SWAP1 PUSH2 0x100 EXP SWAP1 DIV PUSH20 0xFFFFFFFFFFFFFFFFFFFFFFFFFFFFFFFFFFFFFFFF AND DUP2 JUMP JUMPDEST PUSH1 0x60 PUSH1 0x1 PUSH0 DUP4 PUSH20 0xFFFFFFFFFFFFFFFFFFFFFFFFFFFFFFFFFFFFFFFF AND PUSH20 0xFFFFFFFFFFFFFFFFFFFFFFFFFFFFFFFFFFFFFFFF AND DUP2 MSTORE PUSH1 0x20 ADD SWAP1 DUP2 MSTORE PUSH1 0x20 ADD PUSH0 KECCAK256 DUP1 SLOAD DUP1 PUSH1 0x20 MUL PUSH1 0x20 ADD PUSH1 0x40 MLOAD SWAP1 DUP2 ADD PUSH1 0x40 MSTORE DUP1 SWAP3 SWAP2 SWAP1 DUP2 DUP2 MSTORE PUSH1 0x20 ADD PUSH0 SWAP1 JUMPDEST DUP3 DUP3 LT ISZERO PUSH2 0x631 JUMPI DUP4 DUP3 SWAP1 PUSH0 MSTORE PUSH1 0x20 PUSH0 KECCAK256 SWAP1 PUSH1 0x4 MUL ADD PUSH1 0x40 MLOAD DUP1 PUSH1 0x80 ADD PUSH1 0x40 MSTORE SWAP1 DUP2 PUSH0 DUP3 ADD PUSH0 SWAP1 SLOAD SWAP1 PUSH2 0x100 EXP SWAP1 DIV PUSH20 0xFFFFFFFFFFFFFFFFFFFFFFFFFFFFFFFFFFFFFFFF AND PUSH20 0xFFFFFFFFFFFFFFFFFFFFFFFFFFFFFFFFFFFFFFFF AND PUSH20 0xFFFFFFFFFFFFFFFFFFFFFFFFFFFFFFFFFFFFFFFF AND DUP2 MSTORE PUSH1 0x20 ADD PUSH1 0x1 DUP3 ADD DUP1 SLOAD PUSH2 0x58E SWAP1 PUSH2 0xE64 JUMP JUMPDEST DUP1 PUSH1 0x1F ADD PUSH1 0x20 DUP1 SWAP2 DIV MUL PUSH1 0x20 ADD PUSH1 0x40 MLOAD SWAP1 DUP2 ADD PUSH1 0x40 MSTORE DUP1 SWAP3 SWAP2 SWAP1 DUP2 DUP2 MSTORE PUSH1 0x20 ADD DUP3 DUP1 SLOAD PUSH2 0x5BA SWAP1 PUSH2 0xE64 JUMP JUMPDEST DUP1 ISZERO PUSH2 0x605 JUMPI DUP1 PUSH1 0x1F LT PUSH2 0x5DC JUMPI PUSH2 0x100 DUP1 DUP4 SLOAD DIV MUL DUP4 MSTORE SWAP2 PUSH1 0x20 ADD SWAP2 PUSH2 0x605 JUMP JUMPDEST DUP3 ADD SWAP2 SWAP1 PUSH0 MSTORE PUSH1 0x20 PUSH0 KECCAK256 SWAP1 JUMPDEST DUP2 SLOAD DUP2 MSTORE SWAP1 PUSH1 0x1 ADD SWAP1 PUSH1 0x20 ADD DUP1 DUP4 GT PUSH2 0x5E8 JUMPI DUP3 SWAP1 SUB PUSH1 0x1F AND DUP3 ADD SWAP2 JUMPDEST POP POP POP POP POP DUP2 MSTORE PUSH1 0x20 ADD PUSH1 0x2 DUP3 ADD SLOAD DUP2 MSTORE PUSH1 0x20 ADD PUSH1 0x3 DUP3 ADD SLOAD DUP2 MSTORE POP POP DUP2 MSTORE PUSH1 0x20 ADD SWAP1 PUSH1 0x1 ADD SWAP1 PUSH2 0x509 JUMP JUMPDEST POP POP POP POP SWAP1 POP SWAP2 SWAP1 POP JUMP JUMPDEST PUSH2 0x644 PUSH2 0x7BB JUMP JUMPDEST PUSH1 0x1 PUSH0 CALLER PUSH20 0xFFFFFFFFFFFFFFFFFFFFFFFFFFFFFFFFFFFFFFFF AND PUSH20 0xFFFFFFFFFFFFFFFFFFFFFFFFFFFFFFFFFFFFFFFF AND DUP2 MSTORE PUSH1 0x20 ADD SWAP1 DUP2 MSTORE PUSH1 0x20 ADD PUSH0 KECCAK256 DUP3 DUP2 SLOAD DUP2 LT PUSH2 0x693 JUMPI PUSH2 0x692 PUSH2 0x11E4 JUMP JUMPDEST JUMPDEST SWAP1 PUSH0 MSTORE PUSH1 0x20 PUSH0 KECCAK256 SWAP1 PUSH1 0x4 MUL ADD PUSH1 0x40 MLOAD DUP1 PUSH1 0x80 ADD PUSH1 0x40 MSTORE SWAP1 DUP2 PUSH0 DUP3 ADD PUSH0 SWAP1 SLOAD SWAP1 PUSH2 0x100 EXP SWAP1 DIV PUSH20 0xFFFFFFFFFFFFFFFFFFFFFFFFFFFFFFFFFFFFFFFF AND PUSH20 0xFFFFFFFFFFFFFFFFFFFFFFFFFFFFFFFFFFFFFFFF AND PUSH20 0xFFFFFFFFFFFFFFFFFFFFFFFFFFFFFFFFFFFFFFFF AND DUP2 MSTORE PUSH1 0x20 ADD PUSH1 0x1 DUP3 ADD DUP1 SLOAD PUSH2 0x70E SWAP1 PUSH2 0xE64 JUMP JUMPDEST DUP1 PUSH1 0x1F ADD PUSH1 0x20 DUP1 SWAP2 DIV MUL PUSH1 0x20 ADD PUSH1 0x40 MLOAD SWAP1 DUP2 ADD PUSH1 0x40 MSTORE DUP1 SWAP3 SWAP2 SWAP1 DUP2 DUP2 MSTORE PUSH1 0x20 ADD DUP3 DUP1 SLOAD PUSH2 0x73A SWAP1 PUSH2 0xE64 JUMP JUMPDEST DUP1 ISZERO PUSH2 0x785 JUMPI DUP1 PUSH1 0x1F LT PUSH2 0x75C JUMPI PUSH2 0x100 DUP1 DUP4 SLOAD DIV MUL DUP4 MSTORE SWAP2 PUSH1 0x20 ADD SWAP2 PUSH2 0x785 JUMP JUMPDEST DUP3 ADD SWAP2 SWAP1 PUSH0 MSTORE PUSH1 0x20 PUSH0 KECCAK256 SWAP1 JUMPDEST DUP2 SLOAD DUP2 MSTORE SWAP1 PUSH1 0x1 ADD SWAP1 PUSH1 0x20 ADD DUP1 DUP4 GT PUSH2 0x768 JUMPI DUP3 SWAP1 SUB PUSH1 0x1F AND DUP3 ADD SWAP2 JUMPDEST POP POP POP POP POP DUP2 MSTORE PUSH1 0x20 ADD PUSH1 0x2 DUP3 ADD SLOAD DUP2 MSTORE PUSH1 0x20 ADD PUSH1 0x3 DUP3 ADD SLOAD DUP2 MSTORE POP POP SWAP1 POP SWAP2 SWAP1 POP JUMP JUMPDEST PUSH0 PUSH0 SWAP1 SLOAD SWAP1 PUSH2 0x100 EXP SWAP1 DIV PUSH2 0xFFFF AND DUP2 JUMP JUMPDEST PUSH1 0x40 MLOAD DUP1 PUSH1 0x80 ADD PUSH1 0x40 MSTORE DUP1 PUSH0 PUSH20 0xFFFFFFFFFFFFFFFFFFFFFFFFFFFFFFFFFFFFFFFF AND DUP2 MSTORE PUSH1 0x20 ADD PUSH1 0x60 DUP2 MSTORE PUSH1 0x20 ADD PUSH0 DUP2 MSTORE PUSH1 0x20 ADD PUSH0 DUP2 MSTORE POP SWAP1 JUMP JUMPDEST PUSH0 PUSH1 0x40 MLOAD SWAP1 POP SWAP1 JUMP JUMPDEST PUSH0 PUSH0 REVERT JUMPDEST PUSH0 PUSH0 REVERT JUMPDEST PUSH0 PUSH20 0xFFFFFFFFFFFFFFFFFFFFFFFFFFFFFFFFFFFFFFFF DUP3 AND SWAP1 POP SWAP2 SWAP1 POP JUMP JUMPDEST PUSH0 PUSH2 0x830 DUP3 PUSH2 0x807 JUMP JUMPDEST SWAP1 POP SWAP2 SWAP1 POP JUMP JUMPDEST PUSH2 0x840 DUP2 PUSH2 0x826 JUMP JUMPDEST DUP2 EQ PUSH2 0x84A JUMPI PUSH0 PUSH0 REVERT JUMPDEST POP JUMP JUMPDEST PUSH0 DUP2 CALLDATALOAD SWAP1 POP PUSH2 0x85B DUP2 PUSH2 0x837 JUMP JUMPDEST SWAP3 SWAP2 POP POP JUMP JUMPDEST PUSH0 DUP2 SWAP1 POP SWAP2 SWAP1 POP JUMP JUMPDEST PUSH2 0x873 DUP2 PUSH2 0x861 JUMP JUMPDEST DUP2 EQ PUSH2 0x87D JUMPI PUSH0 PUSH0 REVERT JUMPDEST POP JUMP JUMPDEST PUSH0 DUP2 CALLDATALOAD SWAP1 POP PUSH2 0x88E DUP2 PUSH2 0x86A JUMP JUMPDEST SWAP3 SWAP2 POP POP JUMP JUMPDEST PUSH0 PUSH0 PUSH1 0x40 DUP4 DUP6 SUB SLT ISZERO PUSH2 0x8AA JUMPI PUSH2 0x8A9 PUSH2 0x7FF JUMP JUMPDEST JUMPDEST PUSH0 PUSH2 0x8B7 DUP6 DUP3 DUP7 ADD PUSH2 0x84D JUMP JUMPDEST SWAP3 POP POP PUSH1 0x20 PUSH2 0x8C8 DUP6 DUP3 DUP7 ADD PUSH2 0x880 JUMP JUMPDEST SWAP2 POP POP SWAP3 POP SWAP3 SWAP1 POP JUMP JUMPDEST PUSH2 0x8DB DUP2 PUSH2 0x826 JUMP JUMPDEST DUP3 MSTORE POP POP JUMP JUMPDEST PUSH0 DUP2 MLOAD SWAP1 POP SWAP2 SWAP1 POP JUMP JUMPDEST PUSH0 DUP3 DUP3 MSTORE PUSH1 0x20 DUP3 ADD SWAP1 POP SWAP3 SWAP2 POP POP JUMP JUMPDEST DUP3 DUP2 DUP4 MCOPY PUSH0 DUP4 DUP4 ADD MSTORE POP POP POP JUMP JUMPDEST PUSH0 PUSH1 0x1F NOT PUSH1 0x1F DUP4 ADD AND SWAP1 POP SWAP2 SWAP1 POP JUMP JUMPDEST PUSH0 PUSH2 0x923 DUP3 PUSH2 0x8E1 JUMP JUMPDEST PUSH2 0x92D DUP2 DUP6 PUSH2 0x8EB JUMP JUMPDEST SWAP4 POP PUSH2 0x93D DUP2 DUP6 PUSH1 0x20 DUP7 ADD PUSH2 0x8FB JUMP JUMPDEST PUSH2 0x946 DUP2 PUSH2 0x909 JUMP JUMPDEST DUP5 ADD SWAP2 POP POP SWAP3 SWAP2 POP POP JUMP JUMPDEST PUSH2 0x95A DUP2 PUSH2 0x861 JUMP JUMPDEST DUP3 MSTORE POP POP JUMP JUMPDEST PUSH0 PUSH1 0x80 DUP3 ADD SWAP1 POP PUSH2 0x973 PUSH0 DUP4 ADD DUP8 PUSH2 0x8D2 JUMP JUMPDEST DUP2 DUP2 SUB PUSH1 0x20 DUP4 ADD MSTORE PUSH2 0x985 DUP2 DUP7 PUSH2 0x919 JUMP JUMPDEST SWAP1 POP PUSH2 0x994 PUSH1 0x40 DUP4 ADD DUP6 PUSH2 0x951 JUMP JUMPDEST PUSH2 0x9A1 PUSH1 0x60 DUP4 ADD DUP5 PUSH2 0x951 JUMP JUMPDEST SWAP6 SWAP5 POP POP POP POP POP JUMP JUMPDEST PUSH0 PUSH2 0xFFFF DUP3 AND SWAP1 POP SWAP2 SWAP1 POP JUMP JUMPDEST PUSH2 0x9C0 DUP2 PUSH2 0x9AA JUMP JUMPDEST DUP2 EQ PUSH2 0x9CA JUMPI PUSH0 PUSH0 REVERT JUMPDEST POP JUMP JUMPDEST PUSH0 DUP2 CALLDATALOAD SWAP1 POP PUSH2 0x9DB DUP2 PUSH2 0x9B7 JUMP JUMPDEST SWAP3 SWAP2 POP POP JUMP JUMPDEST PUSH0 PUSH1 0x20 DUP3 DUP5 SUB SLT ISZERO PUSH2 0x9F6 JUMPI PUSH2 0x9F5 PUSH2 0x7FF JUMP JUMPDEST JUMPDEST PUSH0 PUSH2 0xA03 DUP5 DUP3 DUP6 ADD PUSH2 0x9CD JUMP JUMPDEST SWAP2 POP POP SWAP3 SWAP2 POP POP JUMP JUMPDEST PUSH0 PUSH0 REVERT JUMPDEST PUSH0 PUSH0 REVERT JUMPDEST PUSH32 0x4E487B7100000000000000000000000000000000000000000000000000000000 PUSH0 MSTORE PUSH1 0x41 PUSH1 0x4 MSTORE PUSH1 0x24 PUSH0 REVERT JUMPDEST PUSH2 0xA4A DUP3 PUSH2 0x909 JUMP JUMPDEST DUP2 ADD DUP2 DUP2 LT PUSH8 0xFFFFFFFFFFFFFFFF DUP3 GT OR ISZERO PUSH2 0xA69 JUMPI PUSH2 0xA68 PUSH2 0xA14 JUMP JUMPDEST JUMPDEST DUP1 PUSH1 0x40 MSTORE POP POP POP JUMP JUMPDEST PUSH0 PUSH2 0xA7B PUSH2 0x7F6 JUMP JUMPDEST SWAP1 POP PUSH2 0xA87 DUP3 DUP3 PUSH2 0xA41 JUMP JUMPDEST SWAP2 SWAP1 POP JUMP JUMPDEST PUSH0 PUSH8 0xFFFFFFFFFFFFFFFF DUP3 GT ISZERO PUSH2 0xAA6 JUMPI PUSH2 0xAA5 PUSH2 0xA14 JUMP JUMPDEST JUMPDEST PUSH2 0xAAF DUP3 PUSH2 0x909 JUMP JUMPDEST SWAP1 POP PUSH1 0x20 DUP2 ADD SWAP1 POP SWAP2 SWAP1 POP JUMP JUMPDEST DUP3 DUP2 DUP4 CALLDATACOPY PUSH0 DUP4 DUP4 ADD MSTORE POP POP POP JUMP JUMPDEST PUSH0 PUSH2 0xADC PUSH2 0xAD7 DUP5 PUSH2 0xA8C JUMP JUMPDEST PUSH2 0xA72 JUMP JUMPDEST SWAP1 POP DUP3 DUP2 MSTORE PUSH1 0x20 DUP2 ADD DUP5 DUP5 DUP5 ADD GT ISZERO PUSH2 0xAF8 JUMPI PUSH2 0xAF7 PUSH2 0xA10 JUMP JUMPDEST JUMPDEST PUSH2 0xB03 DUP5 DUP3 DUP6 PUSH2 0xABC JUMP JUMPDEST POP SWAP4 SWAP3 POP POP POP JUMP JUMPDEST PUSH0 DUP3 PUSH1 0x1F DUP4 ADD SLT PUSH2 0xB1F JUMPI PUSH2 0xB1E PUSH2 0xA0C JUMP JUMPDEST JUMPDEST DUP2 CALLDATALOAD PUSH2 0xB2F DUP5 DUP3 PUSH1 0x20 DUP7 ADD PUSH2 0xACA JUMP JUMPDEST SWAP2 POP POP SWAP3 SWAP2 POP POP JUMP JUMPDEST PUSH0 PUSH1 0x20 DUP3 DUP5 SUB SLT ISZERO PUSH2 0xB4D JUMPI PUSH2 0xB4C PUSH2 0x7FF JUMP JUMPDEST JUMPDEST PUSH0 DUP3 ADD CALLDATALOAD PUSH8 0xFFFFFFFFFFFFFFFF DUP2 GT ISZERO PUSH2 0xB6A JUMPI PUSH2 0xB69 PUSH2 0x803 JUMP JUMPDEST JUMPDEST PUSH2 0xB76 DUP5 DUP3 DUP6 ADD PUSH2 0xB0B JUMP JUMPDEST SWAP2 POP POP SWAP3 SWAP2 POP POP JUMP JUMPDEST PUSH0 PUSH1 0x20 DUP3 ADD SWAP1 POP PUSH2 0xB92 PUSH0 DUP4 ADD DUP5 PUSH2 0x8D2 JUMP JUMPDEST SWAP3 SWAP2 POP POP JUMP JUMPDEST PUSH0 PUSH1 0x20 DUP3 DUP5 SUB SLT ISZERO PUSH2 0xBAD JUMPI PUSH2 0xBAC PUSH2 0x7FF JUMP JUMPDEST JUMPDEST PUSH0 PUSH2 0xBBA DUP5 DUP3 DUP6 ADD PUSH2 0x84D JUMP JUMPDEST SWAP2 POP POP SWAP3 SWAP2 POP POP JUMP JUMPDEST PUSH0 DUP2 MLOAD SWAP1 POP SWAP2 SWAP1 POP JUMP JUMPDEST PUSH0 DUP3 DUP3 MSTORE PUSH1 0x20 DUP3 ADD SWAP1 POP SWAP3 SWAP2 POP POP JUMP JUMPDEST PUSH0 DUP2 SWAP1 POP PUSH1 0x20 DUP3 ADD SWAP1 POP SWAP2 SWAP1 POP JUMP JUMPDEST PUSH2 0xBF5 DUP2 PUSH2 0x826 JUMP JUMPDEST DUP3 MSTORE POP POP JUMP JUMPDEST PUSH0 DUP3 DUP3 MSTORE PUSH1 0x20 DUP3 ADD SWAP1 POP SWAP3 SWAP2 POP POP JUMP JUMPDEST PUSH0 PUSH2 0xC15 DUP3 PUSH2 0x8E1 JUMP JUMPDEST PUSH2 0xC1F DUP2 DUP6 PUSH2 0xBFB JUMP JUMPDEST SWAP4 POP PUSH2 0xC2F DUP2 DUP6 PUSH1 0x20 DUP7 ADD PUSH2 0x8FB JUMP JUMPDEST PUSH2 0xC38 DUP2 PUSH2 0x909 JUMP JUMPDEST DUP5 ADD SWAP2 POP POP SWAP3 SWAP2 POP POP JUMP JUMPDEST PUSH2 0xC4C DUP2 PUSH2 0x861 JUMP JUMPDEST DUP3 MSTORE POP POP JUMP JUMPDEST PUSH0 PUSH1 0x80 DUP4 ADD PUSH0 DUP4 ADD MLOAD PUSH2 0xC67 PUSH0 DUP7 ADD DUP3 PUSH2 0xBEC JUMP JUMPDEST POP PUSH1 0x20 DUP4 ADD MLOAD DUP5 DUP3 SUB PUSH1 0x20 DUP7 ADD MSTORE PUSH2 0xC7F DUP3 DUP3 PUSH2 0xC0B JUMP JUMPDEST SWAP2 POP POP PUSH1 0x40 DUP4 ADD MLOAD PUSH2 0xC94 PUSH1 0x40 DUP7 ADD DUP3 PUSH2 0xC43 JUMP JUMPDEST POP PUSH1 0x60 DUP4 ADD MLOAD PUSH2 0xCA7 PUSH1 0x60 DUP7 ADD DUP3 PUSH2 0xC43 JUMP JUMPDEST POP DUP1 SWAP2 POP POP SWAP3 SWAP2 POP POP JUMP JUMPDEST PUSH0 PUSH2 0xCBD DUP4 DUP4 PUSH2 0xC52 JUMP JUMPDEST SWAP1 POP SWAP3 SWAP2 POP POP JUMP JUMPDEST PUSH0 PUSH1 0x20 DUP3 ADD SWAP1 POP SWAP2 SWAP1 POP JUMP JUMPDEST PUSH0 PUSH2 0xCDB DUP3 PUSH2 0xBC3 JUMP JUMPDEST PUSH2 0xCE5 DUP2 DUP6 PUSH2 0xBCD JUMP JUMPDEST SWAP4 POP DUP4 PUSH1 0x20 DUP3 MUL DUP6 ADD PUSH2 0xCF7 DUP6 PUSH2 0xBDD JUMP JUMPDEST DUP1 PUSH0 JUMPDEST DUP6 DUP2 LT ISZERO PUSH2 0xD32 JUMPI DUP5 DUP5 SUB DUP10 MSTORE DUP2 MLOAD PUSH2 0xD13 DUP6 DUP3 PUSH2 0xCB2 JUMP JUMPDEST SWAP5 POP PUSH2 0xD1E DUP4 PUSH2 0xCC5 JUMP JUMPDEST SWAP3 POP PUSH1 0x20 DUP11 ADD SWAP10 POP POP PUSH1 0x1 DUP2 ADD SWAP1 POP PUSH2 0xCFA JUMP JUMPDEST POP DUP3 SWAP8 POP DUP8 SWAP6 POP POP POP POP POP POP SWAP3 SWAP2 POP POP JUMP JUMPDEST PUSH0 PUSH1 0x20 DUP3 ADD SWAP1 POP DUP2 DUP2 SUB PUSH0 DUP4 ADD MSTORE PUSH2 0xD5C DUP2 DUP5 PUSH2 0xCD1 JUMP JUMPDEST SWAP1 POP SWAP3 SWAP2 POP POP JUMP JUMPDEST PUSH0 PUSH1 0x20 DUP3 DUP5 SUB SLT ISZERO PUSH2 0xD79 JUMPI PUSH2 0xD78 PUSH2 0x7FF JUMP JUMPDEST JUMPDEST PUSH0 PUSH2 0xD86 DUP5 DUP3 DUP6 ADD PUSH2 0x880 JUMP JUMPDEST SWAP2 POP POP SWAP3 SWAP2 POP POP JUMP JUMPDEST PUSH0 PUSH1 0x80 DUP4 ADD PUSH0 DUP4 ADD MLOAD PUSH2 0xDA4 PUSH0 DUP7 ADD DUP3 PUSH2 0xBEC JUMP JUMPDEST POP PUSH1 0x20 DUP4 ADD MLOAD DUP5 DUP3 SUB PUSH1 0x20 DUP7 ADD MSTORE PUSH2 0xDBC DUP3 DUP3 PUSH2 0xC0B JUMP JUMPDEST SWAP2 POP POP PUSH1 0x40 DUP4 ADD MLOAD PUSH2 0xDD1 PUSH1 0x40 DUP7 ADD DUP3 PUSH2 0xC43 JUMP JUMPDEST POP PUSH1 0x60 DUP4 ADD MLOAD PUSH2 0xDE4 PUSH1 0x60 DUP7 ADD DUP3 PUSH2 0xC43 JUMP JUMPDEST POP DUP1 SWAP2 POP POP SWAP3 SWAP2 POP POP JUMP JUMPDEST PUSH0 PUSH1 0x20 DUP3 ADD SWAP1 POP DUP2 DUP2 SUB PUSH0 DUP4 ADD MSTORE PUSH2 0xE07 DUP2 DUP5 PUSH2 0xD8F JUMP JUMPDEST SWAP1 POP SWAP3 SWAP2 POP POP JUMP JUMPDEST PUSH2 0xE18 DUP2 PUSH2 0x9AA JUMP JUMPDEST DUP3 MSTORE POP POP JUMP JUMPDEST PUSH0 PUSH1 0x20 DUP3 ADD SWAP1 POP PUSH2 0xE31 PUSH0 DUP4 ADD DUP5 PUSH2 0xE0F JUMP JUMPDEST SWAP3 SWAP2 POP POP JUMP JUMPDEST PUSH32 0x4E487B7100000000000000000000000000000000000000000000000000000000 PUSH0 MSTORE PUSH1 0x22 PUSH1 0x4 MSTORE PUSH1 0x24 PUSH0 REVERT JUMPDEST PUSH0 PUSH1 0x2 DUP3 DIV SWAP1 POP PUSH1 0x1 DUP3 AND DUP1 PUSH2 0xE7B JUMPI PUSH1 0x7F DUP3 AND SWAP2 POP JUMPDEST PUSH1 0x20 DUP3 LT DUP2 SUB PUSH2 0xE8E JUMPI PUSH2 0xE8D PUSH2 0xE37 JUMP JUMPDEST JUMPDEST POP SWAP2 SWAP1 POP JUMP JUMPDEST PUSH32 0x594F5520415245204E4F5420544845204F574E45520000000000000000000000 PUSH0 DUP3 ADD MSTORE POP JUMP JUMPDEST PUSH0 PUSH2 0xEC8 PUSH1 0x15 DUP4 PUSH2 0x8EB JUMP JUMPDEST SWAP2 POP PUSH2 0xED3 DUP3 PUSH2 0xE94 JUMP JUMPDEST PUSH1 0x20 DUP3 ADD SWAP1 POP SWAP2 SWAP1 POP JUMP JUMPDEST PUSH0 PUSH1 0x20 DUP3 ADD SWAP1 POP DUP2 DUP2 SUB PUSH0 DUP4 ADD MSTORE PUSH2 0xEF5 DUP2 PUSH2 0xEBC JUMP JUMPDEST SWAP1 POP SWAP2 SWAP1 POP JUMP JUMPDEST PUSH32 0x547765657420697320746F6F206C6F6E672062726F2100000000000000000000 PUSH0 DUP3 ADD MSTORE POP JUMP JUMPDEST PUSH0 PUSH2 0xF30 PUSH1 0x16 DUP4 PUSH2 0x8EB JUMP JUMPDEST SWAP2 POP PUSH2 0xF3B DUP3 PUSH2 0xEFC JUMP JUMPDEST PUSH1 0x20 DUP3 ADD SWAP1 POP SWAP2 SWAP1 POP JUMP JUMPDEST PUSH0 PUSH1 0x20 DUP3 ADD SWAP1 POP DUP2 DUP2 SUB PUSH0 DUP4 ADD MSTORE PUSH2 0xF5D DUP2 PUSH2 0xF24 JUMP JUMPDEST SWAP1 POP SWAP2 SWAP1 POP JUMP JUMPDEST PUSH0 DUP2 SWAP1 POP DUP2 PUSH0 MSTORE PUSH1 0x20 PUSH0 KECCAK256 SWAP1 POP SWAP2 SWAP1 POP JUMP JUMPDEST PUSH0 PUSH1 0x20 PUSH1 0x1F DUP4 ADD DIV SWAP1 POP SWAP2 SWAP1 POP JUMP JUMPDEST PUSH0 DUP3 DUP3 SHL SWAP1 POP SWAP3 SWAP2 POP POP JUMP JUMPDEST PUSH0 PUSH1 0x8 DUP4 MUL PUSH2 0xFC0 PUSH32 0xFFFFFFFFFFFFFFFFFFFFFFFFFFFFFFFFFFFFFFFFFFFFFFFFFFFFFFFFFFFFFFFF DUP3 PUSH2 0xF85 JUMP JUMPDEST PUSH2 0xFCA DUP7 DUP4 PUSH2 0xF85 JUMP JUMPDEST SWAP6 POP DUP1 NOT DUP5 AND SWAP4 POP DUP1 DUP7 AND DUP5 OR SWAP3 POP POP POP SWAP4 SWAP3 POP POP POP JUMP JUMPDEST PUSH0 DUP2 SWAP1 POP SWAP2 SWAP1 POP JUMP JUMPDEST PUSH0 PUSH2 0x1005 PUSH2 0x1000 PUSH2 0xFFB DUP5 PUSH2 0x861 JUMP JUMPDEST PUSH2 0xFE2 JUMP JUMPDEST PUSH2 0x861 JUMP JUMPDEST SWAP1 POP SWAP2 SWAP1 POP JUMP JUMPDEST PUSH0 DUP2 SWAP1 POP SWAP2 SWAP1 POP JUMP JUMPDEST PUSH2 0x101E DUP4 PUSH2 0xFEB JUMP JUMPDEST PUSH2 0x1032 PUSH2 0x102A DUP3 PUSH2 0x100C JUMP JUMPDEST DUP5 DUP5 SLOAD PUSH2 0xF91 JUMP JUMPDEST DUP3 SSTORE POP POP POP POP JUMP JUMPDEST PUSH0 PUSH0 SWAP1 POP SWAP1 JUMP JUMPDEST PUSH2 0x1049 PUSH2 0x103A JUMP JUMPDEST PUSH2 0x1054 DUP2 DUP5 DUP5 PUSH2 0x1015 JUMP JUMPDEST POP POP POP JUMP JUMPDEST PUSH0 JUMPDEST DUP3 DUP2 LT ISZERO PUSH2 0x107A JUMPI PUSH2 0x106F PUSH0 DUP3 DUP5 ADD PUSH2 0x1041 JUMP JUMPDEST PUSH1 0x1 DUP2 ADD SWAP1 POP PUSH2 0x105B JUMP JUMPDEST POP POP POP JUMP JUMPDEST PUSH1 0x1F DUP3 GT ISZERO PUSH2 0x10CD JUMPI DUP3 DUP3 GT ISZERO PUSH2 0x10CC JUMPI PUSH2 0x1099 DUP2 PUSH2 0xF64 JUMP JUMPDEST PUSH2 0x10A2 DUP4 PUSH2 0xF76 JUMP JUMPDEST PUSH2 0x10AB DUP6 PUSH2 0xF76 JUMP JUMPDEST PUSH1 0x20 DUP7 LT ISZERO PUSH2 0x10B8 JUMPI PUSH0 SWAP1 POP JUMPDEST DUP1 DUP4 ADD PUSH2 0x10C7 DUP3 DUP5 SUB DUP3 PUSH2 0x1059 JUMP JUMPDEST POP POP POP POP JUMPDEST JUMPDEST POP POP POP JUMP JUMPDEST PUSH0 DUP3 DUP3 SHR SWAP1 POP SWAP3 SWAP2 POP POP JUMP JUMPDEST PUSH0 PUSH2 0x10ED PUSH0 NOT DUP5 PUSH1 0x8 MUL PUSH2 0x10D2 JUMP JUMPDEST NOT DUP1 DUP4 AND SWAP2 POP POP SWAP3 SWAP2 POP POP JUMP JUMPDEST PUSH0 PUSH2 0x1105 DUP4 DUP4 PUSH2 0x10DE JUMP JUMPDEST SWAP2 POP DUP3 PUSH1 0x2 MUL DUP3 OR SWAP1 POP SWAP3 SWAP2 POP POP JUMP JUMPDEST PUSH2 0x111E DUP3 PUSH2 0x8E1 JUMP JUMPDEST PUSH8 0xFFFFFFFFFFFFFFFF DUP2 GT ISZERO PUSH2 0x1137 JUMPI PUSH2 0x1136 PUSH2 0xA14 JUMP JUMPDEST JUMPDEST PUSH2 0x1141 DUP3 SLOAD PUSH2 0xE64 JUMP JUMPDEST PUSH2 0x114C DUP3 DUP3 DUP6 PUSH2 0x107F JUMP JUMPDEST PUSH0 PUSH1 0x20 SWAP1 POP PUSH1 0x1F DUP4 GT PUSH1 0x1 DUP2 EQ PUSH2 0x117D JUMPI PUSH0 DUP5 ISZERO PUSH2 0x116B JUMPI DUP3 DUP8 ADD MLOAD SWAP1 POP JUMPDEST PUSH2 0x1175 DUP6 DUP3 PUSH2 0x10FA JUMP JUMPDEST DUP7 SSTORE POP PUSH2 0x11DC JUMP JUMPDEST PUSH1 0x1F NOT DUP5 AND PUSH2 0x118B DUP7 PUSH2 0xF64 JUMP JUMPDEST PUSH0 JUMPDEST DUP3 DUP2 LT ISZERO PUSH2 0x11B2 JUMPI DUP5 DUP10 ADD MLOAD DUP3 SSTORE PUSH1 0x1 DUP3 ADD SWAP2 POP PUSH1 0x20 DUP6 ADD SWAP5 POP PUSH1 0x20 DUP2 ADD SWAP1 POP PUSH2 0x118D JUMP JUMPDEST DUP7 DUP4 LT ISZERO PUSH2 0x11CF JUMPI DUP5 DUP10 ADD MLOAD PUSH2 0x11CB PUSH1 0x1F DUP10 AND DUP3 PUSH2 0x10DE JUMP JUMPDEST DUP4 SSTORE POP JUMPDEST PUSH1 0x1 PUSH1 0x2 DUP9 MUL ADD DUP9 SSTORE POP POP POP JUMPDEST POP POP POP POP POP POP JUMP JUMPDEST PUSH32 0x4E487B7100000000000000000000000000000000000000000000000000000000 PUSH0 MSTORE PUSH1 0x32 PUSH1 0x4 MSTORE PUSH1 0x24 PUSH0 REVERT INVALID LOG2 PUSH5 0x6970667358 0x22 SLT KECCAK256 PUSH16 0x7BA13FD1C3F9EB85D8AECB9370E2183A SIGNEXTEND PC 0xD9 PUSH5 0x813161C711 PUSH27 0x7A750FB4BE64736F6C634300082100330000000000000000000000 "
				},
				"gasEstimates": {
					"creation": {
						"codeDepositCost": "935800",
						"executionCost": "49503",
						"totalCost": "985303"
					},
					"external": {
						"MaxTweetAllowed()": "2531",
						"changeTweetLength(uint16)": "26864",
						"createTweet(string)": "infinite",
						"getAllTweet(address)": "infinite",
						"getTweet(uint256)": "infinite",
						"owner()": "2508",
						"tweets(address,uint256)": "infinite"
					}
				},
				"methodIdentifiers": {
					"MaxTweetAllowed()": "cb886fa7",
					"changeTweetLength(uint16)": "58bfa4ab",
					"createTweet(string)": "7c9cd2bc",
					"getAllTweet(address)": "b64988b8",
					"getTweet(uint256)": "c3ad5ecb",
					"owner()": "8da5cb5b",
					"tweets(address,uint256)": "05a1b4a9"
				}
			},
			"storageLayout": {
				"storage": [
					{
						"astId": 4,
						"contract": "contracts/Twitter.sol:Twitter",
						"label": "MaxTweetAllowed",
						"offset": 0,
						"slot": "0",
						"type": "t_uint16"
					},
					{
						"astId": 19,
						"contract": "contracts/Twitter.sol:Twitter",
						"label": "tweets",
						"offset": 0,
						"slot": "1",
						"type": "t_mapping(t_address,t_array(t_struct(Tweet)13_storage)dyn_storage)"
					},
					{
						"astId": 21,
						"contract": "contracts/Twitter.sol:Twitter",
						"label": "owner",
						"offset": 0,
						"slot": "2",
						"type": "t_address"
					}
				],
				"types": {
					"t_address": {
						"encoding": "inplace",
						"label": "address",
						"numberOfBytes": "20"
					},
					"t_array(t_struct(Tweet)13_storage)dyn_storage": {
						"base": "t_struct(Tweet)13_storage",
						"encoding": "dynamic_array",
						"label": "struct Twitter.Tweet[]",
						"numberOfBytes": "32"
					},
					"t_mapping(t_address,t_array(t_struct(Tweet)13_storage)dyn_storage)": {
						"encoding": "mapping",
						"key": "t_address",
						"label": "mapping(address => struct Twitter.Tweet[])",
						"numberOfBytes": "32",
						"value": "t_array(t_struct(Tweet)13_storage)dyn_storage"
					},
					"t_string_storage": {
						"encoding": "bytes",
						"label": "string",
						"numberOfBytes": "32"
					},
					"t_struct(Tweet)13_storage": {
						"encoding": "inplace",
						"label": "struct Twitter.Tweet",
						"members": [
							{
								"astId": 6,
								"contract": "contracts/Twitter.sol:Twitter",
								"label": "author",
								"offset": 0,
								"slot": "0",
								"type": "t_address"
							},
							{
								"astId": 8,
								"contract": "contracts/Twitter.sol:Twitter",
								"label": "content",
								"offset": 0,
								"slot": "1",
								"type": "t_string_storage"
							},
							{
								"astId": 10,
								"contract": "contracts/Twitter.sol:Twitter",
								"label": "timestamp",
								"offset": 0,
								"slot": "2",
								"type": "t_uint256"
							},
							{
								"astId": 12,
								"contract": "contracts/Twitter.sol:Twitter",
								"label": "likes",
								"offset": 0,
								"slot": "3",
								"type": "t_uint256"
							}
						],
						"numberOfBytes": "128"
					},
					"t_uint16": {
						"encoding": "inplace",
						"label": "uint16",
						"numberOfBytes": "2"
					},
					"t_uint256": {
						"encoding": "inplace",
						"label": "uint256",
						"numberOfBytes": "32"
					}
				}
			},
			"userdoc": {
				"kind": "user",
				"methods": {},
				"version": 1
			}
		}
	}
}